:020000040800F2
:100000002004002001010008BD0B00081D0B0008A2
:10001000B90B0008C3070008B11700080000000072
:10002000000000000000000000000000B10E000809
:100030001508000800000000990D00087510000860
:100040001B0100081B0100081B0100081B01000820
:100050001B0100081B0100081B0100081B01000810
:100060001B0100081B0100081B0100081B01000800
:100070001B0100081B0100081B0100081B010008F0
:100080001B0100081B0100081B0100081B010008E0
:100090001B0100081B0100081B010008E108000803
:1000A0001B0100081B0100081B0100081B010008C0
:1000B000D91000081B0100081B0100081B010008E3
:1000C0001B0100081B0100081B0100081B010008A0
:1000D0001B0100082D1500081B0100081B0100086A
:1000E0005D0800081B0100081B010008DFF80CD0A8
:1000F00000F024FB00480047B9200008200400203D
:100100000648804706480047FEE7FEE7FEE7FEE7B1
:10011000FEE7FEE7FEE7FEE7FEE7FEE779100008F0
:10012000ED00000880EA010210B502F00043400033
:1001300022D04A001FD0010E01EB1261C0F356001D
:10014000C2F3560240F4000042F40002A0FB022079
:1001500000047F39140400D0401C50EA124001D43E
:100160004000491EC2B20C0604EBD010401C4008EF
:10017000802A02D003E0002010BD20F001000029F9
:1001800000DA0020184310BD2DE9F04D81EA030488
:1001900004F0004B21F0004514464FF0000A23F014
:1001A000004150EA050220D054EA01021DD0C5F3F7
:1001B0000A570246C5F31303C1F31300C1F30A56ED
:1001C00040F4801543F48013A7EB0608101BD646B5
:1001D00008F2FD3873EB050002D308F1010801E0D5
:1001E00092185B41B8F1000F03DA00200146BDE828
:1001F000F08D00204FF48011064684460EE0171B58
:1002000073EB050705D3121B63EB050306434CEAAA
:10021000010C49084FEA300092185B4150EA01078F
:10022000EDD152EA030012D082EA040083EA05010C
:10023000084305D0101BAB4106D20122002306E083
:1002400000224FF0004302E06FF0010253101AEB5E
:1002500006004CEB085110EB0A0041EB0B01BDE826
:10026000F04D00F0C4B80EB5C10F80EAE07008444C
:10027000CA07002140F233438DE80E000A460B46C0
:1002800000F0C4F803B000BD00F0004220F00040D0
:10029000C10DC0F3160040F400007F2901DA0020F0
:1002A0007047962903DCC1F19601C84001E09639F8
:1002B0008840002AF4D04042704701F0004330B437
:1002C00021F0004150EA010206D00A0DA2F5607249
:1002D000C1F31301002A02DC30BC00207047440F38
:1002E00044EAC104C100E01830BC00EBC25000F089
:1002F00047B830B50B46014600202022012409E012
:1003000021FA02F59D4205D303FA02F5491B04FACE
:1003100002F52844151EA2F10102F1DC30BD2DE9E1
:10032000F05F0546002092469B4688460646814679
:1003300040241BE0284641464746224600F01FFA6B
:1003400053465A46C01A914110D3114618462246C8
:1003500000F006FA2D1A67EB01084F4622460120ED
:10036000002100F0FDF917EB00094E41201EA4F119
:100370000104DFDC484631462A464346BDE8F09F8B
:100380000029A8BF7047401C490008BF20F00100A9
:10039000704710B4B0FA80FC00FA0CF050EA010487
:1003A00004BF10BC704749B1CCF1200421FA04F419
:1003B00011FA0CF118BF012121430843A3EB0C01F2
:1003C000CB1D4FEA00614FEA102042BF002010BC55
:1003D000704700EBC35010440029A4BF10BC704705
:1003E000401C490008BF20F0010010BC704710B548
:1003F000141E73F1000408DA401C41F10001921848
:100400005B411A4301D120F0010010BD2DE9F04DF0
:1004100092469B4611B1B1FA81F202E0B0FA80F245
:100420002032904600F09CF904460F4640EA0A004C
:1004300041EA0B0153465A46084313D0114653EA8A
:10044000010019D0C8F14002504600F098F9054665
:100450000E4650465946424600F082F9084305D000
:10046000012004E020463946BDE8F08D0020054318
:1004700046EAE0762C4337430A986305E40AA0EB8A
:1004800008000022FD0A44EA47540A3002D5002041
:100490000146E9E7010510196941DDE90845001940
:1004A0006941BDE8F04DA2E72DE9FE4F804681EAA3
:1004B0000300C00F0C46009021F0004123F00045DE
:1004C000B8EB0200A94105D24046214690461C46A1
:1004D0000B46024623F00040104347D0270DC7F3D8
:1004E0000A00C3F30A510290401A019040286BDAC7
:1004F000C3F3130040F4801B0098924620B1002300
:10050000D2EB030A63EB0B0B01985946C0F1400292
:10051000504600F025F906460D4650465946019AC8
:1005200000F03DF910EB08006141002487EA115208
:1005300084EAE7731A4340D0009A62B3019A012A11
:100540004FEA075215DC001B61EB02014FF000423D
:1005500002EA0752CDE90042001C41F58011324603
:100560002B46FFF753FF03B0BDE8F08F404621460E
:10057000F9E7001B61EB0201001C41F58013001834
:100580005B412018A2F5001747EB030140EAD57044
:10059000B6196D4111E06D084FEA360645EAC0759F
:1005A0004FEA0752001B61EB0201001C41F580116C
:1005B00049084FEA30000019514132462B4603B03A
:1005C000BDE8F04FFFF713BF009801224000002361
:1005D000D0EB020263EBE073009821464FEAE0742F
:1005E000B8EB000061EB0401E9E783F000435BE74F
:1005F00081F0004158E72DE9FE4F81EA030404F041
:10060000004421F0004100944FF0000B23F0004320
:1006100050EA01045ED052EA03045BD0C3F30A54EB
:10062000C1F30A552C44A4F2F3340194A0FB025404
:10063000C1F3130141F48011C3F3130343F4801396
:1006400001FB024400FB034E840A970A44EA8154EA
:1006500047EA8357A4FB076802958D0A05FB0785C7
:100660004FEA932C04FB0C542705029D4FEA0658D1
:1006700047EA1637B5EB08056EEB070C870E920EAE
:1006800047EA811742EA8312A7FB0201B6EB0B018E
:1006900064EB00042B0D43EA0C335E1844EB1C5052
:1006A000DA465146E7FB0201C5F313044FEA0B3368
:1006B00043EA14534FEA0432019C43EA0603A4F1CF
:1006C0000C040294009CCDE900B4FFF79FFE03B038
:1006D000BDE8F08F00200146F9E7C1F30A52C1F3EB
:1006E000130140F2FF3341F480119A4202DA0020F4
:1006F0000146704740F233439A42A2F2334202DC91
:10070000524200F03CB800F02BB8000030B5041E97
:1007100071F1000404DB4FF00044404264EB01013E
:10072000141E73F1000405DB1C464FF000435242D7
:1007300063EB0403994208BF904230BD064C074D5D
:1007400006E0E06840F0010394E8070098471034A1
:10075000AC42F6D3FFF7CEFCF821000818220008BF
:10076000202A04DB203A00FA02F100207047914071
:10077000C2F1200320FA03F3194390407047202A66
:1007800004DB203A21FA02F00021704721FA02F33B
:10079000D040C2F120029140084319467047202AF8
:1007A00006DBCB17203A41FA02F043EAE07306E099
:1007B00041FA02F3D040C2F12002914008431946A9
:1007C000704700BFFEE7000008B50121082000F0D7
:1007D000F5FA10208DF803000120ADF80000032089
:1007E0008DF802006946024800F000F908BD0000DB
:1007F000000C014010B50121014800F08DF910BD39
:10080000000C014010B50121014800F083F910BD32
:10081000000C0140704700B5034603E04FF47A70C6
:1008200000F005F8181EA3F10103F7D100BD00EB9D
:10083000C001C9004FF0E022516100219161052102
:10084000116100BF4FF0E021096901F480310029F6
:10085000F8D004214FF0E022116170472DE9F041FA
:100860000A20FFF7E4FF4FF4804000F041F878B32E
:1008700000214FF0804000F0D7FD0121880700F0F3
:1008800045FC00BF4FF48041124800F03AF90028BF
:10089000F8D100214FF0804000F038FC4FF080404C
:1008A00000F040FC00EB800000EB0010440020460C
:1008B000FFF7D9FC05460022074BFFF765FC07460A
:1008C000FFF7FBFC054908604FF4804000F00AF890
:1008D000BDE8F081000C01400000694018000020D4
:1008E000704700000149086070470000140401408F
:1008F000014600200022074B1B6803EA0102054B5A
:1009000014331B680B4013B10AB1012000E0002032
:100910007047000000040140002123498279002A29
:100920003AD00A46126803689A430B461A600A1DB9
:10093000126803689A430B1D1A60027911440A6811
:1009400003681A430A60184A0832126803689A4317
:10095000154B08331A601A1D126803689A43124B2C
:100960000C331A604279102A0ED11A1F12680368DC
:100970001A430D4B08331A601A1D126803681A4394
:10098000094B0C331A600DE00749427911440A689B
:1009900003681A430A6005E0027911440A68036893
:1009A0009A430A60704700000004014030B50022FD
:1009B0008B071C0F0F2303FA04F20B4B8C1053F818
:1009C00024309343084C8D1044F8253023468C1076
:1009D00053F824308C07240F00FA04F42343024C0C
:1009E0008D1044F8253030BD080001402DE9F0415C
:1009F000024600250026002000230024002791F84D
:100A000003C00CF00F0591F803C00CF0100CBCF102
:100A1000000F03D091F802C04CEA050591F800C020
:100A2000BCF1000F31D0146800202BE04FF0010C16
:100A30000CFA00F3B1F800C00CEA03069E4220D184
:100A400083004FF00F0C0CFA03F7BC4305FA03FCCC
:100A50004CEA040491F803C0BCF1280F06D14FF012
:100A6000010C0CFA00FCC2F814C00AE091F803C0B3
:100A7000BCF1480F05D14FF0010C0CFA00FCC2F894
:100A800010C0401C0828D1D31460B1F800C0BCF1DC
:100A9000FF0F34DD546800202EE000F1080C4FF009
:100AA000010808FA0CF3B1F800C00CEA03069E42F4
:100AB00021D183004FF00F0C0CFA03F7BC4305FA69
:100AC00003FC4CEA040491F803C0BCF1280F05D1E3
:100AD00000F1080C08FA0CF8C2F8148091F803C071
:100AE000BCF1480F07D100F1080C4FF0010808FADB
:100AF0000CF8C2F81080401C0828CED35460BDE822
:100B0000F0810246002093680B400BB1012000E009
:100B100000207047416170470161704700BFFEE7E8
:100B200010B500244FF400410A48FFF7EAFF70B9FE
:100B30001420FFF770FE00BF4FF400410548FFF797
:100B4000E0FF0028F8D01420FFF765FE01242046BE
:100B500010BD00000008014008B50121042000F08C
:100B60002DF948208DF803004FF40040ADF8000047
:100B700003208DF8020069460148FFF737FF08BDE2
:100B80000008014008B50121042000F017F91020E9
:100B90008DF80300FF20ADF8000003208DF802005F
:100BA00069460448FFF722FFFF210248FFF7B4FF20
:100BB00008BD00000008014000BFFEE770470000CC
:100BC00070B5002100230F22C47804B3154C2468AB
:100BD00004F4E064C4F5E064210AC1F10403CA40EE
:100BE000447804FA03F184781440214309010E4C3F
:100BF0000678A155047804F01F050124AC4005785F
:100C00006D11AD0005F1E025C5F8004109E004785B
:100C100004F01F050124AC40044D0678761145F818
:100C2000264070BD0CED00E000E400E080E100E053
:100C300002490143024A1160704700000000FA05B2
:100C40000CED00E000B589B00121042000F0A6F809
:100C50000121082000F0B2F84020ADF82000182053
:100C60008DF8230003208DF8220008A94848FFF7DB
:100C7000BDFE8020ADF8200018208DF82300032051
:100C80008DF8220008A94248FFF7B0FE4FF48070AB
:100C9000ADF8200018208DF8230003208DF82200E5
:100CA00008A93B48FFF7A2FE4FF40070ADF8200002
:100CB00018208DF8230003208DF8220008A934485D
:100CC000FFF794FE6320ADF818002320ADF8140060
:100CD0000020ADF81A00ADF8160005A92D4800F067
:100CE000A5FB6020ADF804000120ADF8060000204F
:100CF000ADF80A00ADF80C0001A9264800F030FA62
:100D00006020ADF804000120ADF806000020ADF829
:100D10000A00ADF80C0001A91E4800F077FA602027
:100D2000ADF804000120ADF806000020ADF80A007F
:100D3000ADF80C0001A9174800F0C8FA6020ADF822
:100D400004000120ADF806000020ADF80A00ADF85F
:100D50000C0001A90F4800F013FB08210D4800F01A
:100D60004BFA08210B4800F0A3FA0821094800F0CB
:100D7000FDFA0821074800F041FB0121054800F079
:100D8000B6F90121034800F0C1F909B000BD000027
:100D9000000C0140000800407047000029B1064ADD
:100DA000D2690243044BDA6104E0034AD269824308
:100DB000014BDA61704700000010024029B1064A79
:100DC00092690243044B9A6104E0034A92698243A8
:100DD000014B9A61704700000010024030B50021BD
:100DE0000022002400232D4D6D6805F00C0121B177
:100DF000042905D0082923D105E0294D056022E00A
:100E0000274D05601FE0254D6D6805F47012234DD8
:100E10006D6805F48034022505EB92421CB9214D22
:100E2000554305600BE01D4D6D6805F400351DB19F
:100E30001C4D5543056002E0194D5543056002E025
:100E4000174D056000BF00BF144D6D6805F0F0013F
:100E50000909154D6B5C0568DD4045600F4D6D68F7
:100E600005F4E061090A104D6B5C4568DD40856062
:100E70000A4D6D6805F46051C90A0B4D6B5C4568FD
:100E8000DD40C560054D6D6805F44041890B074D97
:100E90006B5CC568B5FBF3F5056130BD0010024021
:100EA00000127A0000093D00000000201000002020
:100EB0007047000000B587B001218803FFF77EFF6F
:100EC00001210420FFF77AFF18208DF81B004FF452
:100ED0000070ADF8180003208DF81A0006A921480B
:100EE000FFF784FD48208DF81B004FF48060ADF8BB
:100EF000180003208DF81A0006A91A48FFF776FD9E
:100F00004FF4165002900020ADF814000C20ADF8FC
:100F100012000020ADF81000ADF80E00ADF80C0086
:100F200002A9114800F06CFB012240F225510E4845
:100F300000F040FB4FF4A060FFF77AFE25208DF80B
:100F4000040001208DF807008DF805008DF80600DB
:100F500001A8FFF735FE0121034800F012FB07B09E
:100F600000BD0000000801400038014010B50446F3
:100F70002146054800F0B5FB00BF8021024800F083
:100F80000CFB0028F9D010BD0038014010B500F06E
:100F900001F810BD0CB500200190009033480068A6
:100FA00040F480303149086000BF3048006800F4E8
:100FB000003000900198401C0190009818B90198E9
:100FC000B0F5A06FF1D12948006800F4003010B1ED
:100FD0000120009001E0002000900098012843D1FA
:100FE0002348006840F01000214908600846006866
:100FF00020F0030008600846006840F00200086026
:101000001A484068194948600846406848600846E0
:10101000406840F4806048600846406820F47C10D6
:1010200048600846406840F4E81048600846006898
:1010300040F08070086000BF0C48006800F000704D
:101040000028F9D00948406820F0030007494860AB
:101050000846406840F00200486000BF034840680E
:1010600000F00C000828F9D10CBD0000001002406F
:10107000002002407047000010B51348006840F09F
:1010800001001149086008464068104908400E49AF
:101090004860084600680E4908400B490860084649
:1010A000006820F4802008600846406820F4FE00B4
:1010B00048604FF41F008860FFF768FF4FF0006042
:1010C0000449086010BD0000001002400000FFF855
:1010D000FFFFF6FE08ED00E010B50121880700F0E3
:1010E00024F818B10121880700F00DF810BD21B1D6
:1010F000028842F08002028004E002884FF67F738B
:101100001A4002807047CA430282704721B10288A8
:1011100042F00102028004E002884FF6FE731A409A
:10112000028070470146888C704730B50246002027
:1011300000230024158A05EA0103958905EA0104C4
:1011400013B10CB1012000E0002030BD1AB1838939
:101150000B43838102E083898B43838170470000C6
:1011600070B5002400220023058C4FF6FE76354032
:101170000584028C8388048B4FF68F752C40B51E36
:101180002C400D882C43751E2A400D892A434D881A
:101190002A43144DA8420BD0134DA84208D0134D3A
:1011A000A84205D0124DA84202D0124DA84213D138
:1011B0004FF6F7752A404D892A434FF6FB752A40B2
:1011C0008D882A434FF6FF652B404FF6FF552B4085
:1011D0008D892B43CD892B4383800483CD888586DD
:1011E000028470BD002C01400034014000400140E9
:1011F00000440140004801400A460021018B4FF69F
:10120000F7731940114301837047000070B5002443
:1012100000220023058C4FF6EF7635400584028CC2
:101220008388048B48F6FF752C404FF6FF452C4011
:101230000D884FF6FF7606EA05252C434FF6DF753D
:101240002A400D8906EA05152A434D8806EA051548
:101250002A43154DA84202D0144DA8421DD14FF685
:101260007F752A404D894FF6FF7606EA05152A4319
:101270004FF6BF752A408D8806EA05152A434FF6BA
:10128000FF352B404FF2FF752B408D8906EA85050F
:101290002B43CD8906EA85052B4383800483CD88C3
:1012A0000587028470BD0000002C0140003401401D
:1012B0000A460021018B4FF2FF7319404FF6FF736E
:1012C00003EA0223194301837047000070B500242C
:1012D00000220023058C4FF6FF6635400584028C02
:1012E0008388848B4FF68F752C404FF6FC752C400D
:1012F0000D882C434FF6FF552A400D894FF6FF7697
:1013000006EA05252A434D8806EA05252A43154D98
:10131000A84202D0144DA8421DD14FF2FF752A40B9
:101320004D894FF6FF7606EA05252A434FF6FF352D
:101330002A408D8806EA05252A434EF6FF752B4084
:101340004DF6FF752B408D8906EA05152B43CD8997
:1013500006EA05152B4383808483CD888587028424
:1013600070BD0000002C0140003401400A460021FD
:10137000818B4FF6F773194011438183704700004A
:1013800070B5002200230024058C4EF6FF76354010
:101390000584038C8488828B48F6FF752A404FF6BB
:1013A000FF452A400D884FF6FF7606EA05252A43B9
:1013B0004DF6FF752B400D8906EA05352B434D8808
:1013C00006EA05352B430B4DA84202D00A4DA84230
:1013D00008D14BF6FF752C408D894FF6FF7606EA53
:1013E00085152C4384808283CD88A0F840500384E7
:1013F00070BD0000002C0140003401400A4600216D
:10140000818B4FF2FF7319404FF6FF7303EA0223FB
:1014100019438183704781867047018770478187B0
:101420007047A0F8401070478184704700220288FE
:101430001D4B98420ED01D4B98420BD0B0F1804FFF
:1014400008D01B4B984205D01A4B984202D01A4B39
:10145000984204D14FF68F731A404B881A43174BAA
:10146000984207D0164B984204D04FF6FF431A40DB
:10147000CB881A4302808B8883850B8803850A4BAF
:1014800098420BD0094B984208D00E4B984205D099
:101490000D4B984202D00D4B984201D10B7A038636
:1014A0000123838270470000002C0140003401407A
:1014B0000004004000080040000C00400010004004
:1014C0000014004000400140004401400048014039
:1014D0007FB504460D4601210846FFF75FFC41F247
:1014E0008830ADF8080041F61F40ADF80400002038
:1014F000ADF80A00ADF8060001A94FF08040FFF7F3
:1015000095FF012241218807FFF720FE1C208DF85E
:10151000000000208DF8010003208DF8020001205A
:101520008DF803006846FFF74BFB7FBD10B540F216
:101530002551094800F031F801280CD1064800F087
:10154000CBF80649087001200549087040F2255182
:10155000014800F007F810BD0038014014000020D9
:101560001500002010B50022002340F66A14A142A5
:1015700000D100BF0A1201249440A3B2DC430480CE
:1015800010BD21B1828942F40052828104E0828937
:101590004DF6FF731A408281704702460020B1F574
:1015A000007F00D100BF13880B400BB1012000E089
:1015B00000207047F0B503460024002600250020D7
:1015C00040F66A17B94200D100BF1846C1F3421471
:1015D00001F01F06012707FA06F5012C01D10C3096
:1015E00004E0022C01D1103000E014301AB1076879
:1015F0002F43076002E00768AF430760F0BD0000BB
:101600002DE9F04786B005460E460024A24600BFED
:10161000A1460027B08900B100BF2F462C8A4CF6A6
:10162000FF700440F08804432C82AC894EF6F3101E
:101630000440B08831890843718908430443AC8170
:10164000AC8A4FF6FF400440B0890443AC8201A845
:10165000FFF7C4FB1F48874202D1DDF810A001E06C
:10166000DDF80CA0A88900F4004040B10AEBCA00E4
:1016700000EB0A1031684900B0FBF1F807E00AEB13
:10168000CA0000EB0A1031688900B0FBF1F8642051
:10169000B8FBF0F004012009642101FB1089A8893E
:1016A00000F4004040B1322000EBC900B0FBF1F083
:1016B00000F00700044308E0322000EB0910642129
:1016C000B0FBF1F000F00F0004432C8106B0BDE840
:1016D000F08700000038014001468888C0F3080008
:1016E0007047C1F308028280704700001FB50121D6
:1016F0000920FFF763FB4FF40040ADF80C00102009
:101700008DF80F0003208DF80E0003A91748FFF78E
:101710006DF94FF48040ADF80C0028208DF80F00D3
:1017200003A91248FFF762F90E210120FFF73EF9E5
:101730004FF48040019000208DF8080008208DF8BB
:10174000090001208DF80A0001A8FFF7E5F828201C
:101750008DF8000002208DF801008DF802000120B4
:101760008DF803006846FFF72BFA1FBD000C0140FF
:1017700070B54FF400410B48FFF7CEF91420FFF786
:1017800056F84FF400410748FFF7C4F906490748E7
:101790000068FEF7C7FC0546FEF776FD04462046C6
:1017A00070BD0000000C0140000020411800002026
:1017B00000BFFEE70FB4054B10B503A9044A029819
:1017C00000F0DAF810BC5DF814FB0000A720000858
:1017D0001C00002002E008C8121F08C1002AFAD12C
:1017E00070477047002001E001C1121F002AFBD1A1
:1017F000704700002DE9FF5F82B00021DDE9043071
:10180000020DDDF840B0034318D044F61050A2F2A8
:10181000FF3242431514119801281FD0A5EB0B008D
:10182000401C5FEA000A4FF000064E4FDFF8389187
:10183000B046504615D5CAF1000413E011980124B2
:101840004AA3012801D16FEA0B010298119AC0E95D
:101850000031C0E9024206B0BDE8F09FCBF10000C4
:10186000DFE704460021404A491842EB0450CDE925
:10187000001012E0E00707D032463B46404649469A
:10188000FEF7B9FE8046894632463B461046194669
:10189000FEF7B1FE06460F466410002CEAD1DDE9E2
:1018A0000401DDE90023BAF1000F06DAFEF7A3FE1A
:1018B00042464B46FEF79FFE05E0FEF765FC4246BA
:1018C0004B46FEF761FC04460E460022284BFEF70D
:1018D0001DFF03D84FF0FF30014607E00022254BE3
:1018E00020463146FEF7E0FDFEF7F7FE102409E042
:1018F000002C0ADB0A220023FEF711FD039B303285
:101900001A55641E50EA0102F2D1641C039AC4F114
:1019100011031444119A012A03D0012208430DD166
:101920000AE0084304D000204FF0110B119072E739
:10193000A3EB0B056D1E0DE05B4504DD4FF00002CF
:1019400005F1010504E003DA4FF00002A5F10105FD
:10195000002AECD002981199C0E90231C0E9004593
:1019600079E70000000014400000F03F3000000064
:101970000000F0430000E03F2DE9FF4F95B09B468B
:101980008946064600250FE2252877D10024274600
:10199000F84A0121059400E0044316F8013F203B7A
:1019A00001FA03F01042F7D130782A2811D06FF0F5
:1019B0002F033078A0F13002092A16D8059A44F096
:1019C000020402EB820203EB42021044761C0590F3
:1019D000EFE759F8042B0592002A03DA504244F449
:1019E0000054059044F00204761C30782E2816D15D
:1019F00016F8010F44F004042A280DD06FF02F02CE
:101A00003078A0F13003092B09D807EB870302EBEC
:101A10004303C718761CF3E759F8047B761C30782B
:101A20006C280FD006DC4C2817D068280DD06A2807
:101A300014D104E0742810D07A280FD10DE044F4BA
:101A400000140AE044F4801401E044F44014727875
:101A5000824202D104F58014761C761C3078662808
:101A60000BD013DC582877D009DC002875D0452826
:101A7000F6D04628F4D047281AD19DE118E0632813
:101A800035D0642879D0652812D195E1702873D0BB
:101A900008DC6728F1D069286FD06E280DD06F2838
:101AA00006D1B5E073282CD0752875D0782874D06D
:101AB0005A46179990476D1C75E1C4F302500228ED
:101AC00009D003280DD0D9F8001004280DD00D60DE
:101AD00009F1040967E1D9F80010EA17C1E90052D9
:101AE000F6E7D9F800100D80F2E70D70F0E719F86D
:101AF000041B8DF8001000208DF80100EA4601203B
:101B000003E059F804AB4FF0FF3061074FF00001DC
:101B100002D40DE008F101018846B9420FDA804590
:101B2000F8DB1AF808100029F4D108E008F10101E7
:101B300088468142FADB1AF808100029F6D1059888
:101B40005B46A0EB080721463846179A00F094FA46
:101B5000284400EB080507E04DE029E10DE01AF804
:101B6000010B5A4617999047B8F10108F7D25B4626
:101B700021463846179A13E142E00A220092C4F344
:101B800002524FF0000A022A08D059F804CB032A67
:101B90004FEAEC710AD00DE029E02AE009F10701D3
:101BA00021F00702F2E802C1914609E00FFA8CFC2D
:101BB0004FEAEC71042A03D14FFA8CFC4FEAEC7126
:101BC000002907DA0A460021DCF1000C61EB020172
:101BD0002D2202E0220504D52B228DF804200122BB
:101BE00003E0E20701D02022F7E7904659E00A21FE
:101BF00002E010220DE010214FF0000A00910BE0EE
:101C000010224FF0000A44F004040827009203E079
:101C100008224FF0000A0092C4F30252022A05D0B3
:101C200059F804CB0021032A08D009E009F1070183
:101C300021F00702F2E802C1914605E01FFA8CFC90
:101C4000042A01D10CF0FF0C4FF00008220728D520
:101C5000702806D0009B83F0100353EA0A0305D0D6
:101C60000EE040228DF80420012208E05CEA010227
:101C700006D030228DF804208DF80500022290460F
:101C8000009B83F0080353EA0A030AD15CEA0102CD
:101C900001D1620705D530228DF804204FF00108EC
:101CA0007F1E582804D034A003900EA802900DE0A7
:101CB00036A0F9E753466046009AFEF730FB8446AB
:101CC0000398825C0298401E029002705CEA010058
:101CD000F0D1029806A9081A00F1200A600702D57F
:101CE00024F4803400E00127574502DDA7EB0A0009
:101CF00000E0002000EB0A01009005984144401AE2
:101D00000590E00306D45B462146179A059800F03B
:101D1000B3F90544002706E001A85A46C05D1799AB
:101D200090476D1C7F1C4745F6DBE0030CD55B46F6
:101D30002146179A059800F09FF9054404E03020E9
:101D40005A46179990476D1C0099481E009000292B
:101D5000F5DC08E0029802995A460078491C029185
:101D6000179990476D1CBAF10001AAF1010AF1DC44
:101D700065E100000928010030313233343536374F
:101D800038396162636465660000000030313233C7
:101D90003435363738394142434445460000000067
:101DA00000F058F90544761C307800287FF4ECAD3B
:101DB00019B02846BDE8F08F620700D4062709F164
:101DC000070222F0070CFCE80223E14603F000487A
:101DD0005FEA080C02D00FF2702C0DE05FEA045CA1
:101DE00002D50FF2682C07E05FEAC47C02D00FF244
:101DF000602C01E0AFF2700C4FF0FF3823F000438D
:101E0000CDF850C065280CD006DC452809D04628FE
:101E10001DD047283DD13DE0662818D067287ED1E7
:101E200038E00021112F01DB112000E0781CCDE902
:101E3000000106A90EA8FFF7DDFCDDE90F010E9AEF
:101E400003910021009207F1010A04914DE04FF047
:101E500000400097CDE9011006A90EA8FFF7CAFCC3
:101E6000DDE90F0203920E9B11990022DDF80CA010
:101E70000093049211B9791C00EB010AB7EB0A0038
:101E800004D4C0F1FF3007F1010A0490AAEB070067
:101E9000019044E0012F00DA01270021112F01DD1C
:101EA000112000E03846CDE9000106A90EA8FFF791
:101EB000A1FCDDE90F010E9A03910021049100922B
:101EC000BA4621070CD40399514500DA8A46BAF183
:101ED000010F05DD009AAAF10101515C302908D0FB
:101EE000B84202DA10F1040F06DA0121CDE901103F
:101EF00015E0AAF10101E9E7002805DC0499014495
:101F00000491AAEB000102E0411C514500DD8A4624
:101F10000499401A401C01904FF0004002902007A5
:101F200004D40198504501DBCDF8048000208DF8E1
:101F30004F0002980DF14F07B0F1004F25D02B2034
:101F40000E9002984FF0020800280CDA40420290EE
:101F50002D200E9007E00A210298FEF7CAF93031D1
:101F6000029007F8011DB8F10001A8F10108F2DCA8
:101F700002980028EFD1791E0E980870307800F092
:101F8000200040F0450007F8020D12A8C01B00F128
:101F900007081498007800B1012000EB0A010198AD
:101FA00001EBE07105984144401A401E0590E003A2
:101FB00006D45B462146179A059800F05DF8054463
:101FC0001498007818B15A46179990476D1CE00391
:101FD00024D55B462146179A059800F04DF8054434
:101FE0001CE00498002807DBDDE90301884203DDDB
:101FF0000098405C179901E0179930205A469047A5
:10200000049805F10105401C04900198401E0190C0
:1020100004D12E205A46179990476D1CBAF1000141
:10202000AAF1010ADDDC05E017F8010B5A46179901
:1020300090476D1CB8F10001A8F10108F4DC5B4683
:102040002146179A0598ABE62D0000002B000000F2
:10205000200000002DE9F041044600251E461746E9
:10206000880404D405E039462020B0476D1C641E66
:10207000F9D52846BDE8F0812DE9F0410446002558
:102080001E469046C80301D5302700E0202788046B
:1020900004D505E041463846B0476D1C641EF9D5AD
:1020A0002846BDE8F08170B504460D46E0B2FEF763
:1020B0005DFF204670BD000041F61F4141F28830AF
:1020C000FFF706FA4FF4A060FEF7B2FDFEF744FDFD
:1020D000FEF77AFBFEF756FDFFF708FBFEF7EAFE78
:1020E00000F06BF800BFFEF71BFD0028FBD01EE0E0
:1020F000FFF73EFB044621460DA0FFF75BFB282CB3
:102100000FDAFEF777FB4FF4FA71462000F02FF854
:102110004FF4FA71462000F017F8FFF729FB044648
:1021200005E00121462000F035F8FEF76BFBDFE704
:10213000B2E2B5BDB5C4BEE0C0EBD6B5CEAAA3BA77
:1021400025640D0A0000000070B504460D46642C9D
:1021500000DD6424002C00DA0024E0B200231A46DB
:10216000194600F02FF82846FEF755FB70BD70B5F4
:1021700004460D46642C00DD6424002C00DA0024A3
:10218000E3B2E1B20022104600F01CF82846FEF748
:1021900042FB70BD70B504460D46642C00DD64241E
:1021A000002C00DA0024E2B2E0B20023194600F06D
:1021B00009F82846FEF72FFB70BD10B5FEF742FD6B
:1021C00010BD00002DE9F04104460F4615461E469D
:1021D00021460848FFF71FF939460648FFF71DF961
:1021E00029460448FFF71BF931460248FFF719F961
:1021F000BDE8F0810008004018220008000000201F
:1022000020000000D4170008382200082000002019
:1022100000040000E41700080000000001020304AD
:102220000102030406070809020406080000000072
:082230000000000000000000A6
:04000005080000ED02
:00000001FF
