:020000040800F2
:1000000098C80020151503080115030803150308F7
:10001000051503080715030809150308000000006B
:1000200000000000000000000000000091B4010882
:100030000B150308000000003FB401081115030868
:1000400085150308891503088D1503089115030804
:1000500095150308991503089D150308A1150308B4
:10006000A5150308A9150308AD150308B115030864
:10007000B5150308B9150308BD150308C115030814
:10008000C5150308C9150308CD150308D1150308C4
:10009000D5150308D9150308DD150308E115030874
:1000A000E5150308E9150308ED150308F115030824
:1000B000F5150308F9150308FD15030801160308D3
:1000C00005160308091603080D1603081116030880
:1000D00015160308191603081D1603082116030830
:1000E00025160308291603082D1603080000000032
:1000F0000000000000000000000000000000000000
:100100000000000000000000311603083516030847
:10011000391603083D16030841160308451603085F
:10012000491603084D16030851160308551603080F
:10013000591603085D1603086116030865160308BF
:10014000691603086D16030871160308751603086F
:1001500070888888888888702060202020202070FF
:1001600070880810204080F8708808101008887087
:1001700010305090F8101010F88080F00808887047
:10018000304080F088888870F8080810204040408F
:1001900070888870888888707088887808081060EF
:1001A00000002020F820200000000000F8000000DF
:1001B000000000000000000000000000000060607F
:1001C0000000606000606000006264081026460065
:1001D00006060100B001000806060100C80100087B
:1001E00006060100A001000806060100A80100089B
:1001F00006060100B80100080606010050010008CB
:10020000060601005801000806060100600100080A
:1002100006060100680100080606010070010008DA
:1002200006060100780100080606010080010008AA
:10023000060601008801000806060100900100087A
:10024000060601009801000806060100C00100082A
:1002500030003A00F8010008000000002D002E00D8
:10026000E8010008500200082B002B00E001000804
:100270005C02000825002500D8010008680200087B
:1002800020002000D001000874020008B10003081B
:1002900079010308B1010308B70103080000000059
:1002A00000000000080801018002000808000800A2
:1002B000000000005600FF10FF20EF10CE00AC0041
:1002C00089000100CD10CE10010000003607309FDC
:1002D0003F909F4F909F3F90240520000003021005
:1002E000005E0D60008C0F4007DEAFA109FDDFB29C
:1002F00000E67D003BFCDE9019F8DC5005F0D700ED
:1003000007C0F400001010000017710008FFFF91F3
:100310004F8779F77F3660623FEC920005CFFFB1DF
:1003200000069BF79E0660F97F9778F609FFFF802D
:1003300000177000000220000230000430006FDC63
:10034000001E3000D82F50790000F70F61E2000046
:10035000BB7F2890000019B52E16BA200000983FE8
:100360006BB00002E16F07F0000A704F28D0003E2A
:10037000000BEF6000240000210000000005740065
:100380000000CFEF800003F80BF00002FB2DD0003F
:1003900000AFFE400008FFFB07503FD2BFBF906F89
:1003A000701DFE203FD67EFF5008FFFB4E900012CE
:1003B0001001000045BDBDBD33000000003700CB7B
:1003C00004F709F20DD01FB02FB01FB00DD009F205
:1003D00004F600CB0037000036006F202F900CE0B1
:1003E00008F306F606F706F608F30CE02F906F30D8
:1003F000470000000033001279214FEEF502FE3075
:100400000A98A0010010000000032000000DA000C9
:10041000000DB000377ED772AFFFFFF7022DC2206C
:10042000000DB000000B80000DD00EF301D10B5079
:100430001777307FFFB00465200000000DD00DD08D
:1004400000000000000450000D90004F3000AD008F
:1004500001F70006F2000CB0003F50008E0000D9FA
:1004600000002000000000000003300003DFFD302A
:100470000DF77FD04FA00BF47F7007F67F6007F772
:100480006F7007F64FA00BF30DF78FC002DFFC2053
:10049000000220000000300007F3048FF41FFFF477
:1004A000012CF4000BF4000BF4000BF4000BF4002F
:1004B0000AF20000100000000013300006EFFE50AA
:1004C0004FD67FF17F500BF425001EF10005EF7031
:1004D00001BFC4001DF700007FD999926FFFFFF3A1
:1004E0000013300008FFFD204FC68FB03B200FC027
:1004F0000007AF60001EFF7000003FF17E200EF18C
:100500007FC6AFC009FFFB200012100000001300DF
:100510000001CF30000AFF40007EBF4003F59F403E
:100520001E909F40AFA9DFB49DDDEFE700009F4024
:1005300000008F3000000200002222000CFFFF901C
:100540001FC999403F5000006FCFFB105FA6BFB09E
:1005500000000EF137000EF08FB6AFB01BFFFA109F
:10056000001210000003410002CFFF800CF53DF0A7
:100570003F9001306F9BDB407FF98EE27F9008F661
:100580005F9008F60DE76EF203DFFE5000022000D8
:1005900002222210CFFFFFF15999AFD00000AE2008
:1005A0000005F600000DD000006F700000CF2000A5
:1005B00002FD000003F900000020000000133100DC
:1005C00006FFFE602FD34DF13FA00AF20BE88FB07B
:1005D00009FDDF906FA00BF57F6008F73FE66EF333
:1005E00006EFFE60000220000013300006FFFD3021
:1005F0003FD55ED07F700AF47F800BF72EF9AFF7FE
:1006000003BDAAF504100AF20FD47FB007FFFB1058
:100610000012100009901FF00330000000000DD000
:100620000DD0000009901FF00330000000000DD035
:100630000EF301D10B500000000028F6003AFFA293
:100640003BFE82009FF5000006DFD7100005CFE4D7
:1006500000000394AFFFFFF7499999930000000051
:100660008DDDDDD6599999939E7100003BFF820084
:100670000039FFA200008FF7028EFB507FFA300096
:1006800058200000005772000BFFFF505F904FC0D2
:1006900039103FD00003EF50002EE400004F50000F
:1006A00000010000005F6000005F700000010000BA
:1006B000000379730001BFB9BF900BE31303E73F59
:1006C00046FFCE6E8E1F94DC2F9C5F20AA3D7E4F8E
:1006D00075E9B72F7BFDFF8006F7302780005DFFAF
:1006E000FC300000241000000005730000001FFD16
:1006F0000000007FFF300000CF7F900003FB1FE071
:100700000009F70BF4000EF97BFA005FFFFFFF1002
:10071000BF7000CF60CF10006F70110000020000AA
:1007200036666300FFFFFFC1FF545EF6FF200AF646
:10073000FF879FC1FFDDEFD3FF2008FBFF2006FBF3
:10074000FFA9AFF7CFFFFD80000489610001BFFF63
:10075000FE5009FD428FE01FF30009A03FE00000BA
:10076000004FD00000003FE00002200EF6001EF017
:1007700007FFA8DFB0007EFFFA1000003310000072
:100780003666520000FFFFFFB100FF767DFA00FFE2
:100790002003FF10FF2000EF40FF2000DF40FF207C
:1007A00000FF30FF2007FE00FFCBCFF500CFFFFB9F
:1007B0004000000026666651EFFFFFF5FF766650A9
:1007C000FF200000FFA99950FFFFFFA0FF200000BD
:1007D000FF200000FFCBBBB3BFFFFFF526666640DE
:1007E000EFFFFFF0FF766640FF200000FF877710E5
:1007F000FFFFFF50FF322200FF200000FF2000001B
:10080000DF10000011000000000379730001BFFF3A
:10081000FF8009FD525EF21FF30004804FE00000EC
:10082000004FD008FFF83FE0049BF90EF60009F9ED
:1008300007FF96AFF9007EFFF7C9000033101100E3
:100840005600005600FF2000FF20FF2000FF20FF81
:100850002000FF20FFDDDDFF20FFFFFFFF20FF2046
:1008600000FF20FF2000FF20FF2000FF20DE1000FF
:10087000DE101100001100005600FF20FF20FF20B5
:10088000FF20FF20FF20FF20FF20DE1011000000CE
:100890000000271000009F7000009F7000009F70F4
:1008A00000009F7000009F704A009F70BF30AF70C3
:1008B0009FB7FF301CFFF800003310005600027194
:1008C000FF202EF4FF21DF80FF3CF900FFDFE10075
:1008D000FFFFF800FF84FF30FF209FD0FF201DF8AE
:1008E000DE1005FA1100002056000000FF20000075
:1008F000FF200000FF200000FF200000FF2000007C
:10090000FF200000FF200000FFCBBB70CFFFFF9057
:100910006740000772FFE0005FF9FFF400AFF9FEE7
:10092000F800EDF9FDBD04F8F9FD7F39E4F9FD2F7C
:100930007DA4F9FD0CEF54F9FD07FF14F9EB02FA61
:1009400003F81100100020005710005700FFA0000E
:10095000DF20FFF400DF20FFFD00DF20FF7F70DFDE
:1009600020FF0DF2DF20FF03FBDF20FF009FFF20B1
:10097000FF001DFF20EE0005FE1011000011000019
:10098000000489720001CFFFFF800BFC426EF53F2F
:10099000F10007FB6FB00002FF6FB00002FF5FD0F5
:1009A0000004FD1FF4000AF907FF97CFE2007EFF65
:1009B000FB2000003310000036666300FFFFFFC11C
:1009C000FF545DF8FF2006FBFF322BF9FFFFFFE22B
:1009D000FFA98710FF200000FF200000DE100000AC
:1009E00011000000000489720001CFFFFF800BFCA2
:1009F000426EF53FF10007FB6FB00002FF6FB000E1
:100A000002FF5FD00334FE1FF409FCF907FF98FFD3
:100A1000E2007EFFFDF600003310760036666510BA
:100A2000FFFFFFF5FF544AFDFF2002FFFF5449FA84
:100A3000FFFFFFD1FF766DF8FF2006FAFF2005FCCF
:100A4000DE1002FD1100001100489710000AFFFFA0
:100A5000F6004FD326FE006FC00044002FFEB830D2
:100A60000003BFFFFA00000048FF304F5000CF5096
:100A70003FF869FE1006EFFFD400000242000000BC
:100A80002666666510CFFFFFFF70377DFA7610008F
:100A90000BF60000000BF60000000BF60000000B48
:100AA000F60000000BF60000000BF600000009F451
:100AB00000000000200000005600005600FF20004B
:100AC000FF20FF2000FF20FF2000FF20FF2000FF6D
:100AD00020FF2000FF20FF2000FF20EF4002FF103A
:100AE0008FE88DFA0009FFFFA1000013310000001C
:100AF0005700003710DF5000CF409F9002FE103F9C
:100B0000E007FA000DF30BF40008F81FD00002FC18
:100B10006F800000CFCF3000007FFC0000002EF679
:100B20000000000120000000460006700064DF2085
:100B30002FF301FDAF606FF705FA6F909EEA08F79B
:100B40002FC0DBAE0BF30EF2F77F2EE009F7F43F78
:100B50007FA006FEF00EEF6002FFB00BFF2000CF7B
:100B60007006FD0000120000210000002710027135
:100B70008FA00BF62FF36FD107FCEF3000CFF800FA
:100B8000008FF50004FFFD101DF6BF909FC02FF4ED
:100B9000BF3008F71100002047000074DF6006FC3A
:100BA0006FD00DF50CF77FB003FEEF30009FF8001B
:100BB000002FF100002FF000002FF000001EE000D9
:100BC0000001100004666665103FFFFFFF600577B7
:100BD0007DFE2000005FF3000003FF6000002EF8A0
:100BE000000001DFA000000BFC1000007FFCBBBB7D
:100BF000407FFFFFFF5000003662DFF7DD00DD00C1
:100C0000DD00DD00DD00DD00DD00DD00DD00DFF703
:100C100036620000730000CB00006F20001F7000E0
:100C20000AD00004F30000D900008E00002F6000FD
:100C30000BA00001100000004651EFF604F704F786
:100C400004F704F704F704F704F704F704F7EFF6E2
:100C50004651000000000000001DB000007FF500BC
:100C600001F9CD0009F14F601F700AD00200001099
:100C700039999998C7008FA00360000003BEEC402B
:100C80000EE88FE006202EF207CFFFF25FB31DF2D1
:100C90007FA26FF21CFFAAF30021002007300000A2
:100CA0004F9000004F9000004FBBFC304FFA9FE187
:100CB0004FB009F54F8006F74FA008F64FF77EF2C8
:100CC0003FAEFE500200200003BEE9101EF9AFA0A7
:100CD0007F8007509F4000008F6005403FE67FA067
:100CE00006EFFC20000220000000037000000BF360
:100CF00000000BF404CFACF41EF9AFF46F900CF4C9
:100D00007F6009F47F700BF42FE77FF406FFEAF2AF
:100D10000012002002AEEB200DE77EE16F8228F684
:100D20007FFFFFF67F7000302EE76CF104DFFE706E
:100D30000002200000693007FF9009F4009EFC705B
:100D40004CF93009F40009F40009F40009F4000832
:100D5000F30000100000000003CFB7E11EF9AFF46C
:100D60006F800CF47F6009F47F800CF41EFABFF4EE
:100D700003AB8AF308300CF10EFACF90029BB70058
:100D8000073000004F9000004F9000004FAAED5038
:100D90004FFBAFF14FC00CF34F900BF44F900BF49F
:100DA0004F900BF43F900AF20200001007402FB062
:100DB00004201E802FB02FB02FB02FB02FB01FA057
:100DC00001100000007402FB004201E802FB02FB7C
:100DD00002FB02FB02FB02FB02FB2CFA1992000051
:100DE000073000004F9000004F9000004F905E30A1
:100DF0004F94FE204FCEE3004FFFE2004FD8FC009F
:100E00004F90BF803F902EB00100011007402FB0DF
:100E10002FB02FB02FB02FB02FB02FB02FB01FA0FA
:100E2000010000002E69ED38EE704FEBBFEDAFF31F
:100E30004FC00FF20AF44F900FF009F44F900FF0EB
:100E400009F44F900FF009F43F900DE008F3020011
:100E5000011000202E6AED504FFBAFF14FC00CF394
:100E60004F900BF44F900BF44F900BF43F900AF21D
:100E70000200001002BEEA201DF88FD06F8009F535
:100E80007F6006F77F7008F62FE55EF205EFFE4003
:100E9000000220002E7BFC304FFA9FE14FB00AF594
:100EA0004F8006F74FA008F64FF77EF24FBDFF5078
:100EB0004F9021004F9000001940000003CFB7E190
:100EC0001EF9AFF46F900CF47F6009F47F700BF49F
:100ED0003FE67FF406FFDDF400120BF400000BF395
:100EE000000005901E7BE12FEEC12FE1002FB00026
:100EF0002FB0002FB0001FA00001100008DFC700B6
:100F00006FB7CF207FB413002CFFFA101336CF70C9
:100F10007F729F601BFFFA000012100008C1000BD7
:100F2000F2009EFC604DF8300BF2000BF2000BF269
:100F3000000BF72007FF7000120000002E7008E180
:100F40004F900BF44F900BF44F900BF44FA00CF418
:100F50002FF79FF408FFC8F200120010BB004E30BC
:100F6000CF20AF407F70EE001FB4F9000BF9F30003
:100F700005FFD00001EF7000001200009C00CD10B2
:100F8000BBBF23FF51FC7F66FE84F82FA9CAC7F3BD
:100F90000CDC87FBE008FF43FF9003FE10DF4000FE
:100FA000110012006E20AC6FB5FB0BFEE203FF8058
:100FB0000BFFE26FA7FBBE20CE010011AC005E303C
:100FC000BF40BF306F80ED001FC4F7000AF9F20088
:100FD00005FFC00000EF700000BF10004FFA0000D6
:100FE000198100002BBBBB702ABBFF900008FA00E0
:100FF000007FB10006FD10004FF977507FFFFFB072
:1010000000462008FE500BF0000BF0000BF0001C17
:10101000F000EF70001CF0000BF0000BF0000BF084
:101020000008FC500056200018006F406F406F40D1
:101030006F406F406F406F406F405F3003000000B3
:10104000463000BEF20008F40007F40007F4000682
:10105000F60000CF7006F70007F40007F40007F46D
:1010600000AEF200563000000ADA41A26FAEFFE295
:10107000230067300101000D04000000B0020008E9
:10108000030B010304000000B4020008050501037E
:1010900007000000CC020008080B00030800000055
:1010A000DC020008080C0003080000000803000828
:1010B0000B0B01030D00000038030008090B0003AF
:1010C000090000007C030008020501030400000081
:1010D000B4030008040D000304000000BC03000872
:1010E000040D000304000000D803000806060003F6
:1010F00006000000F40300080808000508000000CE
:10110000080400080404000B040000002804000880
:101110000503000805000000300400080403000B6C
:10112000040000003C040008050B0003050000005B
:1011300044040008080B00030800000068040008CD
:10114000060BFF030500000094040008080A0003D2
:1011500008000000B8040008080B000308000000A5
:10116000E0040008080B0003080000000C0500085C
:10117000080B00030800000038050008080B0003F6
:101180000800000064050008080B000307000000C9
:1011900090050008080B000308000000BC050008CB
:1011A000080B000308000000E8050008040800061A
:1011B00004000000140600080409000604000000F2
:1011C000240600080807000608000000380600088A
:1011D000080500070800000054060008080700067C
:1011E0000800000068060008070B00030700000065
:1011F000840600080A0B00030A000000B00600087D
:10120000090B000309000000E8060008080A0103B2
:101210000900000020070008090B00030900000076
:1012200048070008090A01030A00000080070008B7
:10123000080A010309000000B4070008080B0103B5
:1012400008000000DC0700080A0B00030B00000088
:1012500008080008090B01030A0000004008000804
:10126000030B01030400000078080008070B0003CB
:101270000700000090080008080B010309000000A7
:10128000BC080008070A010308000000E80800087D
:101290000A0B01030C00000010090008090B0103F0
:1012A0000A000000480900080A0B00030B000000B8
:1012B00080090008080B010309000000B8090008B4
:1012C0000A0B00030B000000E4090008080B0103EF
:1012D0000A0000001C0A0008090B000309000000B6
:1012E000480A0008090B000309000000800A0008F2
:1012F000090B01030A000000B80A0008090B0003EB
:1013000008000000F00A00080C0B00030C000000AD
:10131000280B0008080B0003080000006C0B0008F5
:10132000080B000308000000980B0008090A0003DE
:1013300009000000C40B0008040D010305000000B3
:10134000F80B0008050B000305000000140C000852
:10135000040D000305000000380C00080707000317
:1013600008000000540C00080801FF0E07000000F0
:10137000700C00080303000304000000740C000854
:1013800008080006080000007C0C0008080B000399
:10139000080000009C0C0008070800060700000079
:1013A000C80C0008080B000308000000E80C000847
:1013B0000808000608000000140D0008050B0003D3
:1013C00005000000340D0008080A000608000000AF
:1013D000580D0008080B000308000000800D0008ED
:1013E000030B000304000000AC0D0008040DFF0314
:1013F00004000000C40D0008070B000307000000F4
:10140000E00D0008030B0003040000000C0E0008B0
:101410000C0800060C000000240E00080808000656
:1014200008000000540E000808080006080000002C
:10143000740E0008080A000608000000940E000858
:10144000080A000608000000BC0E00080608000696
:1014500005000000E40E0008070800060700000071
:10146000FC0E0008050A0004050000001C0F00081F
:1014700008080006080000003C0F000807080006E6
:10148000070000005C0F00080A0800060A000000C0
:101490007C0F00080608000606000000A40F0008E4
:1014A000070A000607000000BC0F00080707000637
:1014B00007000000E40F0008050D00030500000010
:1014C00000100008030B00030300000028100008B0
:1014D000050D000305000000401000080803000887
:1014E000080000006810000820007E00741000084A
:1014F00000000000610C0308EF0A0308210B030839
:10150000270B0308330B03083C15030810100101D7
:10151000E814000810080B000000000002106FE241
:101520009FF49FF49FF47FF25FF03FD01FB00D80D7
:1015300000002BA09FF45FE10100000001100200F9
:101540000EF27F902FF49FB02FF49FB02FF49FB036
:101550001EF28FA0022003000002B40890000006D3
:10156000F70FD0000008F52FB000002BF45FA100AA
:1015700007FFFFFFFE10039FE9DFB800001FB0AFB9
:101580003000026FB4DF40000FFFFFFFF70006BF1F
:1015900098FD720000AF33F9000000CF15F700008E
:1015A00000DD07F4000000220030000000000B10F6
:1015B00000000028BFC8300005FFFFFFF9001EF93A
:1015C0002F39FF503FF00F209E303FF60F200000D4
:1015D0000DFFDF73000002CFFFFFC30000048FEF99
:1015E000FE1003000F25FF707FA00F20BF807FF348
:1015F0000F21EF601DFEAFBEFD1001AFFFFFA20087
:1016000000013F41000000000D100000000000003C
:101610000003000003ABA200007F00002EEAFE10D2
:1016200001E800007F709F5008E100009F607F701C
:101630002F7000007F608F609E1000003FD6EF2269
:10164000F700000007EFE60AE01798200001003FCE
:1016500060CFCFE1000000BD04FA09F6000004F5F8
:1016600007F706F900000CC006F806F800005F4016
:1016700003FC3BF40000CB00008FFF9000009300C0
:1016800000014200000001100000000004DFFD50D6
:101690000000003FFDCFF40000009FD00BFA0000D7
:1016A000009FD00BFA0000004FF98FF50000000AF0
:1016B000FFFF800000009FFFFB00540009FFBAFFFE
:1016C00074FF001FFB00BFFEFC003FF7001DFFE39F
:1016D000001FFB002CFFE3000AFFEDFFEEFD000101
:1016E000AFFFFB24FD0000014310001000000000CC
:1016F00001103FD06FF06FF06FF03FE0031000007B
:10170000000300009F4002FF2008FB000EF7004F7F
:10171000F3007FE000AFC000BFB000BFB000BFB0BB
:10172000008FE0005FF2001FF5000AFA0004FE10CF
:1017300000CF5000291000000300005F90002FF23E
:10174000000BF80007FE0003FF3000FF7000CFA081
:1017500000BFB000BFB000CFB000EF8002FF500567
:10176000FF100AFA001EF4005FC0001920000000FC
:10177000000010000008E0000529F0512FFEFEF7E0
:10178000027FFB4000AFCE2003F72F900030031004
:1017900000000200000000008F5000000000BF7039
:1017A00000000000BF7000000222CF8222008FFFE5
:1017B000FFFFFF606FFFFFFFFE400000BF700000F3
:1017C0000000BF7000000000BF70000000007F40FC
:1017D000000000003C90BFF56FF701E54CC06710BA
:1017E000014442002FFFFF703FFFFF80024443008F
:1017F0003C90BFF36FD101000000030000006F7048
:101800000000CF400003FD000008F800000EF200C9
:10181000005FB00000BF600001FE100007F900008B
:101820000DF300003FD000009F700000CF200000AB
:10183000230000000005BBB6000000AFFFFFA000C2
:1018400006FFA6AFF7000DFC000CFD002FF8000806
:10185000FF204FF60006FF404FF60006FF404FF610
:101860000006FF402FF70006FF300EFA000AFE00C8
:1018700009FF404FF90002EFFEFFE200003CFFFCD1
:10188000300000002420000000002B700000AFC0DA
:101890000149FFD01EFFFFD01BDDFFD00000DFD0CD
:1018A0000000DFD00000DFD00000DFD00000DFD07C
:1018B0000000DFD00000DFC00000BFA00000130068
:1018C0000017BBB6000003EFFFFFD1000DFE86AF8F
:1018D000FB005FF6000DFF004FE1000BFF0003204F
:1018E000003FFB00000007EFF3000003CFFD3000D6
:1018F000006FFE70000006FFA20000002FFC4444B1
:1019000042006FFFFFFFFF103EFFFFFFFD000000E2
:101910000028BBA50005FFFFFFA01FFE76CFF42F18
:10192000F4002FF70440002FF500005AEFB000003C
:10193000FFFF90000038CFF80100001EFC3FC00000
:101940000EFD5FF8007FF91DFFFEFFE202BFFFFB07
:1019500030000133100000000000009B4000000038
:1019600007FF900000004FFF90000002EEEF900094
:10197000000CF4DF9000009F80DF900006FB00DF8A
:1019800090003FE200DF9000BFFFFFFFFE508FFF9F
:10199000FFFFFF60022222DFA200000000DF9000B4
:1019A000000000BF80000000001300000189999929
:1019B0007007FFFFFFF30AFDBBBB900CF5000000B2
:1019C0000FF34651003FFDFFFE603FFEABFFF30605
:1019D00060004FFA0000000DFB1740000EFB5FF4A3
:1019E000008FF73FFFDEFFD104CFFFFA1000024364
:1019F0001000000000049BB93000008FFFFFF400CE
:101A000004FF934EFB000BFC000293001FF7023112
:101A100000003FF9DFFF91004FFFEBDFFA004FFDC1
:101A2000100BFF203FF80006FF401FF80006FF40A4
:101A30000BFE201CFF1003EFFDEFF700003CFFFE44
:101A400070000000243000004999999994BFFFFF6D
:101A5000FFFD5BBBBBBFF90000009FC0000005FE9F
:101A60002000001EF60000009FD0000002FF700062
:101A70000008FF1000000EFB0000004FF700000000
:101A80007FF30000006FD000000003100000000092
:101A90000017BBB8100002EFFFFFE3000BFE626E01
:101AA000FB000DFA000AFF000CFB000BFC0004FF1A
:101AB000B8BFF40002BFFFFFB2000CFE646EFD0071
:101AC0003FF70007FF304FF60006FF402FFC101BCA
:101AD000FF2009FFEDEFF900007EFFFE800000000F
:101AE000243000000017BBB6000003EFFFFFB0007A
:101AF0000CFE748FF8003FF8000AFE004FF6000756
:101B0000FF303FF7000AFF400DFF749FFF4003EFD7
:101B1000FFFDFF4000179956FF2000300009FD002F
:101B200009FA003FF80008FFDBFFD100019FFFFA30
:101B3000200000013310000005309FF29FF2174093
:101B40000000000000003C90BFF36FD101000000D6
:101B500005309FF29FF217400000000000003C900B
:101B6000BFF56FF701E54CC06710000000000001F1
:101B70008B200000029FFF500003AFFFC60005CF7F
:101B8000FFB400007FFF920000005FFFB50000007F
:101B9000029FFFD7100000017EFFF8100000007DBB
:101BA000FF500000000057100444444443009FFFCE
:101BB000FFFFFF705DDDDDDDDC30000000000000B8
:101BC0000000000000007FFFFFFFFF507FFFFFFFCE
:101BD000FF500222222221004B70000000008FFEE5
:101BE0008100000017EFFF9200000005CFFFA30067
:101BF000000003AFFF40000006DFFE300028EFFECC
:101C000071001AFFFD6000009FFC500000002730AB
:101C1000000000000000220000007EFFFA2009FF03
:101C2000EEFFE12FFA007FF72FE2003FF7022000DE
:101C3000AFF500001BFFA00000CFF7000005FF502C
:101C4000000002EC000000000000000002BA1000DA
:101C50000008FF50000004FE2000000011000000FA
:101C60000000003431000000029EFFFFA200003E91
:101C7000FB767AFE5002EF5000003EE20BF607EED4
:101C800096B5F82FD07FFFFFF0EC5F91EF408FC04B
:101C9000BD7F74FA004F90CB6F85FB006F71F73FEB
:101CA000C2FF98EFACD10CF49FFFEFFB2003FE4581
:101CB00073375700005EFB6669EE1000029FFFFF5E
:101CC000A2000000013431000000000000000230DA
:101CD000000000009FFB00000001FFFF3000000635
:101CE000FFFF8000000CFDCFE000003FF87FF40014
:101CF000008FF32FFA0000EFD00DFF1004FF8008D3
:101D0000FF600AFFCBBCFFB01FFFFFFFFFF27FF9B0
:101D100044449FF7CFF300003FFCAFC000000CFA33
:101D200003100000013000003DFFFFEDA3009FFF06
:101D3000FFFFFF309FF8444CFFA09FF60004FFB068
:101D40009FF60006FF709FFB99BFFB109FFFFFFFF0
:101D5000FB209FF8444AFFD09FF60000CFF29FF689
:101D60000000CFF39FF8445AFFE09FFFFFFFFF60A2
:101D70004EFFFFFEB4000000000013430000002AE5
:101D8000FFFFE70003EFFFFFFFB01EFFB325EFF6F5
:101D90007FFB00004FF7CFF300000361FFF000006E
:101DA0000000FFD000000000FFF000000000DFF3A3
:101DB000000005719FFA00004FF73FFF9325EFF5F4
:101DC00006FFFFFFFFA0004CFFFFE70000002443D9
:101DD000000000003DFFFFEC71009FFFFFFFFE30A1
:101DE0009FF9667DFFD09FF60001CFF69FF60000B9
:101DF0005FFA9FF600002FFD9FF600002FFD9FF673
:101E000000002FFC9FF600006FFA9FF60001DFF53F
:101E10009FF9667DFFC09FFFFFFFFD204EFFFFFC87
:101E2000710000003DFFFFFFFE508FFFFFFFFF80AE
:101E30009FF9666665109FF6000000009FF600009F
:101E400000009FFDBBBBB6009FFFFFFFFB009FFA9A
:101E5000777773009FF6000000009FF600000000F7
:101E60009FF9666665108FFFFFFFFFA03DFFFFFF34
:101E7000FF7000003DFFFFFFFB108FFFFFFFFF1013
:101E80009FF9666664009FF6000000009FF6000060
:101E900000009FFB999970009FFFFFFFF3009FFDDB
:101EA000BBBB90009FF6000000009FF60000000002
:101EB0009FF6000000009FF6000000005FF30000A6
:101EC0000000032000000000000003431000000099
:101ED0002AFFFFFA200003EFFFFFFFE2001EFFB41E
:101EE00023AFFA008FFB00000BF800CFF3000000D7
:101EF0002000FFF00000000000FFD0005DDDDD30BD
:101F0000FFE0008FFFFF60DFF2001569FF609FF9BF
:101F100000000BFF602FFF82029FFF6006FFFFFFA4
:101F2000FEEF60004CFFFFD39F50000024430003EE
:101F3000000000000210000001206FE200002EF6F9
:101F40009FF500005FF99FF600006FF99FF6000013
:101F50006FF99FF600006FF99FFFFFFFFFF99FFFEA
:101F6000FFFFFFF99FFA7777AFF99FF600006FF94F
:101F70009FF600006FF99FF600006FF99FF50000D3
:101F80005FF96FE200002EF703200000023000002E
:101F900002106FE29FF59FF69FF69FF69FF69FF661
:101FA0009FF69FF69FF69FF69FF56FE203200000D5
:101FB0000000000200000000BFB0000000FFF000C1
:101FC0000000FFF0000000FFF0000000FFF0000044
:101FD00000FFF0000000FFF0010000FFF05FC00014
:101FE000FFF09FF100FFE09FF607FFB03FFFFFFF0C
:101FF0005005EFFFF700000343100000021000003F
:1020000011006FE20002EF509FF5001DFF609FF688
:1020100001DFF8009FF61BFF90009FF6AFFA00006B
:102020009FFEFFF400009FFFFFFD00009FFFADFF3C
:1020300080009FFA03FFF3009FF6009FFD009FF6CC
:10204000001DFF709FF50004FFF16FE200009FE1AB
:10205000032000000310000002100000006FE200E7
:1020600000009FF50000009FF60000009FF60000B2
:10207000009FF60000009FF60000009FF6000000A1
:102080009FF60000009FF60000009FF60000009FF2
:10209000FA7777729FFFFFFFFB4EFFFFFFF700000D
:1020A000023100000013207FFE300002EFF7BFFF77
:1020B000800008FFF9BFFFD0000CFFF9BFFFF2005E
:1020C0002FFFF9BFFBF7007FBFF9BFF7FC00BF7F11
:1020D000F9BFF2FF21FF2FF9BFF0CF65FC0FF9BF69
:1020E000F08FBAF70FF9BFF03FFEF30FF9BFF00D15
:1020F000FFD00FF9BFF008FF800FF98FB003FF305A
:102100000BF7031000220001300000000120000046
:1021100001206FF800001EF8AFFF30002FFBBFFF5B
:10212000C0002FFBBFFFF7002FFBBFFCFE202FFBE3
:10213000BFF4EFB02FFBBFF27FF52FFBBFF20CFD1A
:102140003FFBBFF203FFAFFBBFF2008FFFFBBFF20D
:10215000000DFFFBBFF20004FFFA8FE100009FF6C5
:1021600003100000033000000000013430000000C4
:1021700003BFFFFE9100006FFFFFFFFE2003FFF98A
:10218000324BFFD00BFF800000CFF60FFF10000096
:102190005FFA2FFC0000002FFD4FFB0000002FFD19
:1021A0002FFC0000002FFC0FFF1000005FF90AFF5A
:1021B000700000CFF403FFF8223BFFC0007FFFFF59
:1021C000FFFD200005DFFFFF910000000244310009
:1021D000000000003DFFFFFDA3009FFFFFFFFF4049
:1021E0009FF9666BFFC09FF60000EFF19FF60000BD
:1021F000EFF19FF60018FFD09FFFFFFFFF609FFFEA
:10220000FFFFE6009FF8444300009FF60000000037
:102210009FF6000000009FF5000000006FE2000044
:102220000000032000000000000001343000000026
:1022300003BFFFFE9100006FFFFFFFFE2003FFF9C9
:10224000324BFFD00BFF800000CFF60FFF100000D5
:102250005FFA2FFC0000002FFD4FFB0000002FFD58
:102260002FFC0000002FFC0FFF1004B25FF90AFFE3
:102270007009FECFF403FFF823CFFFC0007FFFFFFC
:10228000FFFF600005DFFFFFBFF4000002443008DD
:10229000F40000003DFFFFFEC7109FFFFFFFFFB0EF
:1022A0009FF96667EFF49FF600009FF79FF6000026
:1022B0008FF59FF84446EFD09FFFFFFFFC209FFF64
:1022C000FFFFFF709FF60006FFE09FF60000DFF0C3
:1022D0009FF60000BFF19FF50000BFF56FE2000020
:1022E0005FF4032000000320000024410000005D93
:1022F000FFFFC40007FFFFFFFF700EFE4016EFF068
:102300002FFA00004D901FFF720000000BFFFFDA54
:10231000610001AFFFFFFE50000169DFFFF2011015
:102320000002CFF72EF400006FF72FFE4002DFF51A
:1023300009FFFEDFFFC0006DFFFFF910000034430E
:10234000100000006EFFFFFFFFE7BFFFFFFFFFFB76
:102350002777BFFB777200007FF7000000007FF750
:10236000000000007FF7000000007FF70000000081
:102370007FF7000000007FF7000000007FF70000FB
:1023800000007FF7000000007FF7000000004FF41E
:1023900000000000022000000210000001206FE297
:1023A00000002EF69FF500005FF99FF600006FF920
:1023B0009FF600006FF99FF600006FF99FF600008E
:1023C0006FF99FF600006FF99FF600006FF99FF616
:1023D00000006FF97FF700007FF83FFE6226EFF301
:1023E0000AFFFFFFFFA0007EFFFFE700000034436D
:1023F00000000000020000000110AFC000002EF538
:10240000CFF400007FF77FF90000CFF22FFD00022C
:10241000FFB00BFF3007FF6006FF700BFF1001FFDE
:10242000B01FFA0000AFF16FF500005FF6BFE000EB
:10243000000EFBFF80000009FFFF30000004FFFDDD
:1024400000000000CFF600000000032000000000A4
:10245000020000012000001100AFC0002EFB0001AF
:10246000EF50CFF1006FFF1005FF708FF4009FFF5A
:102470004008FF304FF700CFFF800BFE001FFA012E
:10248000FFAFB00EFB000CFD05FE4FF03FF700085C
:10249000FF18FA0FF36FF30004FF4BF70BF79FE001
:1024A0000000FF8FF308FACFA00000BFDFE004FEBA
:1024B000FF7000007FFFA001FFFF2000004FFF70B2
:1024C00000CFFE0000000CFE20006FF800000001AD
:1024D00041000003300000000110000011003FF334
:1024E0000004FF205FFC000DFF300DFF608FFA003D
:1024F00003FFE3FFD100008FFFFF4000000DFFF955
:1025000000000007FFF30000002FFFFC000000CFD9
:10251000FDFF700007FFB2FFF3003FFF208FFC00BC
:10252000AFF7000DFF60AFC00005FF4003100000D3
:10253000320000000210000002009FC00000BF90A7
:10254000BFF70005FFC04FFE100DFF400AFF806F70
:10255000FA0001EFF2EFE200007FFEFF7000000CD6
:10256000FFFD00000003FFF400000000FFF000008A
:102570000000FFF000000000FFF000000000FFF08E
:1025800000000000CFC000000000030000000000B9
:1025900009FFFFFFFFE60EFFFFFFFFFA0377777BE0
:1025A000FFF40000003EFF60000001DFF8000000C3
:1025B0000CFFB0000000AFFC10000007FFE20000BD
:1025C000005FFF30000003FFF50000002EFFD7770B
:1025D00077727FFFFFFFFFFB3DFFFFFFFFF700006C
:1025E0003DFFE27FFFE27FF0007FF0007FF0007FA1
:1025F000F0007FF0007FF0007FF0007FF0007FF0C0
:10260000007FF0007FF0007FF0007FF9914FFFF333
:102610000366400012000000CF1000009F70000011
:102620004FC000000DF3000007F9000002FE00009B
:1026300000BF5000005FB000000EF2000009F7007C
:102640000003FD000000CF4000006F700000040098
:10265000BFFE60CFFFB0009FB0009FB0009FB000F2
:102660009FB0009FB0009FB0009FB0009FB0009F40
:10267000B0009FB0009FB0009FB079DFB0EFFF9037
:10268000256400000003720000000EFB0000007FC4
:10269000FF500001EFAFD00009FB0DF6002FF3064D
:1026A000FE10AF9000CF7069100039504999999988
:1026B00099401444444444107800EFC23CFE007832
:1026C000000599961002DFFFFFE309FE748FFB04FB
:1026D000B3000EFB001579CFFB06FFFFDEFB2FFCDE
:1026E000410DFB4FF6003FFB2FFE89EEFD05EFFE8F
:1026F00067FE0013300031000200000000CF8000B0
:102700000000FF90000000FF90000000FF92897120
:1027100000FFCEFFFE20FFFB69FFB0FFE000AFF23D
:10272000FF90005FF4FF80004FF6FFB0007FF3FFE3
:10273000F302DFE0FFEFDFFF70DF6CFFF700130055
:1027400033100000000599830001CFFFFFA00BFFAD
:10275000A6BFF33FF9000BD26FF40000007FF20038
:1027600000005FF40004702FFC103FF409FFEDFF40
:10277000E1008EFFFC30000034200000000000006B
:102780002000000008FC00000009FF00000009FF15
:1027900000179829FF02EFFFECFF0BFF96BFFF2FFA
:1027A000FA000EFF5FF50009FF6FF40008FF4FF716
:1027B000000BFF1EFD203FFF07FFFDFEFF007FFF18
:1027C000C6FD00013200310000038995000000AF12
:1027D000FFFFC10009FF746EFB001FF80005FF300A
:1027E0004FFCBBBCFF606FFCBBBBBB304FF60000B7
:1027F00010000EFD2006FA0005FFFDEFFA00005D57
:10280000FFFE9100000024300000000000014200A3
:10281000006FFF5001FFFD4002FF800037FFA61050
:10282000BFFFFF7026FFA41002FF700002FF7000C0
:1028300002FF700002FF700002FF700002FF7000D4
:1028400001EF600000130000001698319602DFFFD0
:10285000FAFE0BFFA6BFFF2FF9000CFF5FF5000982
:10286000FF6FF40009FF3FF8000CFF0EFF648FFFBD
:1028700004FFFFFEFF0038BA49FF0161000BFC09AD
:10288000FD326FF705FFFFFFB10039CDB700000043
:102890000200000000CF80000000FF90000000FF59
:1028A00090000000FF91798300FFBEFFFF40FFFD15
:1028B0008BFFB0FFE100DFE0FFA0009FF0FF900082
:1028C0009FF0FF90009FF0FF90009FF0FF90009F0F
:1028D000F0CF80008FC01300000310000400AFB0E1
:1028E000CFC027204940CFC0DFD0DFD0DFD0DFD03E
:1028F000DFD0DFD0DFD0AFA0040000000004000074
:10290000AFB000CFC000272000494000CFC000DF9B
:10291000D000DFD000DFD000DFD000DFD000DFD07C
:1029200000DFD000DFD000DFD005EFB04FFF801A0E
:10293000B70000000200000000CF80000000FF9000
:10294000000000FF90000000FF90029300FF901D28
:10295000FC00FF91DFF500FFABFF6000FFFFFB0015
:1029600000FFFFFF4000FFE6FFE200FF906FFB006B
:10297000FF900BFF60CF8001EF50130000130000A9
:102980000200AFA0DFD0DFD0DFD0DFD0DFD0DFD0DC
:10299000DFD0DFD0DFD0DFD0DFD0AFA0030000007A
:1029A0005911798203897200EF9DFFFE6FFFFE20AF
:1029B000FFFC8CFFFC8CFF70FFE102FFD102FF9057
:1029C000FFA000FFA000FF90FF9000FF9000FF908D
:1029D000FF9000FF9000FF90FF9000FF9000FF909D
:1029E000FF9000FF9000FF90CF8000DF8000DF703D
:1029F00013000013000013005911798300EF8EFFBC
:102A0000FF40FFFD8BFFB0FFE100DFE0FFA0009F74
:102A1000F0FF90009FF0FF90009FF0FF90009FF06C
:102A2000FF90009FF0CF80008FC0130000031000C4
:102A300000048984000001BFFFFFB1000AFF958FE9
:102A4000FA001FFA000AFF205FF50005FF506FF43F
:102A50000004FF604FF70006FF400EFD101DFE1042
:102A600007FFEBEFF700006EFFFE60000000343060
:102A7000000000006913996100EFAFFFFD20FFFB2C
:102A80006AFFB0FFD000AFF2FF90005FF4FF80005C
:102A90004FF6FFB0007FF3FFF301DFE1FFFFDEFF42
:102AA00080FFABFFF900FF90241000FF90000000B2
:102AB000EF900000006B300000000000001699311C
:102AC0009602DFFFFAFE0BFFA6BFFF2FFA000DFFF5
:102AD0005FF50009FF6FF40008FF4FF7000BFF1FC1
:102AE000FD103FFF08FFEDFFFF009FFFBAFF000151
:102AF0004209FF00000009FF00000009FE0000007D
:102B000003B6000049229700CF9EFF30DFFFFB1085
:102B1000DFF50000DFE00000DFD00000DFD00000C4
:102B2000DFD00000DFD00000AFA0000004000000F4
:102B300000489961000AFFFFFE304FFA46EF806FB0
:102B4000F70027102FFFFB820004CFFFFF50030187
:102B500059EFE04FC100AFF03FFEABFFA004CFFF45
:102B6000F9100001331000000033000002FF4000A4
:102B700004FF600038FF9510BFFFFF5027FF94004F
:102B800004FF600004FF600004FF600004FF6000B9
:102B900004FF600003FFEC3000BFFF300002410083
:102BA0005930003950EF90009FE0FF90009FF0FFF8
:102BB00090009FF0FF90009FF0FF90009FF0FFA01B
:102BC00000BFF0EFE206FFF09FFFEFEFF01CFFF910
:102BD0005FD00024100310004920002940DFB0001E
:102BE000BFD0AFF101FFA05FF505FF500EF909FE60
:102BF0000009FE0EF90003FF7FF30000DFEFD000B5
:102C0000008FFF8000002FFF200000024200000024
:102C100039400189100493BFB007FF800BFB9FF17F
:102C20000BFFC00FF94FF40EFFF13FF40EF72FCC5E
:102C3000F37FE00AFB5F88F7AFA006FE9F44FADF50
:102C40006001FFEF11FEFF1000BFFC00CFFB000092
:102C50006FF7007FF6000003300003300000000033
:102C600018700078007FF405FF302FFD1EFD00076F
:102C7000FFDFF30000CFFF8000008FFF500004FF54
:102C8000FFD1001DFE6FF9008FF50BFF308FB002F2
:102C9000EF300300002200003940003930BFD0007F
:102CA000CFB08FF201FF803FF705FF300DFB09FD2C
:102CB0000008FE0DF70003FF6FF20000CFEFB00039
:102CC000007FFF7000002FFF1000000CFB000006CB
:102CD0008FF500001FFFC0000007B81000000000C3
:102CE00003666666500FFFFFFFF507999BFFE10043
:102CF000001DFE300001DFF400001BFF500000BF8C
:102D0000F700000AFF8000005FFFFFFFF54FFFFFA5
:102D1000FFF40000006DFE3001FFC92003FF4000FA
:102D200004FF400004FF400004FF400004FF3000A7
:102D30008DFB0000DFE7000006FF100004FF4000ED
:102D400004FF400004FF400003FF400002FF950025
:102D500000BFFF400003550002201EE12FF22FF2BA
:102D60002FF22FF22FF22FF22FF22FF22FF22FF25B
:102D70002FF21FF102200000CFEA00008BFF60005D
:102D800000DF700000DF700000DF700000DF700007
:102D900000DF8000007FEA10003CFF3000CFA00081
:102DA00000DF700000DF700000DF700000DF7000E7
:102DB00036FF7000EFFE20003641000002AB8300BA
:102DC00038000DFFFFBAFF004FC6AFFFF900061035
:102DD00001795000010100120600000018150008DA
:102DE000040F0104060000001C1500080707010479
:102DF0000A0000003C1500080B0E00050B00000047
:102E0000581500080B1000040B000000AC1500085A
:102E1000100F0104120000000C1600080D0F000432
:102E20000D000000841600080307010406000000DE
:102E3000F016000805120104060000000017000843
:102E400005120004060000003817000808080004F6
:102E500008000000701700080B0B00070B000000B3
:102E6000901700080406010F06000000D4170008A0
:102E70000704000B07000000E01700080404010F1E
:102E800006000000F0170008070F0004070000000C
:102E9000F81700080B0E00050B000000341800089E
:102EA000070EFF0507000000881800080B0D00053D
:102EB0000B000000C01800080A0E00050B000000FF
:102EC000101900080B0E00050B000000581900082F
:102ED0000A0E00050B000000AC1900080B0E0005DF
:102EE0000B000000F41900080A0E00050A0000009B
:102EF000481A00080B0E00050B000000901A00088D
:102F00000B0E00050B000000E41A0008040B01087A
:102F100006000000381B0008040D01080600000030
:102F2000501B00080B0A00080B0000006C1B000877
:102F30000B0800090B000000A81B00080B0A000882
:102F40000B000000D81B00080A0F00040A00000054
:102F5000141C00080E0F00040E000000601C000886
:102F60000C0F00040C000000CC1C00080C0D010527
:102F70000D000000281D00080C0F01040D000000CA
:102F8000781D00080C0D01050E000000D41D00087E
:102F90000B0D01050C000000241E00080B0E01059E
:102FA0000B000000741E00080D0F01040F0000004C
:102FB000C81E00080C0F01040E000000341F00089A
:102FC000040F010406000000901F0008090F000410
:102FD0000A000000B01F00080C0F01040C000000E4
:102FE000FC1F00080A0E01040B0000005820000816
:102FF0000E0F010410000000A02000080C0F0104B7
:103000000E0000000C2100080E0F00040F0000004D
:10301000682100080C0E01050D000000D4210008F5
:103020000E0F00040F000000282200080C0E0105FE
:103030000D000000942200080C0F00040C0000009A
:10304000E82200080C0E00050C00000044230008D4
:103050000C0F01040E000000982300080C0F000460
:103060000C000000F4230008110F00041100000000
:10307000502400080B0F00040B000000D8240008A7
:103080000B0F00040B000000342500080C0D000598
:103090000C00000090250008061101050600000044
:1030A000E0250008070F00040700000014260008B0
:1030B000051100050600000050260008090801055A
:1030C0000B000000842600080B02FF13090000001B
:1030D000AC2600080404000405000000B82600081F
:1030E0000A0B00080B000000C02600080A0F0104AC
:1030F0000B000000F82600080A0B00080A00000078
:10310000442700080A0F00040B0000007C27000879
:103110000B0B00080B000000C8270008070F000475
:10312000070000000C2800080A0E00080B00000031
:1031300048280008090F01040B000000902800082F
:10314000030F010405000000DC2800080512FF043D
:1031500005000000FC280008090F01040A00000017
:1031600034290008030F010405000000802900082D
:103170000F0B010811000000A0290008090B01082D
:103180000B000000F82900080B0B00080B000000E2
:10319000302A00080A0E01080B000000742A0008FB
:1031A0000A0E00080B000000BC2A0008070B0108EB
:1031B00007000000042B0008090B00080A000000AB
:1031C000302B0008070E000507000000682B0008E0
:1031D000090B01080B000000A02B0008090B0008D8
:1031E00009000000D82B00080E0B00080E0000009C
:1031F000102C0008090B000809000000602C0008D2
:10320000090E000809000000982C00080A0A0008AE
:103210000A000000E02C000807110005060000006D
:10322000142D0008040F000404000000582D0008AD
:103230000711000506000000782D00080B04000BA4
:103240000B000000BC2D000820007E00D42D0008DB
:1032500000000000610C0308EF0A0308210B0308BB
:10326000270B0308330B03083C150308161601014E
:1032700048320008160B0F0000FF0000FEFEFE00A3
:10328000231F20002020A000E6E6E6006060BB00CF
:10329000BCBCE200DEDEDE0000000000FAFAFA004C
:1032A00024202100D4D3D300D5D4D500DEDEF10014
:1032B000E1E0E000FCFCFC00F1F1F100F8F8FC00BA
:1032C000FCFCFE0045414200C4C3C3002222A10011
:1032D000C2C1C10082808000464344006260600039
:1032E0002626A200EDEDED003030A7000000000022
:1032F0002825250039353600B2B0B100E4E4E400F9
:10330000EEEEF8004A4AB2004C4CB3008A888800BE
:103310008E8ECF00EAEAEA00F6F6F6001A171800D9
:103320001B1818002D292A003C3839006E6C6C00DF
:103330002424A2003636AA00CECDCD00E0E0F20073
:10334000ECECF700FAFAFD002A272800312D2E00B8
:10335000484445002E2EA6005B5BB9007676C4007B
:10336000908E8E009090D000C8C7C700CBCACA000C
:10337000DAD9D900C2C2E500C4C4E600E2E2F30033
:103380000E0C0D00211E1E00221E1F0022222200F4
:103390003E3B3C00434040004A4748004C484900FF
:1033A0002B2BA5003B3BAC003D3DAC005E5EBB0063
:1033B0007A7AC60085838400A6A5A500A8A6A700E2
:1033C000BEBEE300C5C4C500DCDCDC00C0C0E40058
:1033D000D1D1EB00D3D3EC00DCDCF000E4E4F4006A
:1033E000E9E9F600F4F4F400F6F6FB0027232400E4
:1033F0002E2B2C002F2C2D00353132003634350089
:1034000058555500686566006C6A6A0074717200F0
:103410007E7B7C007F7C7D003232A8003434A800A3
:103420004848B1004E4EB4006161BC006767BE0001
:103430008C8A8A008F8C8D009290900096949400D4
:10344000AEACAD00AEAEAE00B6B5B500B8B7B70025
:10345000BBBABA008A8ACD00B2B2DE00BBBBE200C2
:10346000D2D1D200D8D7D700CECEEA00E4E4F30020
:103470000202020019191900363334003A373800B5
:10348000514E4F00555252005B5859005C5859003C
:10349000605D5E00625F6000676464007C7A7A0051
:1034A0002828A3002929A4003939AB003A3AAB00F7
:1034B0004444AF005050B4005656B7005858B800B6
:1034C0005D5DBA006868BF006E6EC1006F6FC200BC
:1034D0007070C2007373C4007878C5007C7CC7002C
:1034E0007E7EC800807E7E00868484008886870079
:1034F0008D8B8C00918F90009C9A9A009E9C9D00D1
:10350000A09E9F00A2A1A100A5A3A400AAA9A90012
:10351000B5B3B400BBB9BA008080C9008383CA00C8
:103520008C8CCE00A2A2D700A5A5D900A6A6D90052
:10353000A9A9DA00ABABDB00ACACDC00AFAFDD00BF
:10354000B6B6E000B9B9E100BFBFE400D0CFCF000C
:10355000C6C6E700C8C8E800D5D5ED00D6D6EE004F
:10356000D9D9EF00DADAEF00E6E6F400E8E8F50092
:10357000EBEBF700F1F1F900F3F3FA00F5F5FB00DE
:10358000F7F7FC000D0B0B000D0B0C0017171700C5
:1035900027242500332F3000333031004E4B4C00B0
:1035A0004F4C4D00565354005A5758005F5C5C0016
:1035B00065626300666364006E6B6C00716F70001F
:1035C0007A7878002D2DA5002D2DA6004747B10053
:1035D0005252B5005353B6005454B6005C5CB90067
:1035E0006565BE007575C400848283008987880084
:1035F0009492920095939400999798009A989800C5
:103600009D9C9C009F9D9E00A4A2A300ACABAB0020
:10361000B0AEAF00B4B3B300B9B7B800BAB8B90030
:10362000BCBBBB00BCBBBC00BEBDBD008686CB0026
:103630008686CC008989CD009595D2009696D200D9
:103640009B9BD4009C9CD500B0B0DE00C8C7C800CE
:10365000C9C8C900CCCBCB00D4D3D400DCDBDB00A1
:10366000CDCDEA00E4E3E300ECEBEB00F0EFEF009C
:10367000F4F3F300FCFBFB0000010000010000007C
:1036800078320008000008422A44020202020202C4
:10369000020202020202020202020202020202020A
:1036A00002020202020202020202020202020202FA
:1036B00002020202020202020202020202020202EA
:1036C00002020202020202020202020202020202DA
:1036D00002020202020202020202020202020202CA
:1036E00002020202020202020202020202020202BA
:1036F00002020202020202020202020202020202AA
:1037000002020202020202020202442A42420000B3
:10371000007E2A02020202020202020202020202E7
:103720000202020202020202020202020202020279
:103730000202020202020202020202020202020269
:103740000202020202020202020202020202020259
:103750000202020202020202020202020202020249
:103760000202020202020202020202020202020239
:103770000202020202020202020202020202020229
:103780000202020202020202020202020202020219
:10379000020202020202020202347F00082902022F
:1037A00002020202020202020202020202020202F9
:1037B00002020202020202020202020202020202E9
:1037C00002020202020202020202020202020202D9
:1037D00002020202020202020202020202020202C9
:1037E00002020202020202020202020202020202B9
:1037F00002020202020202020202020202020202A9
:103800000202020202020202020202020202020298
:103810000202020202020202020202020202020288
:103820000202020202022908C3020202020202028A
:103830000202020202020202020202020202020268
:103840000202020202020202020202020202020258
:103850000202020202020202020202020202020248
:103860000202020202020202020202020202020238
:103870000202020202020202020202020202020228
:103880000202020202020202020202020202020218
:103890000202020202020202020202020202020208
:1038A00002020202020202020202020202020202F8
:1038B000020202C429020202463C04040404040475
:1038C00004040404040404040404040404040404B8
:1038D00004040404040404040404040404040404A8
:1038E0000404040404040404040404040404040498
:1038F0000404040404040404040404040404040488
:103900000404040404040404040404040404040477
:103910000404040404040404040404040404040467
:103920000404040404040404040404040404040457
:10393000040404040404040404043C4602020229AE
:1039400043020202A701010101010101010101017C
:103950000101010101010101010101010101010157
:103960000101010101010101010101010101010147
:103970000101010101010101010101010101010137
:103980000101010101010101010101010101010127
:103990000101010101010101010101010101010117
:1039A0000101010101010101010101010101010107
:1039B00001010101010101010101010101010101F7
:1039C0000101010101010176020202430202020229
:1039D00007010101010101010101010101010101D1
:1039E00001010101010101010101010101010101C7
:1039F00001010101010101010101010101010101B7
:103A000001010101010101010101010101010101A6
:103A10000101010101010101010101010101010196
:103A20000101010101010101010101010101010186
:103A30000101010101010101010101010101010176
:103A40000101010101010101010101010101010166
:103A50000101010702020202020202020701010142
:103A60000101010101010101010101010101010146
:103A70000101010101010101010101010101010136
:103A80000101010101010101010101010101010126
:103A90000101010101010101010101010101010116
:103AA0000101010101010101010101010101010106
:103AB00001010101010101010101010101010101F6
:103AC00001010101010101010101010101010101E6
:103AD00001010101010101010101010101010107D0
:103AE00002020202020202020701010101010101B8
:103AF00001010101010101010101010101010101B6
:103B000001010101010101010101010101010101A5
:103B10000101010101010101010101010101010195
:103B20000101010101010101010101010101010185
:103B30000101010101010101010101010101010175
:103B40000101010101010101010101010101010165
:103B50000101010101010101010101010101010155
:103B6000010101010101010101010107020202023B
:103B7000020202020701010101010101010101012B
:103B80000101010101010101010101010101010125
:103B90000101010101010101010101010101010115
:103BA0000101010101010101010101010101010105
:103BB00001010101010101010101010101010101F5
:103BC00001010101010101010101010101010101E5
:103BD00001010101010101010101010101010101D5
:103BE00001010101010101010101010101010101C5
:103BF00001010101010101070202020202020202A7
:103C000007010101B14C235701010101010101012B
:103C10005A382F26010101010101010101010101B1
:103C20000101010101010101010101010101010184
:103C30000101010101010101010101010101010174
:103C40000101010101010101010101010101010164
:103C50000101010101010101010101010101010154
:103C60000101010101010101010101010101010144
:103C70000101010101010101010101010101010134
:103C8000010101070202020202020202070101BF52
:103C90001A03032F320101010101010198030303FB
:103CA000AB0101010101010101010101010101015A
:103CB00001010101010101010101010101010101F4
:103CC00001010101010101010101010101010101E4
:103CD00001010101010101010101010101010101D4
:103CE00001010101010101010101010101010101C4
:103CF00001010101010101010101010101010101B4
:103D0000010101010101010101010101010101079D
:103D1000020202020202020207010132150303033A
:103D20009201010101010101940303031A7C0101C5
:103D30000101010101010101010101010101010173
:103D40000101010101010101010101010101010163
:103D50000101010101010101010101010101010153
:103D60000101010101010101010101010101010143
:103D70000101010101010101010101010101010133
:103D80000101010101010101010101010101010123
:103D90000101010101010101010101070202020209
:103DA00002020202070101019A030303033B01011E
:103DB00001010101B98A0303038C320101010101F0
:103DC00001010101010101010101010101010101E3
:103DD00001010101010101010101010101010101D3
:103DE00001010101010101010101010101010101C3
:103DF00001010101010101010101010101010101B3
:103E000001010101010101010101010101010101A2
:103E10000101010101010101010101010101010192
:103E20000101010101010107020202020202020274
:103E300007010101112403030315400101010101E0
:103E400001AF030303033812010101010101010164
:103E50000101010101010101010101010101010152
:103E60000101010101010101010101010101010142
:103E70000101010101010101010101010101010132
:103E80000101010101010101010101010101010122
:103E90000101010101010101010101010101010112
:103EA0000101010101010101010101010101010102
:103EB00001010107020202020202020207010101DE
:103EC0000131370303032F5A0101010101014E03A0
:103ED0000303037701010101010101010101010156
:103EE00001010101010101010101010101010101C2
:103EF00001010101010101010101010101010101B2
:103F000001010101010101010101010101010101A1
:103F10000101010101010101010101010101010191
:103F20000101010101010101010101010101010181
:103F3000010101010101010101010101010101076B
:103F40000202020202020202070101010101B3039F
:103F500003030391120101010101116B0303030328
:103F600079010101010101010101010101010101C9
:103F70000101010101010101010101010101010131
:103F80000101010101010101010101010101010121
:103F90000101010101010101010101010101010111
:103FA0000101010101010101010101010101010101
:103FB00001010101010101010101010101010101F1
:103FC00001010101010101010101010702020202D7
:103FD0000202020207010101010101A90303030317
:103FE000AA0101010101017D1C0303033731010115
:103FF00001010101010101010101010101010101B1
:1040000001010101010101010101010101010101A0
:104010000101010101010101010101010101010190
:104020000101010101010101010101010101010180
:104030000101010101010101010101010101010170
:104040000101010101010101010101010101010160
:104050000101010101010107020202020202020242
:104060000701010101010133D603030315550101C5
:1040700001010101551503030323C20101010101DF
:104080000101010101010101010101010101010120
:104090000101010101010101010101010101010110
:1040A0000101010101010101010101010101010100
:1040B00001010101010101010101010101010101F0
:1040C00001010101010101010101010101010101E0
:1040D00001010101010101010101010101010101D0
:1040E00001010107020202020202020207010101AC
:1040F00001010101591C03030368BC010101010115
:10410000013B0303030397010101010101010101C7
:10411000010101010101010101010101010101018F
:10412000010101010101010101010101010101017F
:10413000010101010101010101010101010101016F
:10414000010101010101010101010101010101015F
:10415000010101010101010101010101010101014F
:104160000101010101010101010101010101010739
:104170000202020202020202070101010101010121
:10418000015215030303D8330101010101016C033E
:10419000030303AC0101010101010101010101015E
:1041A00001010101010101010101010101010101FF
:1041B00001010101010101010101010101010101EF
:1041C00001010101010101010101010101010101DF
:1041D00001010101010101010101010101010101CF
:1041E00001010101010101010101010101010101BF
:1041F00001010101010101010101010702020202A5
:104200000202020207010101010101010101EF03A4
:10421000030303EE010101010101224C0303031A10
:104220005601010101010101010101010101010129
:10423000010101010101010101010101010101016E
:10424000010101010101010101010101010101015E
:10425000010101010101010101010101010101014E
:10426000010101010101010101010101010101013E
:10427000010101010101010101010101010101012E
:104280000101010101010107020202020202020210
:104290000701010101010101010112900303030360
:1042A00006010101010101578A0303034B220101A9
:1042B00001010101010101010101010101010101EE
:1042C00001010101010101010101010101010101DE
:1042D00001010101010101010101010101010101CE
:1042E00001010101010101010101010101010101BE
:1042F00001010101010101010101010101010101AE
:10430000010101010101010101010101010101019D
:10431000010101070202020202020202070101C0BA
:1043200011010101010101BD680303031C7D0101AD
:1043300001010101AE030303034D0101010101016C
:10434000010101010101010101010101010101015D
:10435000010101010101010101010101010101014D
:10436000010101010101010101010101010101013D
:10437000010101010101010101010101010101012D
:10438000010101010101010101010101010101011D
:104390000101010101010101010101010101010707
:1043A00002020202020202020701010D990101014B
:1043B000010101013F150303038F330101010101D5
:1043C0000198030303032601010101010101010119
:1043D00001010101010101010101010101010101CD
:1043E00001010101010101010101010101010101BD
:1043F00001010101010101010101010101010101AD
:10440000010101010101010101010101010101019C
:10441000010101010101010101010101010101018C
:104420000101010101010101010101070202020272
:10443000020202020701010D0378010101010101DD
:10444000012603030303A801010101010111240353
:10445000030315B401010101010101010101010181
:10446000010101010101010101010101010101013C
:10447000010101010101010101010101010101012C
:10448000010101010101010101010101010101011C
:10449000010101010101010101010101010101010C
:1044A00001010101010101010101010101010101FC
:1044B00001010101010101070202020202020202DE
:1044C0000701010D034A0D0101010101010138033A
:1044D000030303B2010101010101411C0303031C99
:1044E000410101010101010101010101010101017C
:1044F00001010101010101010101010101010101AC
:10450000010101010101010101010101010101019B
:10451000010101010101010101010101010101018B
:10452000010101010101010101010101010101017B
:10453000010101010101010101010101010101016B
:104540000101010702020202020202020701010D3B
:1045500003036AC2010101010101BE2F030303D459
:10456000310101010101015215030303241101016D
:10457000010101010101010101010101010101012B
:10458000010101010101010101010101010101011B
:10459000010101010101010101010101010101010B
:1045A00001010101010101010101010101010101FB
:1045B00001010101010101010101010101010101EB
:1045C00001010101010101010101010101010107D5
:1045D00002020202020202020701010D0303033973
:1045E00001010101010101B71503030324110101B8
:1045F00001010101260303030395060606060606CC
:10460000060606060606060606060606060606064A
:10461000060606060606060606060606060606063A
:10462000060606060606060606060606060606062A
:10463000060606060606060606060606060606061A
:10464000060606060606060606060606060606060A
:1046500006060606063F11010101010702020202D9
:10466000020202020701010D03030303B00101016D
:1046700001010101F003030303990101010101019B
:10468000014D0303030303030303030303030303B2
:1046900003030303030303030303030303030303EA
:1046A00003030303030303030303030303030303DA
:1046B00003030303030303030303030303030303CA
:1046C00003030303030303030303030303030303BA
:1046D00003030303030303030303030303030303AA
:1046E0000303231101010107020202020202020276
:1046F0000701010D030303038BBA0101010101014D
:1047000001050303030378010101010101224B03A9
:104710000303030303030303030303030303030369
:104720000303030303030303030303030303030359
:104730000303030303030303030303030303030349
:104740000303030303030303030303030303030339
:104750000303030303030303030303030303030329
:10476000030303030303030303030303030303B666
:104770000101010702020202020202020701010D09
:1047800003030303038EC1010101010101228D0313
:1047900003034A0D010101010101561A030303033A
:1047A00003030303030303030303030303030303D9
:1047B00003030303030303030303030303030303C9
:1047C00003030303030303030303030303030303B9
:1047D00003030303030303030303030303030303A9
:1047E0000303030303030303030303030303030399
:1047F000030303030303030303031A59010101071E
:1048000002020202020202020701010D0303030376
:1048100003039601010101010101FA2E0303036A5A
:10482000C2010101010101409305050505050505CA
:104830000505050505050505050505050505050528
:104840000505050505050505050505050505050518
:104850000505050505050505050505050505050508
:1048600005050505050505050505050505050505F8
:1048700005050505050505050505050505050505E8
:1048800005050505056D3F01010101070202020250
:10489000020202020701010D03030303030303AD38
:1048A00001010101010101F20303030339010101C7
:1048B00001010101010101010101010101010101E8
:1048C00001010101010101010101010101010101D8
:1048D00001010101010101010101010101010101C8
:1048E00001010101010101010101010101010101B8
:1048F00001010101010101010101010101010101A8
:104900000101010101010101010101010101010197
:104910000101010101010107020202020202020279
:104920000701010D030303030303038AB801010117
:1049300001010101DA03030303BB010101010101CC
:104940000101010101010101010101010101010157
:104950000101010101010101010101010101010147
:104960000101010101010101010101010101010137
:104970000101010101010101010101010101010127
:104980000101010101010101010101010101010117
:104990000101010101010101010101010101010107
:1049A0000101010702020202020202020701010DD7
:1049B000030303030303038AB80101010101010199
:1049C0006D03030303BB01010101010101010101A9
:1049D00001010101010101010101010101010101C7
:1049E00001010101010101010101010101010101B7
:1049F00001010101010101010101010101010101A7
:104A00000101010101010101010101010101010196
:104A10000101010101010101010101010101010186
:104A20000101010101010101010101010101010770
:104A300002020202020202020701010D0303030344
:104A4000030303AD01010101010101F303030303AA
:104A5000DB0101010101010101010101010101016C
:104A60000101010101010101010101010101010136
:104A70000101010101010101010101010101010126
:104A80000101010101010101010101010101010116
:104A90000101010101010101010101010101010106
:104AA00001010101010101010101010101010101F6
:104AB00001010101010101010101010702020202DC
:104AC000020202020701010D03030303030396011F
:104AD0000101010101017C1A030303D55C010101FD
:104AE00001010140930505050505050505050505B9
:104AF0000505050505050505050505050505050566
:104B00000505050505050505050505050505050555
:104B10000505050505050505050505050505050545
:104B20000505050505050505050505050505050535
:104B30000505050505050505050505050505050525
:104B4000056D3F0101010107020202020202020299
:104B50000701010D03030303038EC10101010101DC
:104B600001228D0303034A58010101010101561A74
:104B70000303030303030303030303030303030305
:104B800003030303030303030303030303030303F5
:104B900003030303030303030303030303030303E5
:104BA00003030303030303030303030303030303D5
:104BB00003030303030303030303030303030303C5
:104BC00003030303030303030303030303031A5948
:104BD0000101010702020202020202020701010DA5
:104BE000030303038BBA010101010101016C0303FB
:104BF0000303F4010101010101224B030303030339
:104C00000303030303030303030303030303030374
:104C10000303030303030303030303030303030364
:104C20000303030303030303030303030303030354
:104C30000303030303030303030303030303030344
:104C40000303030303030303030303030303030334
:104C50000303030303030303030303B60101010773
:104C600002020202020202020701010D0303030312
:104C7000B001010101010101F1030303034E010130
:104C800001010101014D03030303030303030303B4
:104C900003030303030303030303030303030303E4
:104CA00003030303030303030303030303030303D4
:104CB00003030303030303030303030303030303C4
:104CC00003030303030303030303030303030303B4
:104CD00003030303030303030303030303030303A4
:104CE000030303030303231101010107020202026C
:104CF000020202020701010D030303390101010150
:104D0000010101B715030303231101010101010191
:104D10002603030303950606060606060606060690
:104D20000606060606060606060606060606060623
:104D30000606060606060606060606060606060613
:104D40000606060606060606060606060606060603
:104D500006060606060606060606060606060606F3
:104D600006060606060606060606060606060606E3
:104D7000063F1101010101070202020202020202C2
:104D80000701010D03036AC2010101010101BE2FE8
:104D9000030303D331010101010101521503030390
:104DA00024110101010101010101010101010101C0
:104DB00001010101010101010101010101010101E3
:104DC00001010101010101010101010101010101D3
:104DD00001010101010101010101010101010101C3
:104DE00001010101010101010101010101010101B3
:104DF00001010101010101010101010101010101A3
:104E00000101010702020202020202020701010D72
:104E1000034A0D01010101010101D903030303B29A
:104E2000010101010101411C0303031C41010101B6
:104E30000101010101010101010101010101010162
:104E40000101010101010101010101010101010152
:104E50000101010101010101010101010101010142
:104E60000101010101010101010101010101010132
:104E70000101010101010101010101010101010122
:104E8000010101010101010101010101010101070C
:104E900002020202020202020701010D037801016F
:104EA00001010101013B03030303A8010101010109
:104EB00001112403030315B40101010101010101E2
:104EC00001010101010101010101010101010101D2
:104ED00001010101010101010101010101010101C2
:104EE00001010101010101010101010101010101B2
:104EF00001010101010101010101010101010101A2
:104F00000101010101010101010101010101010191
:104F10000101010101010101010101070202020277
:104F2000020202020701010D9901010101010101C3
:104F300040150303036B33010101010101980303D1
:104F40000303260101010101010101010101010128
:104F50000101010101010101010101010101010141
:104F60000101010101010101010101010101010131
:104F70000101010101010101010101010101010121
:104F80000101010101010101010101010101010111
:104F90000101010101010101010101010101010101
:104FA00001010101010101070202020202020202E3
:104FB000070101C011010101010101BD69030303E2
:104FC0003741010101010101AE030303034D01015A
:104FD0000101010128ECE02525A1F60F01010101E5
:104FE00001010E0B0B0B0B0B0B0B0B3E0F01010109
:104FF00001010104E69F9D70720E01010101010192
:10500000010101011075719D6F510C010101010138
:105010000101013E0B0B0B0B0B0B0B0B07010101ED
:1050200001FCF80B0B0B0B0B0C2101010101010121
:10503000010101070202020202020202070101014C
:105040000101010101011290030303037901010130
:10505000010101578A0303034B2201010101017180
:105060005E0202020202022C2001010101DD0202A5
:1050700002020202020202028401010101FB630A30
:10508000020202020202833D0101010101011066D8
:105090001E020202020202472001010101018702F1
:1050A000020202020202020202170101165D02025E
:1050B000020202020202C84F280101010101010798
:1050C00002020202020202020701010101010101C2
:1050D00001017703030303ED010101010101224CEA
:1050E0000303031A5601010101017002020218CEE6
:1050F000855E0202027201010148020202020202FE
:105100000202020219010101303502020235366144
:105110000202020AE70101010104470202023418F7
:1051200046020202026E010101010A0202020202AB
:1051300002020202022501019C0202020202020294
:1051400002020202880101010101010702020202BA
:1051500002020202070101010101010101521503CE
:105160000303D7330101010101016C03030303AC05
:1051700001010101010F5F0202A40101015B630251
:105180000284010101180202710E0E0E0E0E0E04B1
:105190000101011B8002021FEB0101013C2C0202F4
:1051A000360101010182020234A4090101F98202DF
:1051B000025D28010109020202740E0E0E0E0E0E8F
:1051C000FC01010117020285040404217A63020232
:1051D00002FB0101010101070202020202020202B6
:1051E0000701010101010101591C03030368BC010E
:1051F00001010101013B03030303970101010101C7
:10520000011B020202F901010101093A191401010D
:105210000118020251010101010101010101016EA8
:1052200002021E3E0101010101FBC90A2501010123
:10523000A6020202A60101010101FECF0A19010125
:105240000109020202300101010101010101010114
:105250001702021901010101011B0202023C0101B6
:10526000010101070202020202020202070101011A
:1052700001010133D60303031555010101010101A9
:10528000551503030323C20101010101010F5E0251
:10529000022CA03E010101010101010101180202DD
:1052A000A4FFFFFFFFFF0F0101010147020265019B
:1052B00001010101010101FF010101016402024834
:1052C0000101010101010101FF01010101090202C6
:1052D000023DFFFFFFFFFF0101010101170202195B
:1052E00001010101010E0202025401010101010745
:1052F000020202020202020207010101010101A9E8
:1053000003030303AA0101010101017D1C0303033F
:1053100037310101010101010101700202020202A3
:105320005ECC6E530F01010101180202020202025B
:1053300002020236FD01090A0202A5010101010172
:1053400010101010FF010101180202670101010194
:1053500001FE1010100901010109020202020202FD
:105360000202020A860101011702024920202020C0
:10537000E3180202CD01010101010107020202024C
:1053800002020202070101010101B30303030391B9
:10539000120101010101116B0303030379010101F2
:1053A000010101010101017349020202020202022C
:1053B0002C76010101180202020202020202021E00
:1053C00021011B02020275010101102C02020202DE
:1053D000C6E401018102029E010101016202020292
:1053E000020A66010109020202020202020202022C
:1053F0001F010101170202020202020202020A89CF
:105400005B01010101010107020202020202020224
:1054100007010101013137030303695A0101010149
:1054200001014E03030303770101010101010101A1
:1054300001010101010EE59BCA0A0202025D7A0127
:1054400001180202DC161616161614040101090AC8
:10545000020250010101FC2B02020202022D010195
:10546000180202890101010113020202020218015D
:105470000109020202E3161616161653FD01010178
:105480001702020A1E1E1E0A02020235B5010101A0
:1054900001010107020202020202020207010101E8
:1054A00011240303031540010101010101AF0303AE
:1054B0000303381201010101010101010101287BEF
:1054C0000F01010101279F5D02029C0101180202E8
:1054D0005101010101010101010101130202D00189
:1054E000010101273D3D1702022D01012D0202138A
:1054F00001010101FEF73DA30202180101090202A8
:10550000023001010101010101010101170202192B
:10551000010101017B1F02021901010101010107C3
:105520000202020202020202070101019A030303BE
:10553000033B010101010101B98A0303038C32011C
:10554000010101010101010101013602832801016C
:10555000010101D10202D20101180202510101012F
:10556000010101010101013A02025D300101010165
:1055700001094802022D0101E80202025001010165
:10558000010101D0020218010109020202300101E9
:1055900001010101010101011702021901010101CB
:1055A0000167020247010101010101070202020233
:1055B00002020202070101321503030392010101F5
:1055C00001010101940303031A7C0101010101019E
:1055D0000101010101FF2B020287FC01010154813D
:1055E0000202E40101180202DC141414141414144D
:1055F0000E0101108102025F512801010CCC020250
:10560000022D010101CB02025D3A1B0101FB650283
:10561000020218010109020202A214141414141443
:1056200053FC0101170202190101010101A002024C
:1056300060010101010101070202020202020202ED
:10564000070101BF1A03032F32010101010101010A
:1056500098030303AB0101010101010101010101F3
:105660000101E10202025D4962180A0202362801C4
:105670000148020202020202020202020AB501010C
:105680007AC70202025D813502025E2B022D010102
:105690000127180202020A1F8002020A6002180192
:1056A00001010A020202020202020202025EFD017E
:1056B0001702021901010101017402020204010131
:1056C00001010107020202020202020207010101B6
:1056D000B14C235701010101010101015A382F2664
:1056E000010101010101010101010101010101A605
:1056F000470202020202020AD01B01010125020236
:105700000202020202020202347B010101FB880A4A
:105710000202020202180B860265010101011066F5
:105720001E020202020280E925024901010119025A
:1057300002020202020202020261FE01E2020267AA
:105740000101010101FC34025D07010101010107B2
:10575000020202020202020207010101010101012B
:105760000101010101010101010101010101010129
:105770000101010101010101010101010130A22525
:105780004F3A7204010101010101FB0C0C0C0C0CDD
:105790000C0C0C0CFD01010101010121A59E4FDF44
:1057A000140F01079F54010101010101FDE79F4F03
:1057B0003A752801FDDEF501010101540C0C0C0CB9
:1057C0000C0C0C0C7B2801010116EA0901010101F6
:1057D000010107207B010101010101070202020210
:1057E000020202020701010101010101010101019F
:1057F0000101010101010101010101010101010199
:105800000101010101010101010101010101010188
:105810000101010101010101010101010101010178
:105820000101010101010101010101010101010168
:105830000101010101010101010101010101010158
:105840000101010101010101010101010101010148
:105850000101010101010101010101010101010138
:10586000010101010101010702020202020202021A
:105870000701010101010101010101010101010112
:105880000101010101010101010101010101010108
:1058900001010101010101010101010101010101F8
:1058A00001010101010101010101010101010101E8
:1058B00001010101010101010101010101010101D8
:1058C00001010101010101010101010101010101C8
:1058D00001010101010101010101010101010101B8
:1058E00001010101010101010101010101010101A8
:1058F0000101010702020202020202020701010184
:105900000101010101010101010101010101010187
:105910000101010101010101010101010101010177
:105920000101010101010101010101010101010167
:105930000101010101010101010101010101010157
:105940000101010101010101010101010101010147
:105950000101010101010101010101010101010137
:105960000101010101010101010101010101010127
:105970000101010101010101010101010101010711
:105980000202020243020202A70101010101010118
:1059900001010101010101010101010101010101F7
:1059A00001010101010101010101010101010101E7
:1059B00001010101010101010101010101010101D7
:1059C00001010101010101010101010101010101C7
:1059D00001010101010101010101010101010101B7
:1059E00001010101010101010101010101010101A7
:1059F0000101010101010101010101010101010197
:105A000001010101010101010101017602020243CC
:105A100081020202463C0404040404040404040455
:105A20000404040404040404040404040404040436
:105A30000404040404040404040404040404040426
:105A40000404040404040404040404040404040416
:105A50000404040404040404040404040404040406
:105A600004040404040404040404040404040404F6
:105A700004040404040404040404040404040404E6
:105A800004040404040404040404040404040404D6
:105A90000404040404043C46020202815F02020280
:105AA00002020202020202020202020202020202D6
:105AB00002020202020202020202020202020202C6
:105AC00002020202020202020202020202020202B6
:105AD00002020202020202020202020202020202A6
