:020000040800F2
:10000000781900207DC00108D5BD0108D7BD0108C1
:10001000E9BD0108EBBD0108EDBD010800000000CD
:10002000000000000000000000000000F1BD010819
:10003000EFBD010800000000F3BD0108D9BD0108B3
:10004000EDC00108F1C00108F5C00108F9C00108C0
:10005000FDC0010801C1010805C1010809C101086D
:100060000DC1010811C1010815C1010819C101081C
:100070001DC1010821C1010825C1010829C10108CC
:100080002DC1010831C1010835C10108000000007F
:10009000000000000000000000000000F5BD0108A5
:1000A0003DC1010841C1010845C1010849C101081C
:1000B0004DC1010851C1010855C1010859C10108CC
:1000C0005DC1010861C1010865C1010869C101087C
:1000D0006DC1010871C1010875C1010879C101082C
:1000E0007DC1010881C1010885C10108000000002F
:1000F0000000000000000000000000000000000000
:1001000000000000000000000000000000000000EF
:10011000000000000000000089C101088DC1010835
:10012000708888888888887020602020202020702F
:1001300070880810204080F87088081010088870B7
:1001400010305090F8101010F88080F00808887077
:10015000304080F088888870F808081020404040BF
:10016000708888708888887070888878080810601F
:1001700000002020F820200000000000F80000000F
:1001800000000000000000000000000000006060AF
:100190000000606000606000006264081026460095
:1001A000060601008001000806060100980100080B
:1001B000060601007001000806060100780100082B
:1001C000060601008801000806060100200100085B
:1001D000060601002801000806060100300100089B
:1001E000060601003801000806060100400100086B
:1001F000060601004801000806060100500100083B
:10020000060601005801000806060100600100080A
:1002100006060100680100080606010090010008BA
:1002200030003A00C8010008000000002D002E0038
:10023000B8010008200200082B002B00B0010008C4
:100240002C02000825002500A8010008380200083B
:1002500020002000A0010008440200084DAE010863
:1002600015AF01084DAF010853AF010800000000B1
:100270000000000008080101500200080800080002
:100280000000000002106FE29FF49FF49FF47FF2E1
:100290005FF03FD01FB00D8000002BA09FF45FE106
:1002A00001000000011002000EF27F902FF49FB0B9
:1002B0002FF49FB02FF49FB01EF28FA002200300F6
:1002C0000002B40890000006F70FD0000008F52FD8
:1002D000B000002BF45FA10007FFFFFFFE10039F9B
:1002E000E9DFB800001FB0AF3000026FB4DF40009C
:1002F0000FFFFFFFF70006BF98FD720000AF33F954
:10030000000000CF15F7000000DD07F40000002218
:100310000030000000000B1000000028BFC83000B3
:1003200005FFFFFFF9001EF92F39FF503FF00F20A6
:100330009E303FF60F2000000DFFDF73000002CF5C
:10034000FFFFC30000048FEFFE1003000F25FF70B6
:100350007FA00F20BF807FF30F21EF601DFEAFBE97
:10036000FD1001AFFFFFA20000013F4100000000AF
:100370000D100000000000000003000003ABA2000D
:10038000007F00002EEAFE1001E800007F709F5001
:1003900008E100009F607F702F7000007F608F6019
:1003A0009E1000003FD6EF22F700000007EFE60A9C
:1003B000E01798200001003F60CFCFE1000000BDB2
:1003C00004FA09F6000004F507F706F900000CC06E
:1003D00006F806F800005F4003FC3BF40000CB0089
:1003E000008FFF9000009300000142000000011008
:1003F0000000000004DFFD500000003FFDCFF400CE
:1004000000009FD00BFA0000009FD00BFA00000004
:100410004FF98FF50000000AFFFF800000009FFFEA
:10042000FB00540009FFBAFF74FF001FFB00BFFE72
:10043000FC003FF7001DFFE3001FFB002CFFE30063
:100440000AFFEDFFEEFD0001AFFFFB24FD00000100
:10045000431000100000000001103FD06FF06FF05B
:100460006FF03FE003100000000300009F4002FF18
:100470002008FB000EF7004FF3007FE000AFC00044
:10048000BFB000BFB000BFB0008FE0005FF2001F40
:10049000F5000AFA0004FE1000CF500029100000F9
:1004A0000300005F90002FF2000BF80007FE00032E
:1004B000FF3000FF7000CFA000BFB000BFB000CF82
:1004C000B000EF8002FF5005FF100AFA001EF40092
:1004D0005FC0001920000000000010000008E000CC
:1004E0000529F0512FFEFEF7027FFB4000AFCE2022
:1004F00003F72F90003003100000020000000000FE
:100500008F5000000000BF7000000000BF700000AE
:100510000222CF8222008FFFFFFFFF606FFFFFFFED
:10052000FE400000BF7000000000BF70000000002F
:10053000BF70000000007F40000000003C90BFF54D
:100540006FF701E54CC06710014442002FFFFF70B8
:100550003FFFFF80024443003C90BFF36FD1010096
:100560000000030000006F700000CF400003FD009A
:100570000008F800000EF200005FB00000BF60004D
:1005800001FE100007F900000DF300003FD000004D
:100590009F700000CF200000230000000005BBB6C4
:1005A000000000AFFFFFA00006FFA6AFF7000DFCA4
:1005B000000CFD002FF80008FF204FF60006FF405A
:1005C0004FF60006FF404FF60006FF402FF70006EB
:1005D000FF300EFA000AFE0009FF404FF90002EF5B
:1005E000FEFFE200003CFFFC300000002420000081
:1005F00000002B700000AFC00149FFD01EFFFFD0EC
:100600001BDDFFD00000DFD00000DFD00000DFD016
:100610000000DFD00000DFD00000DFD00000DFC02E
:100620000000BFA0000013000017BBB6000003EFDE
:10063000FFFFD1000DFE86AFFB005FF6000DFF004F
:100640004FE1000BFF000320003FFB00000007EF1D
:10065000F3000003CFFD3000006FFE70000006FFC6
:10066000A20000002FFC444442006FFFFFFFFF1078
:100670003EFFFFFFFD0000000028BBA50005FFFFB7
:10068000FFA01FFE76CFF42FF4002FF70440002FB9
:10069000F500005AEFB00000FFFF90000038CFF8DF
:1006A0000100001EFC3FC0000EFD5FF8007FF91D39
:1006B000FFFEFFE202BFFFFB30000133100000002D
:1006C0000000009B4000000007FF900000004FFF6B
:1006D00090000002EEEF9000000CF4DF9000009F0D
:1006E00080DF900006FB00DF90003FE200DF90001B
:1006F000BFFFFFFFFE508FFFFFFFFF60022222DFE0
:10070000A200000000DF9000000000BF8000000099
:1007100000130000018999997007FFFFFFF30AFD9C
:10072000BBBB900CF50000000FF34651003FFDFFEE
:10073000FE603FFEABFFF30660004FFA0000000DC5
:10074000FB1740000EFB5FF4008FF73FFFDEFFD189
:1007500004CFFFFA100002431000000000049BB910
:100760003000008FFFFFF40004FF934EFB000BFCF2
:10077000000293001FF7023100003FF9DFFF9100F4
:100780004FFFEBDFFA004FFD100BFF203FF8000694
:10079000FF401FF80006FF400BFE201CFF1003EF78
:1007A000FDEFF700003CFFFE700000002430000069
:1007B0004999999994BFFFFFFFFD5BBBBBBFF9004F
:1007C00000009FC0000005FE2000001EF600000093
:1007D0009FD0000002FF70000008FF1000000EFB19
:1007E0000000004FF70000007FF30000006FD00012
:1007F00000000310000000000017BBB8100002EF5B
:10080000FFFFE3000BFE626EFB000DFA000AFF0023
:100810000CFB000BFC0004FFB8BFF40002BFFFFF9D
:10082000B2000CFE646EFD003FF70007FF304FF68C
:100830000006FF402FFC101BFF2009FFEDEFF90021
:10084000007EFFFE80000000243000000017BBB6D1
:10085000000003EFFFFFB0000CFE748FF8003FF8BC
:10086000000AFE004FF60007FF303FF7000AFF4086
:100870000DFF749FFF4003EFFFFDFF4000179956E7
:10088000FF2000300009FD0009FA003FF80008FFD2
:10089000DBFFD100019FFFFA2000000133100000B0
:1008A00005309FF29FF217400000000000003C90CE
:1008B000BFF36FD10100000005309FF29FF2174097
:1008C0000000000000003C90BFF56FF701E54CC050
:1008D00067100000000000018B200000029FFF5005
:1008E0000003AFFFC60005CFFFB400007FFF9200FA
:1008F00000005FFFB5000000029FFFD7100000015D
:100900007EFFF8100000007DFF500000000057102F
:100910000444444443009FFFFFFFFF705DDDDDDDC5
:10092000DC300000000000000000000000007FFF3D
:10093000FFFFFF507FFFFFFFFF5002222222210016
:100940004B70000000008FFE8100000017EFFF9247
:1009500000000005CFFFA300000003AFFF40000030
:1009600006DFFE300028EFFE71001AFFFD60000078
:100970009FFC500000002730000000000000220013
:1009800000007EFFFA2009FFEEFFE12FFA007FF75B
:100990002FE2003FF7022000AFF500001BFFA00090
:1009A00000CFF7000005FF50000002EC000000003F
:1009B0000000000002BA10000008FF50000004FE12
:1009C0002000000011000000000000343100000091
:1009D000029EFFFFA200003EFB767AFE5002EF501F
:1009E00000003EE20BF607EE96B5F82FD07FFFFF32
:1009F000F0EC5F91EF408FC0BD7F74FA004F90CB59
:100A00006F85FB006F71F73FC2FF98EFACD10CF41C
:100A10009FFFEFFB2003FE4573375700005EFB6628
:100A200069EE1000029FFFFFA200000001343100B8
:100A30000000000000000230000000009FFB0000EA
:100A40000001FFFF30000006FFFF8000000CFDCF1B
:100A5000E000003FF87FF400008FF32FFA0000EF72
:100A6000D00DFF1004FF8008FF600AFFCBBCFFB071
:100A70001FFFFFFFFFF27FF944449FF7CFF3000011
:100A80003FFCAFC000000CFA031000000130000072
:100A90003DFFFFEDA3009FFFFFFFFF309FF8444C99
:100AA000FFA09FF60004FFB09FF60006FF709FFBBB
:100AB00099BFFB109FFFFFFFFB209FF8444AFFD028
:100AC0009FF60000CFF29FF60000CFF39FF8445A44
:100AD000FFE09FFFFFFFFF604EFFFFFEB40000003E
:100AE000000013430000002AFFFFE70003EFFFFFB1
:100AF000FFB01EFFB325EFF67FFB00004FF7CFF3EB
:100B000000000361FFF000000000FFD000000000C3
:100B1000FFF000000000DFF3000005719FFA000005
:100B20004FF73FFF9325EFF506FFFFFFFFA0004CB7
:100B3000FFFFE70000002443000000003DFFFFEC42
:100B400071009FFFFFFFFE309FF9667DFFD09FF68B
:100B50000001CFF69FF600005FFA9FF600002FFD20
:100B60009FF600002FFD9FF600002FFC9FF600006F
:100B70006FFA9FF60001DFF59FF9667DFFC09FFFCA
:100B8000FFFFFD204EFFFFFC710000003DFFFFFF57
:100B9000FE508FFFFFFFFF809FF9666665109FF68E
:100BA000000000009FF6000000009FFDBBBBB600E8
:100BB0009FFFFFFFFB009FFA777773009FF600000F
:100BC00000009FF6000000009FF9666665108FFF29
:100BD000FFFFFFA03DFFFFFFFF7000003DFFFFFF95
:100BE000FB108FFFFFFFFF109FF9666664009FF602
:100BF000000000009FF6000000009FFB9999700024
:100C00009FFFFFFFF3009FFDBBBB90009FF600001E
:100C100000009FF6000000009FF6000000009FF615
:100C2000000000005FF3000000000320000000004F
:100C300000000343100000002AFFFFFA200003EF2A
:100C4000FFFFFFE2001EFFB423AFFA008FFB00009E
:100C50000BF800CFF30000002000FFF000000000C0
:100C600000FFD0005DDDDD30FFE0008FFFFF60DFC3
:100C7000F2001569FF609FF900000BFF602FFF82F3
:100C8000029FFF6006FFFFFFFEEF60004CFFFFD3F7
:100C90009F500000244300030000000002100000E9
:100CA00001206FE200002EF69FF500005FF99FF62D
:100CB00000006FF99FF600006FF99FF600006FF9D2
:100CC0009FFFFFFFFFF99FFFFFFFFFF99FFA777775
:100CD000AFF99FF600006FF99FF600006FF99FF6DD
:100CE00000006FF99FF500005FF96FE200002EF73A
:100CF000032000000230000002106FE29FF59FF613
:100D00009FF69FF69FF69FF69FF69FF69FF69FF63B
:100D10009FF56FE2032000000000000200000000C9
:100D2000BFB0000000FFF0000000FFF0000000FF77
:100D3000F0000000FFF0000000FFF0000000FFF0F6
:100D4000010000FFF05FC000FFF09FF100FFE09F97
:100D5000F607FFB03FFFFFFF5005EFFFF70000036E
:100D6000431000000210000011006FE20002EF507B
:100D70009FF5001DFF609FF601DFF8009FF61BFF47
:100D800090009FF6AFFA00009FFEFFF400009FFF67
:100D9000FFFD00009FFFADFF80009FFA03FFF300FF
:100DA0009FF6009FFD009FF6001DFF709FF5000459
:100DB000FFF16FE200009FE103200000031000003C
:100DC00002100000006FE20000009FF50000009F8D
:100DD000F60000009FF60000009FF60000009FF65E
:100DE0000000009FF60000009FF60000009FF60044
:100DF00000009FF60000009FFA7777729FFFFFFFC9
:100E0000FB4EFFFFFFF70000023100000013207FC0
:100E1000FE300002EFF7BFFF800008FFF9BFFFD0F0
:100E2000000CFFF9BFFFF2002FFFF9BFFBF7007FB7
:100E3000BFF9BFF7FC00BF7FF9BFF2FF21FF2FF919
:100E4000BFF0CF65FC0FF9BFF08FBAF70FF9BFF015
:100E50003FFEF30FF9BFF00DFFD00FF9BFF008FF11
:100E6000800FF98FB003FF300BF703100022000151
:100E7000300000000120000001206FF800001EF883
:100E8000AFFF30002FFBBFFFC0002FFBBFFFF700FD
:100E90002FFBBFFCFE202FFBBFF4EFB02FFBBFF2F8
:100EA0007FF52FFBBFF20CFD3FFBBFF203FFAFFB53
:100EB000BFF2008FFFFBBFF2000DFFFBBFF200048B
:100EC000FFFA8FE100009FF60310000003300000DE
:100ED000000001343000000003BFFFFE9100006FEE
:100EE000FFFFFFFE2003FFF9324BFFD00BFF800016
:100EF00000CFF60FFF1000005FFA2FFC0000002F5C
:100F0000FD4FFB0000002FFD2FFC0000002FFC0F09
:100F1000FF1000005FF90AFF700000CFF403FFF834
:100F2000223BFFC0007FFFFFFFFD200005DFFFFF2A
:100F30009100000002443100000000003DFFFFFD71
:100F4000A3009FFFFFFFFF409FF9666BFFC09FF666
:100F50000000EFF19FF60000EFF19FF60018FFD0C0
:100F60009FFFFFFFFF609FFFFFFFE6009FF84443E6
:100F700000009FF6000000009FF6000000009FF5B3
:100F8000000000006FE200000000032000000000ED
:100F9000000001343000000003BFFFFE9100006F2D
:100FA000FFFFFFFE2003FFF9324BFFD00BFF800055
:100FB00000CFF60FFF1000005FFA2FFC0000002F9B
:100FC000FD4FFB0000002FFD2FFC0000002FFC0F49
:100FD000FF1004B25FF90AFF7009FECFF403FFF8B7
:100FE00023CFFFC0007FFFFFFFFF600005DFFFFF93
:100FF000BFF4000002443008F40000003DFFFFFE93
:10100000C7109FFFFFFFFFB09FF96667EFF49FF6E1
:1010100000009FF79FF600008FF59FF84446EFD041
:101020009FFFFFFFFC209FFFFFFFFF709FF6000662
:10103000FFE09FF60000DFF09FF60000BFF19FF594
:101040000000BFF56FE200005FF403200000032002
:10105000000024410000005DFFFFC40007FFFFFF08
:10106000FF700EFE4016EFF02FFA00004D901FFFAC
:10107000720000000BFFFFDA610001AFFFFFFE50BE
:10108000000169DFFFF201100002CFF72EF400002B
:101090006FF72FFE4002DFF509FFFEDFFFC0006D96
:1010A000FFFFF91000003443100000006EFFFFFF47
:1010B000FFE7BFFFFFFFFFFB2777BFFB7772000053
:1010C0007FF7000000007FF7000000007FF70000BE
:1010D00000007FF7000000007FF7000000007FF7AE
:1010E000000000007FF7000000007FF70000000014
:1010F0007FF7000000004FF4000000000220000015
:101100000210000001206FE200002EF69FF50000A3
:101110005FF99FF600006FF99FF600006FF99FF6E8
:1011200000006FF99FF600006FF99FF600006FF95D
:101130009FF600006FF99FF600006FF97FF700003F
:101140007FF83FFE6226EFF30AFFFFFFFFA0007E5D
:10115000FFFFE70000003443000000000200000031
:101160000110AFC000002EF5CFF400007FF77FF92B
:101170000000CFF22FFD0002FFB00BFF3007FF6031
:1011800006FF700BFF1001FFB01FFA0000AFF16FF8
:10119000F500005FF6BFE000000EFBFF80000009D5
:1011A000FFFF30000004FFFD00000000CFF600004C
:1011B00000000320000000000200000120000011D8
:1011C00000AFC0002EFB0001EF50CFF1006FFF1009
:1011D00005FF708FF4009FFF4008FF304FF700CFEE
:1011E000FF800BFE001FFA01FFAFB00EFB000CFDED
:1011F00005FE4FF03FF70008FF18FA0FF36FF300FA
:1012000004FF4BF70BF79FE00000FF8FF308FACFC6
:10121000A00000BFDFE004FEFF7000007FFFA00120
:10122000FFFF2000004FFF7000CFFE0000000CFE0B
:1012300020006FF8000000014100000330000000B2
:101240000110000011003FF30004FF205FFC000DBF
:10125000FF300DFF608FFA0003FFE3FFD100008F26
:10126000FFFF4000000DFFF900000007FFF3000042
:10127000002FFFFC000000CFFDFF700007FFB2FF52
:10128000F3003FFF208FFC00AFF7000DFF60AFC001
:101290000005FF40031000003200000002100000B3
:1012A00002009FC00000BF90BFF70005FFC04FFEC7
:1012B000100DFF400AFF806FFA0001EFF2EFE2002D
:1012C000007FFEFF7000000CFFFD00000003FFF434
:1012D00000000000FFF000000000FFF00000000030
:1012E000FFF000000000FFF000000000CFC0000091
:1012F000000003000000000009FFFFFFFFE60EFFF3
:10130000FFFFFFFA0377777BFFF40000003EFF60EA
:10131000000001DFF80000000CFFB0000000AFFC8F
:1013200010000007FFE20000005FFF30000003FF35
:10133000F50000002EFFD77777727FFFFFFFFFFBDE
:101340003DFFFFFFFFF700003DFFE27FFFE27FF080
:10135000007FF0007FF0007FF0007FF0007FF00062
:101360007FF0007FF0007FF0007FF0007FF0007FD3
:10137000F0007FF9914FFFF3036640001200000078
:10138000CF1000009F7000004FC000000DF3000060
:1013900007F9000002FE000000BF5000005FB0002F
:1013A000000EF2000009F7000003FD000000CF402E
:1013B00000006F7000000400BFFE60CFFFB0009F10
:1013C000B0009FB0009FB0009FB0009FB0009FB0E2
:1013D000009FB0009FB0009FB0009FB0009FB00082
:1013E0009FB079DFB0EFFF9025640000000372002A
:1013F00000000EFB0000007FFF500001EFAFD000A7
:1014000009FB0DF6002FF306FE10AF9000CF7069B8
:101410001000395049999999994014444444441012
:101420007800EFC23CFE0078000599961002DFFFBD
:10143000FFE309FE748FFB04B3000EFB001579CFA8
:10144000FB06FFFFDEFB2FFC410DFB4FF6003FFBD1
:101450002FFE89EEFD05EFFE67FE00133000310020
:101460000200000000CF80000000FF90000000FF9D
:1014700090000000FF92897100FFCEFFFE20FFFB6D
:1014800069FFB0FFE000AFF2FF90005FF4FF800063
:101490004FF6FFB0007FF3FFF302DFE0FFEFDFFF67
:1014A00070DF6CFFF7001300331000000005998314
:1014B0000001CFFFFFA00BFFA6BFF33FF9000BD247
:1014C0006FF40000007FF20000005FF40004702F52
:1014D000FC103FF409FFEDFFE1008EFFFC3000003F
:1014E00034200000000000002000000008FC000084
:1014F0000009FF00000009FF00179829FF02EFFF15
:10150000ECFF0BFF96BFFF2FFA000EFF5FF50009FF
:10151000FF6FF40008FF4FF7000BFF1EFD203FFF99
:1015200007FFFDFEFF007FFFC6FD00013200310016
:1015300000038995000000AFFFFFC10009FF746E32
:10154000FB001FF80005FF304FFCBBBCFF606FFCC9
:10155000BBBBBB304FF6000010000EFD2006FA00AA
:1015600005FFFDEFFA00005DFFFE91000000243052
:101570000000000000014200006FFF5001FFFD402D
:1015800002FF800037FFA610BFFFFF7026FFA410E8
:1015900002FF700002FF700002FF700002FF700087
:1015A00002FF700002FF700001EF600000130000F6
:1015B000001698319602DFFFFAFE0BFFA6BFFF2F41
:1015C000F9000CFF5FF50009FF6FF40009FF3FF819
:1015D000000CFF0EFF648FFF04FFFFFEFF0038BA10
:1015E00049FF0161000BFC09FD326FF705FFFFFFAA
:1015F000B10039CDB70000000200000000CF80002C
:101600000000FF90000000FF90000000FF91798330
:1016100000FFBEFFFF40FFFD8BFFB0FFE100DFE0FA
:10162000FFA0009FF0FF90009FF0FF90009FF0FF51
:1016300090009FF0FF90009FF0CF80008FC01300BC
:10164000000310000400AFB0CFC027204940CFC036
:10165000DFD0DFD0DFD0DFD0DFD0DFD0DFD0AFA072
:101660000400000000040000AFB000CFC00027203D
:1016700000494000CFC000DFD000DFD000DFD00045
:10168000DFD000DFD000DFD000DFD000DFD000DF10
:10169000D005EFB04FFF801AB70000000200000035
:1016A00000CF80000000FF90000000FF90000000CD
:1016B000FF90029300FF901DFC00FF91DFF500FFFB
:1016C000ABFF6000FFFFFB0000FFFFFF4000FFE6F5
:1016D000FFE200FF906FFB00FF900BFF60CF8001E7
:1016E000EF501300001300000200AFA0DFD0DFD0E6
:1016F000DFD0DFD0DFD0DFD0DFD0DFD0DFD0DFD072
:10170000DFD0AFA003000000591179820389720075
:10171000EF9DFFFE6FFFFE20FFFC8CFFFC8CFF7037
:10172000FFE102FFD102FF90FFA000FFA000FF90A9
:10173000FF9000FF9000FF90FF9000FF9000FF904F
:10174000FF9000FF9000FF90FF9000FF9000FF903F
:10175000CF8000DF8000DF70130000130000130053
:101760005911798300EF8EFFFF40FFFD8BFFB0FF23
:10177000E100DFE0FFA0009FF0FF90009FF0FF90EE
:10178000009FF0FF90009FF0FF90009FF0CF80003F
:101790008FC013000003100000048984000001BF03
:1017A000FFFFB1000AFF958FFA001FFA000AFF2021
:1017B0005FF50005FF506FF40004FF604FF700066F
:1017C000FF400EFD101DFE1007FFEBEFF700006E4F
:1017D000FFFE6000000034300000000069139961D2
:1017E00000EFAFFFFD20FFFB6AFFB0FFD000AFF2BC
:1017F000FF90005FF4FF80004FF6FFB0007FF3FF23
:10180000F301DFE1FFFFDEFF80FFABFFF900FF9098
:10181000241000FF90000000EF900000006B3000EB
:1018200000000000001699319602DFFFFAFE0BFF60
:10183000A6BFFF2FFA000DFF5FF50009FF6FF40050
:1018400008FF4FF7000BFF1FFD103FFF08FFEDFFE4
:10185000FF009FFFBAFF00014209FF00000009FFDF
:1018600000000009FE00000003B6000049229700B6
:10187000CF9EFF30DFFFFB10DFF50000DFE0000050
:10188000DFD00000DFD00000DFD00000DFD000009C
:10189000AFA000000400000000489961000AFFFFAB
:1018A000FE304FFA46EF806FF70027102FFFFB82C4
:1018B0000004CFFFFF50030159EFE04FC100AFF02C
:1018C0003FFEABFFA004CFFFF91000013310000072
:1018D0000033000002FF400004FF600038FF951055
:1018E000BFFFFF5027FF940004FF600004FF60006B
:1018F00004FF600004FF600004FF600003FFEC30A1
:1019000000BFFF30000241005930003950EF900015
:101910009FE0FF90009FF0FF90009FF0FF90009FDE
:10192000F0FF90009FF0FFA000BFF0EFE206FFF095
:101930009FFFEFEFF01CFFF95FD0002410031000B1
:101940004920002940DFB000BFD0AFF101FFA05F08
:10195000F505FF500EF909FE0009FE0EF90003FF20
:101960007FF30000DFEFD000008FFF8000002FFF2B
:10197000200000024200000039400189100493BF9A
:10198000B007FF800BFB9FF10BFFC00FF94FF40E68
:10199000FFF13FF40EF72FCCF37FE00AFB5F88F7EF
:1019A000AFA006FE9F44FADF6001FFEF11FEFF10BB
:1019B00000BFFC00CFFB00006FF7007FF6000003C4
:1019C000300003300000000018700078007FF4053C
:1019D000FF302FFD1EFD0007FFDFF30000CFFF806B
:1019E00000008FFF500004FFFFD1001DFE6FF900C3
:1019F0008FF50BFF308FB002EF30030000220000A4
:101A00003940003930BFD000CFB08FF201FF803FA6
:101A1000F705FF300DFB09FD0008FE0DF70003FF81
:101A20006FF20000CFEFB000007FFF7000002FFFCB
:101A30001000000CFB0000068FF500001FFFC00027
:101A40000007B8100000000003666666500FFFFF35
:101A5000FFF507999BFFE100001DFE300001DFF458
:101A600000001BFF500000BFF700000AFF800000CD
:101A70005FFFFFFFF54FFFFFFFF40000006DFE303A
:101A800001FFC92003FF400004FF400004FF4000A5
:101A900004FF400004FF30008DFB0000DFE7000082
:101AA00006FF100004FF400004FF400004FF400058
:101AB00003FF400002FF950000BFFF4000035500F8
:101AC00002201EE12FF22FF22FF22FF22FF22FF22F
:101AD0002FF22FF22FF22FF22FF21FF1022000002F
:101AE000CFEA00008BFF600000DF700000DF7000B5
:101AF00000DF700000DF700000DF8000007FEA1070
:101B0000003CFF3000CFA00000DF700000DF70005D
:101B100000DF700000DF700036FF7000EFFE200075
:101B20003641000002AB830038000DFFFFBAFF0012
:101B30004FC6AFFFF90006100179500001010012F5
:101B40000600000080020008040F010406000000E7
:101B500084020008070701040A000000A40200082C
:101B60000B0E00050B000000C00200080B10000463
:101B70000B00000014030008100F01041200000005
:101B8000740300080D0F00040D000000EC030008B2
:101B900003070104060000005804000805120104B0
:101BA000060000006804000805120004060000009A
:101BB000A00400080808000408000000D804000879
:101BC0000B0B00070B000000F80400080406010FCF
:101BD000060000003C0500080704000B0700000099
:101BE000480500080404010F06000000580500081D
:101BF000070F000407000000600500080B0E000539
:101C00000B0000009C050008070EFF050700000000
:101C1000F00500080B0D00050B0000002806000869
:101C20000A0E00050B000000780600080B0E0005E8
:101C30000B000000C00600080A0E00050B000000A3
:101C4000140700080B0E00050B0000005C070008DD
:101C50000A0E00050A000000B00700080B0E000580
:101C60000B000000F80700080B0E00050B00000039
:101C70004C080008040B010806000000A00800083A
:101C8000040D010806000000B80800080B0A00084F
:101C90000B000000D40800080B0800090B0000002E
:101CA000100900080B0A00080B000000400900089A
:101CB0000A0F00040A0000007C0900080E0F00044F
:101CC0000E000000C80900080C0F00040C00000002
:101CD000340A00080C0D01050D000000900A0008F0
:101CE0000C0F01040D000000E00A00080C0D0105B6
:101CF0000E0000003C0B00080B0D01050C0000005D
:101D00008C0B00080B0E01050B000000DC0B00081B
:101D10000D0F01040F000000300C00080C0F01042F
:101D20000E0000009C0C0008040F010406000000D7
:101D3000F80C0008090F00040A000000180D000844
:101D40000C0F01040C000000640D00080A0E0104D1
:101D50000B000000C00D00080E0F01041000000071
:101D6000080E00080C0F01040E000000740E00089D
:101D70000E0F00040F000000D00E00080C0E01052D
:101D80000D0000003C0F00080E0F00040F000000C3
:101D9000900F00080C0E01050D000000FC0F00085C
:101DA0000C0F00040C000000501000080C0E000581
:101DB0000C000000AC1000080C0F01040E00000025
:101DC000001100080C0F00040C0000005C1100085A
:101DD000110F000411000000B81100080B0F0004DF
:101DE0000B000000401200080B0F00040B00000065
:101DF0009C1200080C0D00050C000000F8120008F1
:101E0000061101050600000048130008070F000432
:101E1000070000007C130008051100050600000003
:101E2000B8130008090801050B000000EC130008B6
:101E30000B02FF130900000014140008040400043E
:101E400005000000201400080A0B00080B00000029
:101E5000281400080A0F01040B0000006014000899
:101E60000A0B00080A000000AC1400080A0F000466
:101E70000B000000E41400080B0B00080B0000002E
:101E800030150008070F0004070000007415000853
:101E90000A0E00080B000000B0150008090F01042D
:101EA0000B000000F8150008030F010405000000F6
:101EB000441600080512FF0405000000641600081F
:101EC000090F01040A0000009C160008030F01041A
:101ED00005000000E81600080F0B010811000000C3
:101EE00008170008090B01080B0000006017000824
:101EF0000B0B00080B000000981700080A0E0108E1
:101F00000B000000DC1700080A0E00080B000000A0
:101F100024180008070B0108070000006C180008CF
:101F2000090B00080A00000098180008070E0005B9
:101F300007000000D0180008090B01080B00000082
:101F400008190008090B00080900000040190008E2
:101F50000E0B00080E00000078190008090B00089D
:101F600009000000C8190008090E00080900000057
:101F7000001A00080A0A00080A000000481A0008AF
:101F800007110005060000007C1A0008040F000479
:101F900004000000C01A0008071100050600000038
:101FA000E01A00080B04000B0B000000241B0008C3
:101FB00020007E003C1B000800000000CDBA010894
:101FC0008FB80108C1B80108C7B80108D3B8010823
:101FD000A4C0010816160101B01F0008160B0F005F
:101FE000000000FF000000FF000000FF000000FFF5
:101FF000000000FF000000FF000000FF000000FFE5
:10200000000000FF000000FF000000FF000000FFD4
:10201000000000FF000000FF000000FF000000FFC4
:10237000000000FF000000FF101010FD3E3E3EE098
:102380005A5A5AC65A5A5ABF5A5A5ABF5A5A5ABF12
:102390005A5A5ABF5A5A5ABF5A5A5ABF595A5ABF0A
:1023A0005A5A5ABF5A5A5ABF5A5A5ABF5A5A5ABFF9
:1023B0005A5A5ABF5A5A5ABF5A5A5ABF5A5A5ABFE9
:1023C0005A5A5ABF5A5A5ABF5A5A5ABF5A5A5ABFD9
:1023D0005A5A5ABF5A5A5ABF5A5A5ABF5A5A5ABFC9
:1023E0005A5A5ABF5A5A5ABF5A5A5ABF5A5A5ABFB9
:1023F0005A5A5ABF5A5A5ABF5A5A5ABF5A5A5ABFA9
:102400005A5A5ABF5A5A5ABF5A5A5ABF5A5A5ABF98
:102410005A5A5ABF5A5A5ABF5A5A5ABF5A5A5ABF88
:102420005A5A5ABF5A5A5AC21F1F1FF5000000FFBE
:10243000000000FF000000FF000000FF000000FFA0
:10244000000000FF000000FF000000FF000000FF90
:10245000000000FF000000FF000000FF000000FF80
:10246000000000FF000000FF000000FF000000FF70
:10247000000000FF000000FF000000FF000000FF60
:10248000000000FF040404FF595959C997A3AA5F2B
:1024900098B7C91672A0BB005D94B3005992B20000
:1024A0005993B5005A95B7005A96B9005B98BC008D
:1024B0005B99BE005C9BBF005F9CC000619DC0003B
:1024C000639EC10065A0C20068A2C3006AA3C400E5
:1024D0006CA4C5006EA6C50070A7C60071A9C70090
:1024E00074AAC70076ABC80077ACC90077ACC80047
:1024F00076ACC90075ABC90073AAC90072A9C8003F
:1025000070A9C8006EA7C8006DA6C7006BA6C7005B
:1025100069A4C70067A3C60065A2C60063A2C50080
:1025200062A1C60061A0C400619EC200619EC0009D
:10253000619DBF00619BBD00609ABB0084B2CB006F
:10254000A7A7A78F000000FF000000FF000000FF0A
:10255000000000FF000000FF000000FF000000FF7F
:10256000000000FF000000FF000000FF000000FF6F
:10257000000000FF000000FF000000FF000000FF5F
:10258000000000FF000000FF000000FF000000FF4F
:10259000000000FF000000FF191919F59CA3A861B5
:1025A0006991A9023A74980036769C003678A000AA
:1025B000377BA400387DA700397FAB003982AE009D
:1025C0003985B2003B87B6003B8AB9003C8CBB0022
:1025D000418EBD004690BD004892BF004D95C000A1
:1025E0005197C1005499C200589BC3005C9EC4001F
:1025F0005FA0C50062A3C70066A5C7006AA7C800A0
:102600006DA9C9006CA9C9006AA6C80066A5C70063
:1026100062A3C6005EA0C5005B9EC400579BC300BA
:102620005499C2005197C1004C94C0004892BF0019
:102630004590BD00408EBC003C8CBC003B8AB9007C
:102640003A86B5003985B1003982AE00397FAA00DB
:102650003D7EA400B8CCD81D2E2E2EF1000000FF28
:10266000000000FF000000FF000000FF000000FF6E
:10267000000000FF000000FF000000FF000000FF5E
:10268000000000FF000000FF000000FF000000FF4E
:10269000000000FF000000FF000000FF000000FF3E
:1026A000000000FF000000FF000000FF131313FBF9
:1026B000B4BDC3473C6D8B003671960037739900EB
:1026C00036769D003678A000377BA300367AA300CB
:1026D00034759C003373990035749A0034759C00EE
:1026E00035779E0036789F003979A0003B7AA000AC
:1026F0003D7BA100407CA200437EA2004480A30059
:102700004781A4004983A4004B84A5004D86A60000
:102710004F87A6005288A7005289A7005389A700B7
:102720005188A7004F87A7004D86A7004C85A600BB
:102730004A84A6004883A6004682A5004481A500DD
:10274000427FA500407EA4003D7DA3003B7CA3000A
:10275000397CA300397AA10038799F0038779D0031
:1027600038769C00387599006991A8017F8080A90E
:10277000000000FF000000FF000000FF000000FF5D
:10278000000000FF000000FF000000FF000000FF4D
:10279000000000FF000000FF000000FF000000FF3D
:1027A000000000FF000000FF000000FF000000FF2D
:1027B000000000FF000000FF000000FF000000FF1D
:1027C000000000FF92939492507D9800356D920026
:1027D000367096003772990036759C0034719600F9
:1027E0006690A900ABBFCB00D9E1E700F0F3F6009B
:1027F000F6F8F900F6F8F900F6F8F900F6F8F9003D
:10280000F6F8F900F6F8F900F6F8F900F6F8F9002C
:10281000F6F8F900F6F8F900F6F8F900F6F8F9001C
:10282000F6F8F900F6F8F900F6F8F900F6F8F9000C
:10283000F6F8F900F6F8F900F6F8F900F6F8F900FC
:10284000F6F8F900F6F8F900F6F8F900F6F8F900EC
:10285000F6F8F900F6F8F900F6F8F900F6F8F900DC
:10286000F6F8F900F6F8F900F6F8F900F7F8F900CB
:10287000F7F8F900F7F8F900F7F8FA00F6F8F900B8
:10288000D9DADA46080808FE000000FF000000FF61
:10289000000000FF000000FF000000FF000000FF3C
:1028A000000000FF000000FF000000FF000000FF2C
:1028B000000000FF000000FF000000FF000000FF1C
:1028C000000000FF000000FF000000FF000000FF0C
:1028D000000000FF000000FF3B3B3BE59BB8C81138
:1028E000346A8D00356D910036709500377298000E
:1028F000477C9D00CBD9E100FFFFFF00FFFFFF00F9
:10290000FFFFFF00FFFFFF00FFFFFF00FFFFFF00D3
:10291000FFFFFF00FFFFFF00FFFFFF00FFFFFF00C3
:10292000FFFFFF00FFFFFF00FFFFFF00FFFFFF00B3
:10293000FFFFFF00FFFFFF00FFFFFF00FFFFFF00A3
:10294000FFFFFF00FFFFFF00FFFFFF00FFFFFF0093
:10295000FFFFFF00FFFFFF00FFFFFF00FFFFFF0083
:10296000FFFFFF00FFFFFF00FFFFFF00FFFFFF0073
:10297000FFFFFF00FFFFFF00FFFFFF00FFFFFF0063
:10298000FFFFFF00FFFFFF00FFFFFF00FFFFFF0053
:10299000FFFFFF00FEFEFE08474747D8000000FF8C
:1029A000000000FF000000FF000000FF000000FF2B
:1029B000000000FF000000FF000000FF000000FF1B
:1029C000000000FF000000FF000000FF000000FF0B
:1029D000000000FF000000FF000000FF000000FFFB
:1029E000000000FF000000FF000000FF070707FFD6
:1029F000BDC6CB5A3C759800356A8D00366D900087
:102A0000366F94003D799E00DDE7ED00FFFFFF008B
:102A1000FFFFFF00FFFFFF00FFFFFF00FFFFFF00C2
:102A2000FFFFFF00FFFFFF00FFFFFF00FFFFFF00B2
:102A3000FFFFFF00FFFFFF00FFFFFF00FFFFFF00A2
:102A4000FFFFFF00FFFFFF00FFFFFF00FFFFFF0092
:102A5000FFFFFF00FFFFFF00FFFFFF00FFFFFF0082
:102A6000FFFFFF00FFFFFF00FFFFFF00FFFFFF0072
:102A7000FFFFFF00FFFFFF00FFFFFF00FFFFFF0062
:102A8000FFFFFF00FFFFFF00FFFFFF00FFFFFF0052
:102A9000FFFFFF00FFFFFF00FFFFFF00FFFFFF0042
:102AA000FFFFFF00FFFFFF00FFFFFF00A1A1A17CD0
:102AB000000000FF000000FF000000FF000000FF1A
:102AC000000000FF000000FF000000FF000000FF0A
:102AD000000000FF000000FF000000FF000000FFFA
:102AE000000000FF000000FF000000FF000000FFEA
:102AF000000000FF000000FF000000FF000000FFDA
:102B0000000000FF7B7B7BBC74A4C10134698A0098
:102B1000356A8B00356C8F00356F940089B3CC001B
:102B2000FFFFFF00FFFFFF00FFFFFF00FFFFFF00B1
:102B3000FFFFFF00EFF4F700D8E5ED00D8E6ED0069
:102B4000D8E6EE00D9E6EE00D9E7EE00D9E7EF00CF
:102B5000DAE7EF00DAE8EF00DAE8F000DBE9F000AE
:102B6000DBE9F100DBE9F100DBE9F100DCEAF1008F
:102B7000DCEAF200DCEAF200DCEAF200DCEAF20075
:102B8000DCEAF200DEECF300FDFEFE00FFFFFF00DA
:102B9000FFFFFF00FFFFFF00FFFFFF00FEFEFF0043
:102BA000DAE5EB00D4E0E800D5E2EA00D7E4EC0097
:102BB000D8E5ED00DAE7EF00DBE9F100E1EDF40044
:102BC000FAFAFA22292929F5000000FF000000FF87
:102BD000000000FF000000FF000000FF000000FFF9
:102BE000000000FF000000FF000000FF000000FFE9
:102BF000000000FF000000FF000000FF000000FFD9
:102C0000000000FF000000FF000000FF000000FFC8
:102C1000000000FF000000FF161616F8B8CFDD29EF
:102C2000367196003467880034698A00356B8E00EF
:102C300037739A00B5D2E400FFFFFF00FFFFFF00EB
:102C4000FFFFFF00FFFFFF00F0F3F600487D9C0050
:102C50003B789E003B7BA2003C7DA4003C7FA7000C
:102C60003D81AB003E84AE003E86B0003F88B4009C
:102C7000408AB700408CB900428EBB00448FBC0034
:102C80004791BD004A92BD004C94BE004D95BF00D7
:102C90004E95BF005096C0005096C00076A7C20067
:102CA000FCFDFE00FFFFFF00FFFFFF00FFFFFF0036
:102CB000FFFFFF009FB8C6004388B200418CB800F8
:102CC0003F8BB8003F8BB8003F8AB7004089B50002
:102CD0004289B4008AB6CE01868687B1000000FF23
:102CE000000000FF000000FF000000FF000000FFE8
:102CF000000000FF000000FF000000FF000000FFD8
:102D0000000000FF000000FF000000FF000000FFC7
:102D1000000000FF000000FF000000FF000000FFB7
:102D2000000000FF000000FF000000FF000000FFA7
:102D30009B9D9E866398B80033638300336586004D
:102D400034688900356A8C0039719500ADCEE10098
:102D5000FFFFFF00FFFFFF00FFFFFF00FFFFFF007F
:102D6000FFFFFF00A3B8C500396F8F0036769C00C7
:102D70003779A100377BA400387DA700387FAA00EF
:102D80003982AD003A84B0003A85B3003A87B60084
:102D90003B89B9003C8BBB003D8CBB003F8DBC0028
:102DA000428EBD00448FBD004690BE004691BE00DD
:102DB000407FA400CCDAE100FFFFFF00FFFFFF002F
:102DC000FFFFFF00FFFFFF00E1E7EB003D799D0003
:102DD0003D8DBC003C8BBB003B8AB9003B88B700F3
:102DE0003A86B4003A84B0004A88AC00BCC6CB4FE7
:102DF000090909FF000000FF000000FF000000FFBC
:102E0000000000FF000000FF000000FF000000FFC6
:102E1000000000FF000000FF000000FF000000FFB6
:102E2000000000FF000000FF000000FF000000FFA6
:102E3000000000FF000000FF000000FF000000FF96
:102E4000000000FF3E3E3EDEAFCEDF0C3A6A890056
:102E500033628200336484003466870034698A00F8
:102E6000356B8D006EA1BF00F8FBFD00FFFFFF007A
:102E7000FFFFFF00FFFFFF00FFFFFF00FFFFFF005E
:102E8000E4EBEF006C94AD0034749A003779A10044
:102E9000377BA400387DA600397FA9003981AD00B9
:102EA0003983AF003A85B2003A86B4003B88B70058
:102EB0003B89B9003C8BBB003C8CBC003E8CBC0009
:102EC0003F8DBC003E89B700779AAF00FFFFFF003F
:102ED000FFFFFF00FFFFFF00FFFFFF00FFFFFF00FE
:102EE0006C96AF003A89B8003B8AB9003B88B700BE
:102EF0003A86B5003A85B2003983B0003A7EA80020
:102F000098B5C50C474747DD000000FF000000FFF3
:102F1000000000FF000000FF000000FF000000FFB5
:102F2000000000FF000000FF000000FF000000FFA5
:102F3000000000FF000000FF000000FF000000FF95
:102F4000000000FF000000FF000000FF000000FF85
:102F5000000000FF000000FF0A0A0AFEB9C4CB4FC0
:102F60004A7FA000315F7D003361800033638300BE
:102F7000336585003467880034698B0039709300AD
:102F800080AFCB00F2F7FA00FFFFFF00FFFFFF006A
:102F9000FFFFFF00FFFFFF00FFFFFF00FFFFFF003D
:102FA000B8CEDB004884A9003679A100377BA300A6
:102FB000377CA500387EA9003980AB003A81AD008E
:102FC0003A83AF003A84B2003A86B4003A87B6003A
:102FD0003B88B8003B89B9003B89B9004183A9000F
:102FE000EBF0F400FFFFFF00FFFFFF00FFFFFF001B
:102FF000FFFFFF00BFD6E4003982AF003A87B6007A
:103000003A86B4003A85B2003983B0003982AE0006
:103010003880AC00487996009A9D9E85000000FF9C
:10302000000000FF000000FF000000FF000000FFA4
:10303000000000FF000000FF000000FF000000FF94
:10304000000000FF000000FF000000FF000000FF84
:10305000000000FF000000FF000000FF000000FF74
:10306000000000FF000000FF000000FF000000FF64
:103070007F7F80B0559ABC011F52710023567400A7
:10308000285A79002E5E7E00326283003365860006
:1030900034688900356A8C00366C90004E89AF0028
:1030A000BBD5E600FFFFFF00FFFFFF00FFFFFF00B3
:1030B000FFFFFF00FFFFFF00FFFFFF00F1F6F90039
:1030C00086B2CE003B7FAA00377AA200377BA400ED
:1030D000377CA600397EA9003980AB003981AD006C
:1030E0003982AF003A83B0003A84B2003A85B30027
:1030F0003A85B300A9C8DA00FFFFFF00FFFFFF0019
:10310000FFFFFF00FFFFFF00F8FBFD00599AC20020
:103110003A84B2003983B0003481AE002E7DAA001B
:103120002879A6002276A30018689000A2B3BD29D2
:10313000151515F7000000FF000000FF000000FF5C
:10314000000000FF000000FF000000FF000000FF83
:10315000000000FF000000FF000000FF000000FF73
:10316000000000FF000000FF000000FF000000FF63
:10317000000000FF000000FF000000FF000000FF53
:10318000000000FF272727F4A2BFCD221A557500A3
:103190001B4D6A001A4F6D001951700017537300D0
:1031A0001655760018587A001D5C7F002260830057
:1031B000276487002B678A00306E94006C9CB800EF
:1031C000E5EDF200FFFFFF00FFFFFF00FFFFFF0044
:1031D000FFFFFF00FFFFFF00FFFFFF00D3E4EF0052
:1031E000649DBF00387AA200377AA200377BA40022
:1031F000387CA600387DA800387FAA003980AB0053
:103200003981AC003B82AE006EA7C900FCFDFE0018
:10321000FFFFFF00FFFFFF00FFFFFF00FFFFFF00BA
:10322000A4CADE00287EAB001E77A5001A75A30095
:103230001973A1001A729F001B709D001B6F9B00E9
:103240005693B101666666BB000000FF000000FFF8
:10325000000000FF000000FF000000FF000000FF72
:10326000000000FF000000FF000000FF000000FF62
:10327000000000FF000000FF000000FF000000FF52
:10328000000000FF000000FF000000FF000000FF42
:10329000000000FF000000FF030303FFB0B3B57997
:1032A0002E607C001D4A66001C4B68001B4D6B00A5
:1032B0001A4F6D00195170001753730015557600A1
:1032C0001357790013587B00145A7E00145C800059
:1032D000155E8300166085001E678A0097B3C200E2
:1032E000FCFDFD00FFFFFF00FFFFFF00FFFFFF00F1
:1032F000FFFFFF00FFFFFF00ECF3F8004E94B80063
:10330000236F98002470990024719B0024729D0003
:1033100024729D0023739F002173A0003585B000A7
:10332000DAEAF200FFFFFF00FFFFFF00FFFFFF00F0
:10333000FFFFFF00DCECF4002F84AF001A719F0048
:103340001A719E001B709D001B6F9B001B6E9A00E4
:103350001A6D9800217DAA00B2C0C758020202FF70
:10336000000000FF000000FF000000FF000000FF61
:10337000000000FF000000FF000000FF000000FF51
:10338000000000FF000000FF000000FF000000FF41
:10339000000000FF000000FF000000FF000000FF31
:1033A000000000FF000000FF000000FF000000FF21
:1033B000535353D67B9DAF071D4966001D496500D9
:1033C0001D4A66001C4C69001B4D6B001A4F6E00B5
:1033D0001951700017537300155576001356780075
:1033E00013587B00135A7D00145C8000155E820028
:1033F00015608400165E830047789200D4DFE500F4
:10340000FFFFFF00FFFFFF00FFFFFF00FFFFFF00C8
:10341000FFFFFF00A4CCDF00166A9400176891003C
:1034200017699300186A9400196B96001A6C97003C
:10343000196E9A0075B2D000FFFFFF00FFFFFF007A
:10344000FFFFFF00FFFFFF00FEFEFF00519ABC00E0
:103450001B6F9A001A6D99001A6D98001A6C9700EC
:10346000186B9600186A940022739C00A0C9DD0FA7
:10347000444444E4000000FF000000FF000000FF9F
:10348000000000FF000000FF000000FF000000FF40
:10349000000000FF000000FF000000FF000000FF30
:1034A000000000FF000000FF000000FF000000FF20
:1034B000000000FF000000FF000000FF000000FF10
:1034C000000000FF070707FEAAB6BD43225675009D
:1034D0001D4965001D4865001D4865001D4A6700BF
:1034E0001C4B69001B4D6B001A4F6D0019516F008A
:1034F00017537300165575001456780013577A0049
:1035000013597D00145B7F00145C8100155E8300FD
:10351000166085001D628400C8D7E000FFFFFF0031
:10352000FFFFFF00FFFFFF00FFFFFF00E2EAEE00EA
:10353000145D800017658C0017668E0017668F007B
:103540001668910016689200266C8E00EDF3F60066
:10355000FFFFFF00FFFFFF00FFFFFF00FFFFFF0077
:10356000AAC3CF0014689100176A940017699400E9
:10357000176993001668920016679000176790000D
:10358000549ABD00A3A6A78E000000FF000000FF14
:10359000000000FF000000FF000000FF000000FF2F
:1035A000000000FF000000FF000000FF000000FF1F
:1035B000000000FF000000FF000000FF000000FF0F
:1035C000000000FF000000FF000000FF000000FFFF
:1035D000000000FF000000FF000000FF808080A4CA
:1035E000B1C7D4017599AE007498AD007498AD0060
:1035F0007598AD007498AD007499AE007499AE00E2
:103600007499AE00739AAF00739AAF00739AB000CA
:10361000739BB000729BB100729BB100729BB100B2
:10362000729BB100739CB200749CB30082A7BB0074
:10363000EAF0F400FFFFFF00FFFFFF00FFFFFF00C5
:10364000FFFFFF00CEDBE300175C80001661870000
:103650001662880017638A0017648B00186287005F
:10366000A5BBC700FFFFFF00FFFFFF00FFFFFF003C
:10367000FFFFFF00F0F4F7002E68870017668F0049
:1036800017668E0017658E0017658D0017648C0015
:1036900017648B00176E9900ADCAD8301B1B1BFA3C
:1036A000000000FF000000FF000000FF000000FF1E
:1036B000000000FF000000FF000000FF000000FF0E
:1036C000000000FF000000FF000000FF000000FFFE
:1036D000000000FF000000FF000000FF000000FFEE
:1036E000000000FF000000FF000000FF000000FFDE
:1036F000292929EFF9F9F91AFFFFFF00FFFFFF0061
:10370000FFFFFF00FFFFFF00FFFFFF00FFFFFF00C5
:10371000FFFFFF00FFFFFF00FFFFFF00FFFFFF00B5
:10372000FFFFFF00FFFFFF00FFFFFF00FFFFFF00A5
:10373000FFFFFF00FFFFFF00FFFFFF00FFFFFF0095
:10374000FFFFFF00FFFFFF00FFFFFF00FFFFFF0085
:10375000FFFFFF00FFFFFF00FFFFFF006F99B000BA
:10376000155C8000155D8100155E8300165F840086
:10377000166085005385A100FDFEFE00FFFFFF00DF
:10378000FFFFFF00FFFFFF00FFFFFF0080A5B90064
:103790001862880017628900176288001762880023
:1037A0001661870016618600155F84006A9EB70661
:1037B0005D5D5DC5000000FF000000FF000000FF30
:1037C000000000FF000000FF000000FF000000FFFD
:1037D000000000FF000000FF000000FF000000FFED
:1037E000000000FF000000FF000000FF000000FFDD
:1037F000000000FF000000FF000000FF000000FFCD
:10380000000000FF010101FFBDBDBD6DFFFFFF0016
:10381000FFFFFF00FFFFFF00FFFFFF00FFFFFF00B4
:10382000FFFFFF00FFFFFF00FFFFFF00FFFFFF00A4
:10383000FFFFFF00FFFFFF00FFFFFF00FFFFFF0094
:10384000FFFFFF00FFFFFF00FFFFFF00FFFFFF0084
:10385000FFFFFF00FFFFFF00FFFFFF00FFFFFF0074
:10386000FFFFFF00FFFFFF00FFFFFF00FFFFFF0064
:103870009DB9C800185B7E0013587B0013597D006A
:10388000135A7E00145B7F001E628500D5E0E700BE
:10389000FFFFFF00FFFFFF00FFFFFF00FFFFFF0034
:1038A000D4E0E7001F638600155E8300155E830089
:1038B000155E8300155D8200155D8200155B7F003B
:1038C0006D91A5097E7F80A5000000FF000000FF2C
:1038D000000000FF000000FF000000FF000000FFEC
:1038E000000000FF000000FF000000FF000000FFDC
:1038F000000000FF000000FF000000FF000000FFCC
:10390000000000FF000000FF000000FF000000FFBB
:10391000000000FF000000FF000000FF646464CEB0
:10392000FFFFFF05FFFFFF00FFFFFF00FFFFFF009E
:10393000FFFFFF00FFFFFF00FFFFFF00FFFFFF0093
:10394000FFFFFF00FFFFFF00FFFFFF00FFFFFF0083
:10395000FFFFFF00FFFFFF00FFFFFF00FFFFFF0073
:10396000FFFFFF00FFFFFF00FFFFFF00FFFFFF0063
:10397000FFFFFF00FFFFFF00FFFFFF00FFFFFF0053
:10398000E1E9EE006D96AD001A5879001655760003
:10399000155678001456790014577A0016597D0090
:1039A00082A6BA00FFFFFF00FFFFFF00FEFEFE0041
:1039B000FFFFFF00FDFEFE0051849F00155B7F00AE
:1039C000155B7F00155B7F00165C7F00226486001C
:1039D0006491AA0497A7B0504A4A4AD5000000FF54
:1039E000000000FF000000FF000000FF000000FFDB
:1039F000000000FF000000FF000000FF000000FFCB
:103A0000000000FF000000FF000000FF000000FFBA
:103A1000000000FF000000FF000000FF000000FFAA
:103A2000000000FF000000FF000000FF000000FF9A
:103A3000000000FF4E4E4ED8BDBDBD5FC0C0C05996
:103A4000C0C0C059C0C0C059C0C0C059C0C0C05912
:103A5000C0C0C059C0C0C059C0C0C059C0C0C05902
:103A6000C0C0C059C0C0C059C0C0C059C0C0C059F2
:103A7000C0C0C059C0C0C059C0C0C059C0C0C059E2
:103A8000C0C0C059C0C0C059C0C0C059C0C0C059D2
:103A9000C0C0C059B5B8BA5981939D597F919C59FE
:103AA0007F919C597F919C597F919C597F919C5902
:103AB0007F919C5985969F59BBBCBD59BFBFBF59CB
:103AC000C0C0C059BFBFBF59C0C0C059BEBEBF599A
:103AD00082949E597F919C597F919C5981939D5EC0
:103AE00079848B756F7172A3323232E5010101FF67
:103AF000000000FF000000FF000000FF000000FFCA
:103B0000000000FF000000FF000000FF000000FFB9
:103B1000000000FF000000FF000000FF000000FFA9
:103B2000000000FF000000FF000000FF000000FF99
:103D7000000000FF000000FF0A1F28F725769C8541
:103D80000E2C3DE5050D14FF21688DA7000000FFF6
:103D9000091C26ED216C8F940B1D24F7000000FFF9
:103DA000000000FF000000FF000000FF000000FF17
:103DB000000000FF000000FF000000FF000000FF07
:103DC000000000FF000000FF000000FF000000FFF7
:103DD000000000FF000000FF000000FF000000FFE7
:103DE000000000FF000000FF000000FF000000FFD7
:103DF000000000FF000000FF000000FF000000FFC7
:103E0000000000FF000000FF000000FF000000FFB6
:103E1000000000FF000000FF000000FF000000FFA6
:103E2000000000FF000000FF000000FF000000FF96
:103E3000000000FF000000FF000004FF0612389E93
:103E4000000000FF000000FF000000FF000000FF76
:103E5000000000FF000000FF000000FF000000FF66
:103E6000000000FF02050DF2050D2DAF000000FF60
:103E7000000000FF000000FF000000FF000000FF46
:103E8000000000FF000000FF000000FF000000FF36
:103E9000000000FF226D9695133C54D4154056D374
:103EA000226A8F9406151BFC2986B1702987B47C81
:103EB000030A0DFF16455CBC216A8D9E2066889A18
:103EC0000C2835DF000000FF000000FF000000FFAD
:103ED000000000FF040A1CC1061234980611339A30
:103EE0000610308C030919D2050F2BA8010206F920
:103EF000000000FF040B21B3020611ED040C21B9F0
:103F000006123299061131990610328702081AE812
:103F10000613367A0611319C06113194050F2C9A3E
:103F20000612329D06102C9F010102FF04091BC5D9
:103F30000611329906123399040B20BB010208FCCA
:103F40000612357A0612339A0612338F020713DBF4
:103F5000040B28C0091A4E3D061030B002050DE4CE
:103F6000061131950611319D050F2BA0010205FBAD
:103F700002050EDE061131930611319D0613368FB0
:103F800006123F7C000000FF000000FF000000FF61
:103F9000000000FF000000FF000000FF000000FF25
:103FA000000000FF000000FF000000FF226D96955A
:103FB000133C54D4000000FF3296C46E000000FF92
:103FC000174B64AF164C67BF123648CB2C90BF5DC1
:103FD00019536EAE1C5F7CAC33A2D75107141AFD87
:103FE000000000FF000000FF020611E707143D7704
:103FF000010102FF000101FF06103194050C24B5F8
:1040000007163E70010309F4000000FF06102F831D
:10401000061336B806113185000101FF000102FFC9
:104020000613376D030B25D908164063000001FF06
:10403000030A1CC0050E2B93000000FF06123488F3
:10404000040E2AC309194B4405102FA205102EA2F5
:1040500008194950030D27D707163F5C000001FFE0
:1040600001030BF907174967000005FF08184C61A9
:10407000000102FF08194B4C0612359D05102DA2B8
:10408000071640780511359808184762010206FCAA
:10409000000000FF03091ED206123F7B000000FF54
:1040A000000000FF000000FF000000FF000000FF14
:1040B000000000FF000000FF000000FF000000FF04
:1040C000030B0EFC257AA584184F6CC1061218F15B
:1040D000339AC96207161DF21C5C7A9C1C6080AB87
:1040E0000B2431E1277EA8750D2937E211394ACE1C
:1040F000216C8FAE03080BFF2578A0811A536FAA9D
:10410000010308F60715406A020714D8020612E1F7
:1041100007163E5E040D24B506123591040C22B735
:10412000020611E60816444A050E29CE0815406A13
:10413000020713DD030714D808174440030C25D9E0
:1041400007143D6C000000FF030918C9040C249BF0
:10415000000000FF05103192040C25CA07174167C3
:10416000030818D4030818DA07153C88020616F568
:1041700006133A6B000000FF000008FF07194966AC
:10418000000005FF08184C61000001FF07143B7F89
:10419000040D25B9030713E407123693030B1DDD45
:1041A00007143F7A040B1EC302060FEA0611329170
:1041B00006123F7A000000FF000000FF000000FF31
:1041C000000000FF000000FF000000FF000000FFF3
:1041D000000000FF000000FF061218F7133E52BF58
:1041E000133D51CB0C2632E0133D51BF0E2D3CE167
:1041F000133E51C2133E52C4020608FF091E27F1A6
:1042000016485FB8144054C5040C10FD010102FFAC
:10421000134055CB0D2A38DF000000FF010207F9DB
:10422000030B20BF040B21B9030816DF02050DEDB7
:10423000010103FE030A1DC8040C22B503091BD5A6
:10424000020714F50716437B0510309F050F2EA9B2
:104250000818475E010512F3030816DA000000FF94
:10426000010309F202050DE6000000FF020612E458
:1042700002040BF4010307F9040B20BE040B21BB5D
:10428000010309F5000204FE030715DA000000FF30
:10429000000004FF03091BD9000003FF03091CD71A
:1042A000000000FF000101FF03091ACF040C22B334
:1042B000020610E7000000FF010102FE03091ECD07
:1042C000040C22B3030717E1020718DE000000FF09
:1042D000000000FF000000FF000000FF000000FFE2
:1042E000000000FF000000FF000000FF000000FFD2
:1042F000000000FF000000FF000000FF000000FFC2
:10430000000000FF000000FF000000FF000000FFB1
:10431000000000FF000000FF000000FF000000FFA1
:10432000000000FF000000FF000000FF000000FF91
:10433000000000FF000000FF000000FF000000FF81
:10434000000000FF000000FF000000FF000000FF71
:10435000000000FF000000FF000000FF01040BF35D
:10436000040A1EB4040A1FB102040CEE000000FF90
:10437000000000FF000000FF000000FF000000FF41
:10438000000000FF000000FF000000FF000000FF31
:10439000000000FF000000FF000000FF000000FF21
:1043A000000000FF000000FF000000FF000000FF11
:10462000000000FF000000FF4600230018012000EA
:10463000E01F00080000000098C001080000000012
:10464000111111002222220033333300444444006C
:10465000555555006666660077777700888888002C
:1046600099999900AAAAAA00BBBBBB00CCCCCC00EC
:10467000DDDDDD00EEEEEE00FFFFFF0010000000CC
:10468000000000003C460008444444444444443391
:1046900033334444444444455555544443333333FD
:1046A00032222222222220444344444443333333DF
:1046B00033344444433455555544444443333332EE
:1046C00022222222222044333344443333333333EF
:1046D0003333333344544554544444433333322204
:1046E00022222222204433333343333333333322E1
:1046F0002233324544443334444444333332222257
:1047000022222220433333334333333333322111D4
:10471000233235543233333444333333322222227A
:104720002222203333333333333333332112101205
:10473000323444313423343443333332222222227C
:1047400022203333333333333333331122100234E3
:10475000444333433333443333333222222222223D
:104760002043333333333333333210111001335496
:104770005533323444433322333222222222222040
:104780004333333333333333211220011233444460
:10479000444444343333223333222222222220332E
:1047A00033333333333332114752122334445555A4
:1047B00055544333343233332222222222203333DE
:1047C00033333333332214665443334345576787B7
:1047D00055443223433333222222222220333333DF
:1047E000333333332236664356555457889ABA8644
:1047F00065432344333322222222222033333333AE
:10480000333332234434454678789AABCDDCBA98BA
:10481000764343233332222222222033333333336D
:10482000332233455445668ABBCDCDDDEDDDCCBAB0
:104830008444233332222222222033332222333370
:10484000233445654578AABBCDDDDEEEDDDDDCA792
:1048500044323332222222222033322222333323A3
:104860004545433689AABCCCDEEEEEEEDDDCCA550A
:104870004333322222222220333222223333334462
:10488000454456889AABBDDEEEEEEEEEDDCA7563AA
:104890002333222222222033222222233333323591
:1048A000445778999ABCEEEEEEEEEEDCCB955523AC
:1048B0003222222222203322222223221234544462
:1048C0006778899AACDEEEEEEEEEDDCB97454232AC
:1048D00022222222203332222222223335543377DD
:1048E00068899ABCDEEEFFEEEDDCBBA745532222C1
:1048F00022222220332222222102313343346667CE
:1049000089AABCDEEEFFEEEDDCCBA84554222222C4
:104910002222203322222221022232456576678913
:104920009ABBDEFEEFFEEDDCCBA9545432222222EC
:104930002220322222222001221246867677899B6B
:10494000CDEEFFFFFEFEEDCBA973343222222222F0
:104950002022222222211011123565666788AAAA18
:10496000BCEFFFFEFEEEDBB96433221222222220CE
:10497000222222222210000254445566897656795A
:10498000CEFEFEEEDDDCB96341122222222220227D
:10499000222222220000113233456687766567ADF8
:1049A000EEEDDCAAABBA63320122222222202222BF
:1049B00022222200000121434665779998668BCE1A
:1049C000EDC96557AA733211122222222022222217
:1049D0002222100001432246655898997669CDDC61
:1049E0009755689A834211122222222022222222E3
:1049F00022100000232357756778AA8667BEDA87DE
:104A000089799A8331001222222220222222222214
:104A1000100000123467767755564666AEC9789A0C
:104A2000989994310012222222202222222222103E
:104A3000000112446878753874A986BECA89853623
:104A40009A942000122222222022222222221000C6
:104A500000124467887659BBCDA8BDCCCDB5669A07
:104A6000940011222222222022222222222100012D
:104A7000012357898878AABDA9ADCDCCCA979B934D
:104A8000001122222222202222222222210013107F
:104A900013478ABA9ABDEDB9ADCCDBAA9ABB8200A6
:104AA0001222222222202222222222210015201339
:104AB000468ABBBCDEECA9ACDCDDCBBCCC810012F1
:104AC00022222222202222222222110017411335E3
:104AD0008ABCCDEEECAAACDCCDDDCDCB72101222BF
:104AE0002222222022222222221100176223347A3B
:104AF000BCDEEEECA9ACDCCEEDDDDA6200122222E7
:104B0000222220222222222111000663233469ACB2
:104B1000DEEEEC96ACDDCDEEDDCA41012222222292
:104B20002220222222222111000454233469ABCDF9
:104B3000DEDB86ADEDCDEEDDC9311222222222224E
:104B400020222222222111000265233468ABBDDE1F
:104B5000DA978CFECDEEDDC93122222222222220DC
:104B60002222222211111001662234689ABDDDC86A
:104B7000765ADCBDEDDDC8332222222222222022F9
:104B800022222111111001562234789ABCDDD7421D
:104B900037A98DDDDDB733222222222222202222D4
:104BA000222111111100352234789ABCDDDA421429
:104BB000559DDDDCB74322222222222220222222FE
:104BC0001111111100010124689ABCDDCA53345639
:104BD000BDDDDCB743222222222222202222221102
:104BE00011111110000123689ABCB9963454548BEA
:104BF000CDDCA533222222222222202222211111C1
:104C0000111111000024579ABB8653234343478B4D
:104C1000CC9532222222222222202221111111118E
:104C200011110000245689AA43332244433448BB5F
:104C3000743222222222222220211111111111105C
:104C4000000000136678A932221246422347BA5365
:104C500022222222222222201111111111100000E1
:104C600000000256689832334667523237A7322224
:104C700022222222222220110111111111000000F2
:104C80000001456688456679AA97643895222222F4
:104C900022222222222011112222222100000001A0
:104CA00000355577677876779AA87A832222222270
:104CB000222222222022223333332100011013002A
:104CC00014545667898AA9ABBA99632222222222F8
:104CD0002222222022233344433111112024411265
:104CE00044466788BEEEEDCBA85222222222222221
:104CF00022222033334444432111223125542233CC
:104D0000465679CEFFFFEEDB832222222222222288
:104D10002220333444444322122331256643223473
:104D2000557BCCDEEEEEEDB622222222222222227A
:104D300020444444444332222341057764222335EE
:104D40009BBAABCDDDDDCA422222222222222220C2
:104D5000444444444332223342037776422226AA13
:104D6000AACDDEEEEEDC9422222222222222204450
:104D700044444433322233420168788321169ACC6A
:104D8000DEEEEEEFEEC9322222222222222044441D
:104D90004444333222334310378AB711157CDDDEA9
:104DA000EDCDEFFEEC832222222222222044444435
:104DB00043332232234651158CDA40136BCBBCCBE4
:104DC000CDEEEEEEC732222222222220444444338A
:104DD0003322322348A3027EEC71225A999BCDDD07
:104DE000EEEEEEEC632222222222204444443332AF
:104DF00023322348E8117EEC9312699ABCDDDDEF83
:104E0000EEEEEEC5322222222220444443223222F8
:104E1000222347FC519FECA61158BBCDDDCDDEEE21
:104E2000EEEEEB432222222220444333212322228E
:104E30002347FEA4AEDC971137BBCCBBCDEEEEEF23
:104E4000FEED9322222222204443333022222322C9
:104E500046FFE9798864102588ABCCDEEFFEEEEFE3
:104E6000EED832222222204333333112222223452C
:104E7000EFFE72110000137ABBCCDEEFFEEEEEFE09
:104E8000EC8322222220433323311222233345EFA5
:104E9000FFC4110000026AAABCCDDEEEEEEEEFED1B
:104EA000C832222220333333323222233345DFFF0C
:104EB000E710000001389999ABCDDEEEEEEFEEDCA5
:104EC00073222220333333233222333345CFFFF989
:104ED0002000000025754247ABCDDEEEEFFEEDB6BB
:104EE000222220333322333223333444BFFFFA41AA
:104EF0000000013474100379BCDDEEEEFFEECA420F
:104F00002220333323333333334444AFFFFC510087
:104F1000000323775200158BCDEEEEEFFEDC8333DA
:104F2000303332233333333334449FFFFD83000067
:104F300003104775100147BCDDEEEFFFEDB53320E0
:104F40002232133333333334448FFFFEB410001254
:104F50000001220000147ACDDEEEEFFED8333022BD
:104F600022023333333334447FFFFFC51100210065
:104F7000000000000147ABCDEEEFFFEB3330222203
:104F8000023332323334446EFFFFE6220031000038
:104F9000000000001368ABDDEEFFED33302222117C
:104FA0003332223333445EFFFFE63210300000001C
:104FB000000000223589BCDEEFFD34402222103390
:104FC00033222334445EFFFFC4321230000000005D
:104FD0000000222247ACDEEFEC24401122202333D4
:104FE000222334444DFFFD523323200000000000F3
:104FF000002232137ACDEEEA24401112211333221B
:105000002334444CFFE7333333100000000000002A
:1050100012231159CDEEE82440001121023322233E
:1050200033444BFFB543443100110000000000122F
:1050300022125ACDEEEB243000011211222112333C
:10504000343AFE7544433101211000000000011183
:105050000579BDDEFB23300001111022111223342B
:1050600038FB5544443102211000000000000002CA
:1050700099BDEFE9333000001000121111223436CF
:10508000D7544444312321100000000000000047A1
:10509000ADEFD6433000001000011111123335A5D9
:1050A0004444443123211000000000000000337C00
:1050B000EDC4333010000000011111122334644498
:1050C00044432132211000000000000000135BDD8A
:1050D0008233302000010000110001233344444496
:1050E0004322221111000000000000000347DC6190
:1050F00033301000000000100001122344444443E8
:10510000122111111000000000000001248741232A
:10511000200000000000000000122344444432122A
:1051200021111110000000000000000001321310D6
:10513000000000000000000012223444443122111B
:105140000111110000000000000000002302100007
:10515000000000000000000122344443212111001E
:1051600011110000000000000000001312000000F8
:1051700000000000000001213565331221011111EA
:1051800021000000000000000000022120000000BB
:10519000000000000001112125421210011111210F
:1051A000000000000000000000023120FFFFFF00AF
:1051B00000000000FF000000CCCCFF000400000055
:1051C00000000000AC5100083800070198000901F8
:1051D00096000A0195000C0194000C0193000D014A
:1051E00093000D0192000E0192000E0192000E013B
:1051F00091000E0192000E0192000E0192000D012D
:1052000092000E0192000D0193000D0193000C011C
:1052100094000C0194000C0193000C0194000C010B
:1052200094000B0195000B0195000B0195000A01FC
:1052300096000A0196000A019600090198000801EB
:1052400098000801980008019800080198000801DA
:1052500098000801990007019900070199000701CA
:10526000990007019A0006019A0007019A000601B9
:105270009A0007019A0006019A00070131000A010D
:105280005F0006012E000E015F0006012B001101D8
:105290005E00070128001401360013011500060105
:1052A000040006011D00160131001B011200060159
:1052B000010009011A0018012E002001110010013F
:1052C00018001A012B0024010F00110116001B0108
:1052D000280029010E0010011500100105000C0125
:1052E00022002C010A0012011400100107000D0118
:1052F0001F002E010800140112000F010800100108
:105300001C0031010500150103001E0106001201F9
:105310001B001C010C000B010300360106001401E8
:105320001A001901120009010002003501050017D9
:10533000011900170116003D01050018011900159B
:10534000011A003A0104001B01180013011D003B63
:105350000101001D011700110121001E0104033588
:105360000117000F0124001C010503260101000E96
:105370000118000C0126001B010603090105021794
:10538000010002000F011900070129001B0106039B
:1053900008010B02110104000E0148001C01060364
:1053A00006010F020E0106000D0148001C01060354
:1053B000060111020C0107000D0106000002113F59
:1053C000001C01050306010B0200021106020A017E
:1053D00009000D01040004013E0026010A02060135
:1053E000060207010C000C01030004013E00260127
:1053F00009020801060207010D000B010100060168
:105400003D00250109020A01060206010A001501F4
:105410003D00250108020C010602060107001701E4
:105420003D00250108020C010702060105001901D3
:105430003C00240108020E01070206010002001BC5
:10544000013C00250107020E010702060101001CB4
:10545000013E000D010403120108020D01080221A2
:1054600001440007010603120107020D010902139E
:105470000103000901450007010603130107020C9F
:105480000109021101060008014500070106031485
:105490000107020B010A020F01080007014500077E
:1054A0000105030D010102080107020A010A020EAB
:1054B000010A00060145000701050308010802076B
:1054C00001080207010C020C010B00070143000850
:1054D00001040306010D02070119020B010D00066C
:1054E0000143001001100207011002050104020926
:1054F000010E00070106000002113A000E0113021E
:1055000007010D020801030209010F000701040051
:1055100003013A000D0107020701070207010B0210
:105520000A01030207011000070104000401390009
:105530000C01070209010802060109020B0103021E
:105540000601120008010100060138000C010602E4
:105550000A010902060108020C01030205011200FA
:105560000F0138000B0106020C01090207010502B8
:105570000D010302050113000E0138000B010602A4
:105580000C010A02070104020D01030206011200C8
:105590000E0138000A0107020D010A020701040288
:1055A0000C010402050113000D0138000A01070275
:1055B0000D010B02070103020C0104020501140096
:1055C0000C0137000A0108020D010B02070103025A
:1055D0000C010402050115000B0135000C01080245
:1055E0000D010C02070103020B0104020501170063
:1055F000080134000E0109020C010D02070103022B
:105600000A01050204011900040134000F010B0214
:105610000B010E02060104020801060205014F00FB
:1056200010010C020A010F02060104020701060222
:1056300005014D0012010E020701100207010502CB
:105640000401070205014C001301100204011202BB
:105650000601100205014B0014011C0205010502A0
:1056600007010F0205014A0015011B02080104028F
:1056700007010E020501490016011A02090105027F
:1056800006010E0205014800170119020B01040270
:1056900007010D020501470019010F020002110662
:1056A000020C01050206010D02050147000F01056C
:1056B0000005010C02070104020D01040207010CA0
:1056C00002050146000D01080005010B0209010356
:1056D000020D01040207010C02040147000A010B3C
:1056E00000060109020B010002220D01050207015B
:1056F0000A020501470009010D00050109020B011D
:105700000002220D01050207010A020501470008F7
:10571000010E00060107020D010002220C01050224
:10572000080108020601470008010F0006010602F1
:105730000D0103020B0106020701080206014700E2
:1057400007011100050106020D0104020A0106020B
:10575000080106020601480007010F0008010502C2
:105760000D010502090106020801050207014800B2
:1057700008010C000B0105020D01060206010702DB
:10578000090103020801490007010B000D01040291
:105790000D011302090100022208014A0008010854
:1057A00000100104020B01140213014B0008010652
:1057B00000120105020901140212014D0007010542
:1057C00000140105020801150211014D0008010332
:1057D00000160107020301170210014F0008010122
:1057E00000180120021001500023011C0210015278
:1057F000001901010008011C020601010008015402
:10580000001301070009011A0205010400050156F1
:10581000000F010B000A01180205010500040156E2
:10582000000D010D000C011502060160000A010EB9
:10583000000E01140207015F0009010E0013010EA2
:10584000020901600008010C00190107020C015F48
:105850000008010C002D015D000A010C002C015C08
:10586000000D010A002C015D000D01090012010468
:1058700000140161000D0108000D010E000A01660F
:10588000000D0107000B0182000D0106000A0184D2
:10589000000D010500090186000D01040008018DBD
:1058A000000801030007018F000801000200070142
:1058B00090000801010007019100070101000801A3
:1058C0009000080101000701910007010100080193
:1058D0009000070100020008019000060103000883
:1058E000018E000701040008018B000A0104000872
:1058F0000188000C010500080187000B0107000763
:105900000188000A010700080187000A0108000752
:10591000018800090109000701880007010A000742
:1059200001890005010C0006019A00060199000892
:105930000194000C0194000C0194000B0196000AE4
:105940000196000A01970008019900060151000024
:10595000A000A10028000000C8510008BC510008A8
:105960008CC00108000000000000000000000000E2
:105970000000000000000000000000000000000027
:105980000000000000000000000000000000000017
:105990000000000000008001800180018001800182
:1059A00080018001800180018001800180018001EF
:1059B00000000000800180010000000000000000E5
:1059C0000000000000000000CC00CC00CC00CC00A7
:1059D000CC00CC000000000000000000000000002F
:1059E00000000000000000000000000000000000B7
:1059F00000000000000000000000000000000000A7
:105A0000600C600C600C30063006FE1FFE1F300676
:105A100038071803FE1FFE1F180318038C018C01A2
:105A20008C01000000008000E003F80F9C0E8C1C2D
:105A30008C188C009800F801E007800E801C8C18F0
:105A40008C189C18B80CF00FE00380008000000058
:105A5000000000000000000000000E181B0C110CDC
:105A600011061106110311039B018E01C038C06C91
:105A700060446044304430441844186C0C380000D2
:105A8000000000000000E001F003380718061806C7
:105A90003003F001F000F8009C310E33061E061CA6
:105AA000061C063FFC73F02100000000000000000F
:105AB00000000000000000000C000C000C000C00B6
:105AC0000C000C00000000000000000000000000BE
:105AD00000000000000000000000000000000000C6
:105AE000000000000000000200038001C000C000B0
:105AF00060006000300030003000300030003000C6
:105B00003000300060006000C000C0008001000371
:105B100000020000000020006000C0008001800141
:105B2000000300030006000600060006000600064B
:105B3000000600060003000380018001C000600031
:105B40002000000000000000000000000000000035
:105B5000C000C000D806F807E00130033807000095
:105B60000000000000000000000000000000000035
:105B70000000000000000000000000000000000025
:105B800080018001800180018001FC3FFC3F800199
:105B90008001800180018001000000000000000001
:105BA00000000000000000000000000000000000F5
:105BB00000000000000000000000000000000000E5
:105BC0000000000000008001800100010001800051
:105BD00000000000000000000000000000000000C5
:105BE000000000000000000000000000E007E007E7
:105BF00000000000000000000000000000000000A5
:105C00000000000000000000000000000000000094
:105C10000000000000000000000000000000000084
:105C2000000000000000C000C000000000000000F4
:105C3000000000000000000C000C0006000600063A
:105C40000003000300038003800180018001C00085
:105C5000C000C00060006000000000000000000004
:105C6000000000000000E003F007380E180C0C18CC
:105C70000C180C180C180C180C180C180C180C1804
:105C8000180C380EF007E0030000000000000000D0
:105C900000000000000000018001C001F001980137
:105CA00088018001800180018001800180018001E4
:105CB00080018001800180010000000000000000E0
:105CC000000000000000E003F80F180C0C180C187E
:105CD00000180018000C000600038001C0006000DE
:105CE00030001800FC1FFC1F000000000000000036
:105CF000000000000000E001F807180E0C0C0C0C6E
:105D0000000C0006C003C007000C001800180C1897
:105D10000C18180CF807E003000000000000000059
:105D2000000000000000000C000E000F000F800DAE
:105D3000C00C600C600C300C180C0C0CFC3FFC3FD1
:105D4000000C000C000C000C000000000000000023
:105D5000000000000000F80FF80F180018000C00F9
:105D6000EC03FC071C0E001C0018001800180C188F
:105D70001C0C180EF807E0030000000000000000F3
:105D8000000000000000C007F00F381C18181800B1
:105D90000C00CC03EC0F3C0E1C1C0C180C180C183F
:105DA000181C380EF007E00300000000000000009F
:105DB000000000000000FC1FFC1F000C0006000695
:105DC000000380038001C001C000E00060006000AB
:105DD00070003000300030000000000000000000C3
:105DE000000000000000E003F007380E180C180C4B
:105DF000180C3806F007F007180C0C180C180C18C3
:105E00000C18380CF80FE003000000000000000040
:105E1000000000000000E003F007380E1C0C0C1816
:105E20000C180C181C1C381EF81BE0190018000C6C
:105E3000000C1C0EF807F00100000000000000003C
:105E40000000000000000000000000000000000052
:105E50008001800100000000000000000000000040
:105E60000000000080018001000000000000000030
:105E70000000000000000000000000000000000022
:105E80008001800100000000000000000000000010
:105E9000000000008001800100010001800000007E
:105EA00000000000000000000000000000000000F2
:105EB000000000000010001C800FE003F800180034
:105EC000F800E003800F001C00100000000000003C
:105ED00000000000000000000000000000000000C2
:105EE00000000000F81F000000000000F81F000084
:105EF00000000000000000000000000000000000A2
:105F00000000000000000000000000000000000091
:105F10000000000008003800F001C007001F001852
:105F2000001FC007F001380008000000000000005A
:105F3000000000000000E003F80F180C0C180C180B
:105F40000018000C000600038001C000C000C00063
:105F500000000000C000C0000000000000000000C1
:105F60000000000000000000E00718180420C2290B
:105F7000224A114409440944094409221113E20C3C
:105F8000024004201818E007000000000000000094
:105F900000000000000080038003C006C006C006A9
:105FA000600C600C301830183018F83FF83F1C7047
:105FB0000C600C6006C006C000000000000000007D
:105FC000000000000000FC03FC0F0C0C0C180C1867
:105FD0000C180C0CFC07FC0F0C180C300C300C309F
:105FE0000C300C18FC1FFC07000000000000000033
:105FF000000000000000C007F01F38381C300C7093
:1060000006600600060006000600060006000660A0
:106010000C701C30F01FE0070000000000000000C2
:10602000000000000000FE03FE0F060E0618061812
:1060300006300630063006300630063006300618C8
:106040000618060EFE0FFE03000000000000000010
:10605000000000000000FC3FFC3F0C000C000C00A6
:106060000C000C00FC1FFC1F0C000C000C000C00B2
:106070000C000C00FC3FFC3F000000000000000092
:10608000000000000000F83FF83F1800180018005A
:1060900018001800F81FF81F180018001800180042
:1060A0001800180018001800000000000000000090
:1060B000000000000000E00FF83F3C780E6006E0B2
:1060C00007C00300030003FE03FE03C007C006C0B1
:1060D0000EC03CF0F83FE00F0000000000000000A0
:1060E0000000000000000C300C300C300C300C3084
:1060F0000C300C30FC3FFC3F0C300C300C300C30C2
:106100000C300C300C300C3000000000000000009F
:1061100000000000000080018001800180018001FA
:106120008001800180018001800180018001800167
:10613000800180018001800100000000000000005B
:106140000000000000000006000600060006000631
:1061500000060006000600060006000600061806F7
:1061600018063807F003E0010000000000000000FE
:1061700000000000000006300618060C06060603A4
:106180008601C60066007600DE008E010603060664
:10619000060C061806300660000000000000000033
:1061A0000000000000001800180018001800180077
:1061B000180018001800180018001800180018001F
:1061C00018001800F81FF81F000000000000000071
:1061D0000000000000000EE01EF01EF01EF036D899
:1061E00036D836D836D866CC66CC66CCC6C6C6C6D7
:1061F000C6C6C6C686C386C30000000000000000F5
:106200000000000000000C301C303C303C306C3092
:106210006C30CC30CC308C310C330C330C360C362B
:106220000C3C0C3C0C380C3000000000000000005E
:10623000000000000000E007F81F1C380E70066028
:1062400003C003C003C003C003C003C003C0066093
:106250000E701C38F81FE00700000000000000006E
:10626000000000000000FC0FFC1F0C380C300C304C
:106270000C300C300C18FC1FFC070C000C000C0040
:106280000C000C000C000C000000000000000000DE
:10629000000000000000E007F81F1C380E700660C8
:1062A00003E003C003C003C003C003C007E00663EC
:1062B0000E3F1C3CF83FE0F700C00000000000006B
:1062C000000000000000FE0FFE1F063806300630FA
:1062D00006300638FE1FFE0706030606060C0618E3
