:020000040800F2
:10000000C8D802207D300B0891280B0893280B08D4
:1000100095280B0897280B0899280B08000000006A
:100020000000000000000000000000000BD30808E2
:100030009B280B0800000000ADD20808A1280B087F
:1000400001310B0805310B0809310B080D310B0884
:1000500011310B0815310B0819310B081D310B0834
:1000600021310B0825310B0829310B082D310B08E4
:1000700031310B0835310B0839310B083D310B0894
:1000800041310B0845310B0849310B084D310B0844
:1000900051310B0855310B0859310B085D310B08F4
:1000A00061310B0865310B0869310B086D310B08A4
:1000B00071310B0875310B0879310B087D310B0854
:1000C00081310B0885310B0889310B088D310B0804
:1000D00091310B0895310B0899310B089D310B08B4
:1000E000D1280B08A5310B08A9310B08AD310B083D
:1000F000B1310B08B5310B08B9310B08BD310B0814
:10010000C1310B08C5310B08C9310B08CD310B08C3
:10011000D1310B08D5310B08D9310B08DD310B0873
:10012000E1310B08E5310B08E9310B08ED310B0823
:10013000F1310B08A5280B08F9310B08FD310B082C
:1001400001320B0805320B0809320B080D320B087F
:1001500011320B0815320B0819320B081D320B082F
:1001600021320B0825320B0829320B082D320B08DF
:1001700031320B0835320B0839320B083D320B088F
:1001800041320B0845320B0849320B084D320B083F
:1001900051320B0855320B0859320B085D320B08EF
:1001A0000B290B0865320B0869320B0842726F7716
:1001B00073657200557365207468652062726F778D
:1001C00073657220746F206578706C6F726520742F
:1001D0006865207777770000436C6F636B000000E1
:1001E00041646A7573742063757272656E742074ED
:1001F000696D6520616E64206461746500000000B3
:1002000044617465000000005573652074686520C2
:100210006469617279000000456D61696C000000DD
:100220005265616420616E20656D61696C0000003B
:1002300053797374656D00004368616E6765207360
:10024000797374656D2073657474696E67730000EB
:1002500052656164000000005265616420612064A1
:100260006F63756D656E7400577269746500000088
:10027000577269746520616E20656D61696C00005C
:1002800050617373776F7264000000004465746599
:10029000726D696E65207468652073797374656D1D
:1002A0002070617373776F72640000004E6574771D
:1002B0006F726B0053656C656374206E6574776F45
:1002C000726B0000FFFFFFFFFFFFFFFFFFFFFFFF5D
:1002D000FFFFFFFFFFFFFFFFFFFFFFFFFFFFFFFF2E
:1002E000FFFFFFFFFFFFFFFFFFFFFFFFFFFFFFFF1E
:1002F000FFFFFFFFFFFFFFFFFFFFFFFFFFFFFFFF0E
:10030000FFFFFFFFFFFFFFFFFFFFFFFFFFFFFFFFFD
:10031000FFFFFFFFFFFFFFFFFFFFFFFFFFFFFFFFED
:10032000FFFFFFFFFFFFFFFFFFFFFFFFFFFFFFFFDD
:10033000FFFFFFFFFFFFFFFFFFFFFFFFFFFFFFFFCD
:10034000FFFFFFFFFFFFFFFFFFFFFFFFFFFFFFFFBD
:10035000FFFFFFFFFFFFFFFFFFFFFFFFFFFFFFFFAD
:10036000FFFFFFFFFFFFFFFFFFFFFFFFFFFFFFFF9D
:10037000FFFFFFFFFFFFFFFFFFFFFFFFFFFFFFFF8D
:10038000FFFFFFFFFFFFFFFFFFFFFFFFFFFFFFFF7D
:10039000FFFFFFFFFFFFFFFFFFFFFFFFFFFFFFFF6D
:1003A000FFFFFFFFFFFFFFFFFFFFFFFFFFFFFFFF5D
:1003B000FFFFFFFFFFFFFFFFFFFFFFFFFFFFFFFF4D
:1003C000FFFFFFFFFFFFFFFFFFFFFFFFFFFFFFFF3D
:1003D000FFFFFFFFFFFFFFFFFFFFFFFFFFFFFFFF2D
:1003E000FFFFFFFFFFFFFFFFFFFFFFFFFFFFFFFF1D
:1003F000FFFFFFFFFFFFFFFFFFFFFFFFFFFFFFFF0D
:10040000FFFFFFFFFFFFFFFFFFFFFFFFFFFFFFFFFC
:10041000FFFFFFFFFFFFFFFFFFFFFFFFFFFFFFFFEC
:10042000FFFFFFFFFFFFFFFFFFFFFFFFFFFFFFFFDC
:10043000FFFFFFFFFFFFFFFFFFFFFFFFFFFFFFFFCC
:10044000FFFFFFFFFFFFFFFFFFFFFFFF000000FFB9
:10045000000000FF000000FF000000FF000000FFA0
:10046000000000FF000000FF000000FF000000FF90
:10047000000000FF000000FF000000FF000000FF80
:10048000000000FF000000FF001093FA000D8CCE6A
:10049000000B889B00088870000B8A4B0012912E7D
:1004A00000169324001694240016922A00118B4003
:1004B000000F86620012828900147AB600135DE88C
:1004C000000000FB000000FF000000FF000000FF34
:1004D000000000FF000000FF000000FF000000FF20
:1004E000000000FF000000FF000000FF000000FF10
:1004F000000000FF000000FF000000FF000000FF00
:10050000000000FFFFFFFFFFFFFFFFFF000000FFF5
:10051000000000FF000000FF000000FF000000FFDF
:10052000000000FF000000FF000000FF000000FFCF
:10053000000000FF000000FF000000FF000000FFBF
:10054000000C8DDA0006898B0010902E10239C057C
:100550002B46B1004866C2006181D000789ADE0067
:1005600081A4E30081A5E2007B9EE0006387D400C4
:100570004B6FC7002F53B8001535A50203209619FD
:100580000013806600146EB9000000F5000000FD45
:10059000000000FF000000FF000000FF000000FF5F
:1005A000000000FF000000FF000000FF000000FF4F
:1005B000000000FF000000FF000000FF000000FF3F
:1005C000000000FFFFFFFFFFFFFFFFFF000000FF35
:1005D000000000FF000000FF000000FF000000FF1F
:1005E000000000FF000000FF000000FF000000FF0F
:1005F000000000FF000000FF000A8ACD00038A58B7
:100600000A16970E445EBD007FA3E200A8CEF70055
:10061000CCE7FF00E8F9FF00F4FFFF00F7FFFF0061
:10062000F9FFFF00FAFFFF00F5FFFF00F0FEFF00FB
:10063000E5F8FF00C9E6FF00A3CFFA0082ADEA00AB
:100640005278CC001333A30400188B33001873992D
:10065000000000EF000000FC000000FF000000FFB1
:10066000000000FF000000FF000000FF000000FF8E
:10067000000000FF000000FF000000FF000000FF7E
:10068000000000FFFFFFFFFFFFFFFFFF000000FF74
:10069000000000FF000000FF000000FF000000FF5E
:1006A000000000FF000000FF000000FF000000FF4E
:1006B000000991F80002897F060F920D4A63C0007D
:1006C0008DB7EE00C0E6FF00E6F8FF00F6FDFF0084
:1006D000FCFFFB00FFFFFE00F8FBF400F6FAF3005E
:1006E000FCFDFB00FFFEFF00FDFEFD00FFFEFD0028
:1006F000FFFFFD00FCFEFB00F1F9FD00DDF2FF0055
:10070000B5E2FF008DBFF5005C82D2001333A50176
:1007100000178143001249C5000000F5000000FEEB
:10072000000000FF000000FF000000FF000000FFCD
:10073000000000FF000000FF000000FF000000FFBD
:10074000000000FFFFFFFFFFFFFFFFFF000000FFB3
:10075000000000FF000000FF000000FF000000FF9D
:10076000000000FF000000FF000000FF000689C736
:1007700000028A3C3243AF0081A9E900B6E2FF00E3
:10078000D8EFFC00F3F9FA00FFFFFF00F3F7F300E6
:10079000F3F8F400EEF5EE00EFF5EF00F7FAF900EC
:1007A000F4F8F600FCFEFF00FBFDFF00F5FAF9008F
:1007B000F2F8F400EDF4EC00EEF5EC00F4F7EF00E5
:1007C000EEF5F400CDE9FE00A8DBFF0083B8F300EE
:1007D000486DC3000324941500176B85000000EBDF
:1007E000000000FB000000FF000000FF000000FF11
:1007F000000000FF000000FF000000FF000000FFFD
:10080000000000FFFFFFFFFFFFFFFFFF000000FFF2
:10081000000000FF000000FF000000FF000000FFDC
:10082000000000FF000000FF000389B4070B9014D4
:100830005C76CC009ED3FF00B9E2FD00E3F0EC0053
:10084000E9F2E400EAF3EC00E9F2EB00EBF3ED008F
:10085000FAFDFF00F3F8F600FCFEFF00FCFEFF00CF
:10086000F4F8F600F2F9F500E8F2E900E4EFE4004C
:10087000E4EFE400E4EFE400E4EFE400E3EFE3009E
:10088000E5F0E300EBF3E500E2EFF000A8D8FD00AF
:100890008FCEFF00739DE0001336A5010018706233
:1008A000000000E1000000FA000000FF000000FF6F
:1008B000000000FF000000FF000000FF000000FF3C
:1008C000000000FFFFFFFFFFFFFFFFFF000000FF32
:1008D000000000FF000000FF000000FF000000FF1C
:1008E000000000FF000288B80A0E91096D8CD90043
:1008F0009AD7FF00B3DAF100E0EDDD00DEEBDB00BC
:10090000DCEADC00DBEADB00DAE9DA00E0ECE1005B
:10091000E9F2EC00EDF5F000EFF6F100F3F8F50088
:10092000E7F1E800DCEADC00DBEADB00DCEADC0023
:10093000DCEADC00DCEBDC00DCEBDC00DCEBDC002C
:10094000DCEADC00DCEADC00DFEBDB00E2EEDF000F
:10095000A5D2F0007FC7FD0080AEEF001A3FAA00CD
:1009600000186C5C000000DE000000FA000000FFD0
:10097000000000FF000000FF000000FF000000FF7B
:10098000000000FFFFFFFFFFFFFFFFFF000000FF71
:10099000000000FF000000FF000000FF000000FF5B
:1009A000000188B4080C900B7EA1E80089CCF80007
:1009B000AED5D900D9E8D300D5E6D400D4E6D4002A
:1009C000D4E6D400D4E6D400D4E6D400D1E4D000F8
:1009D000D4E6D300D5E6D500D4E6D400E5F0E600B1
:1009E000DAEADA00D3E5D200D4E6D400D4E6D400C3
:1009F000D4E6D400D4E6D400D4E6D400D4E6D400BF
:100A0000D4E6D400D4E6D400D4E6D400D5E6D300AE
:100A1000DBE9D4009DC9BF0063B2D5008BBCFC00EC
:100A20001B41AD0000197056000000DD000000FA07
:100A3000000000FF000000FF000000FF000000FFBA
:100A4000000000FFFFFFFFFFFFFFFFFF000000FFB0
:100A5000000000FF000000FF000000FF000287C947
:100A6000070A8E126F8DDC0077C1E70090C2B600D6
:100A7000D1E3C800CCE1CB00CBE1CB00CAE0C90098
:100A8000C9DFC700CFE3D000E3F0EC00DAEADD0015
:100A9000EFF6F600F5FAFA00F8FBFA00F1F8F300C9
:100AA000CEE2CE00CBE1CB00CCE1CC00CCE1CC005F
:100AB000CCE1CC00CCE1CC00CCE1CC00CCE1CC0052
:100AC000CCE1CC00CCE1CC00CCE1CC00CBE1CC0043
:100AD000CDE1CC00D4E6CC007DB48D004AA2AA00C2
:100AE00084B3F400163CA90000175E6A000000E021
:100AF000000000FB000000FF000000FF000000FFFE
:100B0000000000FFFFFFFFFFFFFFFFFF000000FFEF
:100B1000000000FF000000FF00038EF70000873692
:100B20005F77D00081C9F40069AB8F00C4DCBB00E3
:100B3000C4DEC400C2DCC100C1DBC000CCE2D10015
:100B4000D9EAE500E1EFF000F0F8FF00F2F9FF006C
:100B5000F5FAFF00F8FBFF00FAFDFF00FBFDFE00C9
:100B6000D5E7D700C1DBC000C3DDC300C3DDC300D0
:100B7000C3DDC300C3DDC300C3DDC300C3DDC300E9
:100B8000C3DDC300C3DCC200C3DDC300C3DDC300DB
:100B9000C3DDC300C4DEC500CAE0C30052995700DC
:100BA00054A9B6007EAAEF00082C980A000E3397CD
:100BB000000000E9000000FE000000FF000000FF50
:100BC000000000FFFFFFFFFFFFFFFFFF000000FF2F
:100BD000000000FF000000FF0000857D3541AF00F0
:100BE00090CCFF0041958A00ABCCA400BED8BE00DB
:100BF000B9D4B900BED9C200D0E4E100E2F1FD00F1
:100C0000E8F4FF00EBF5FF00EBF5FF00EEF7FF0067
:100C1000F1F8FF00F4F9FF00F5FBFF00F7FBFE0021
:100C2000DAE9E000B9D5BA00BAD5BB00BAD5BB0045
:100C3000BBD6BC00BBD6BC00BBD6BC00BBD6BC0080
:100C4000BAD5BA00BCD7BE00BBD6BC00BBD6BC0070
:100C5000BBD6BC00BBD6BC00C0D9C200B0CFAC0074
:100C60001A76330074BBE000547ED500001C7E254C
:100C7000000000C2000000F4000000FF000000FFC0
:100C8000000000FFFFFFFFFFFFFFFFFF000000FF6E
:100C9000000000FF000088D0080A8E0B80ABF50032
:100CA0004299A70077A77900BAD3BB00BAD4C7008E
:100CB000CAE1E400D6EAF800DEEFFF00DFF0FF0053
:100CC000E1F0FF00E4F2FF00E7F3FF00EAF5FF00C8
:100CD000ECF6FF00EFF7FF00F1F9FF00E5F0F2009E
:100CE000B5D0BA00B0CDB400B7D2BD00B5D0B90010
:100CF000B1CDB500B1CDB500B1CDB500B2CEB50026
:100D0000C4DDD800BED8CC00B1CEB400B3CFB7009C
:100D1000B3CFB700B3CFB700B3CEB700BCD4C000D9
:100D200079A878001975570085BEFA001D48B000F3
:100D300000175B5A000000D8000000FB000000FF15
:100D4000000000FFFFFFFFFFFFFFFFFF000000FFAD
:100D5000000000FF000084555263C50077BEEA0022
:100D60000655210068976C00BCD5CA00D0E8FC008D
:100D7000D4EBFF00D5EBFF00D7EBFF00DAEDFF006F
:100D8000DDEEFF00E0F0FF00E2F1FF00E5F2FF0022
:100D9000E7F3FF00EAF5FF00EFF9FF00C5DAD30043
:100DA000A6C3AC00BFD6CC00E2F0F700D9EAEF0052
:100DB000B4CEBF00B3CDBD00B3CEBE00C8DFE200ED
:100DC000C3DCDE00ACC8B500ABC7B100ABC7B20036
:100DD000ABC7B200ABC7B200ADC8B300B7D0BC0060
:100DE00073A07E00024E0D005BA6BC00729DE90060
:100DF00000228C1100030CA9000000EC000000FF91
:100E0000000000FFFFFFFFFFFFFFFFFF000000FFEC
:100E1000000087DC0C0F920A89B6FA003585910034
:100E2000196558000C56330092C3E500CFE9FF0066
:100E3000D0E8FF00CFE8FF00D2E9FF00D5EAFF00CD
:100E4000D7ECFF00DAEDFF00DDEEFF00DFF0FF0082
:100E5000E4F3FF00E4F2FF00CADCDE00A6C1B1004B
:100E6000A2BDAB00AFC8BC00B2CBC100B3CCC300C5
:100E7000B0CAC000CDE2EC00CDE2ED00BDD5D80097
:100E8000AFCAC300A2BDAC00A3BEAC00A3BDAD0001
:100E9000A3BEAD00A8C1B100A8C1B10064917500A6
:100EA000074D1F0000420D001B6A60008FC8FF0045
:100EB0002450B50000124560000000D4000000FB83
:100EC000000000FFFFFFFFFFFFFFFFFF000000FF2C
:100ED0000000828A4D5DC10076BBEC001A6773008A
:100EE0002F7A98003380A00060B3FF0089C5FF000F
:100EF000BDDFFF00CDE6FF00CEE7FF00CFE8FF003B
:100F0000D1E9FF00D4EAFF00D6EBFF00DCF0FF00E0
:100F1000D3E7F300AFC7C30097B2A5009AB4A70008
:100F20009BB5A90099B4A70098B3A60098B3A500F3
:100F30009BB5A9009EB8AE009DB7AD0099B3A500C2
:100F400099B3A5009BB5A9009BB5A9009EB8AC00BC
:100F5000A2BBAF008EAB9E003E705800003D1C004F
:100F600000401F0000412000004124006CAFD80069
:100F70006D99E300001F7723000000B5000000F129
:100F8000000000FFFFFFFFFFFFFFFFFF00008BF8E7
:100F90000202892A80A4ED00397E94002872930011
:100FA000246A82003D88B90062B6FF0060B1FF008C
:100FB0006FB8FF0094CBFF00BCDEFF00CBE6FF0064
:100FC000CEE7FF00CEE7FF00D0E8FF00B8D1DD009C
:100FD00098B0AC008FA8A00092ABA40092ABA50083
:100FE00092ABA50092ABA50092ABA50092ABA50079
:100FF00092ABA40092AAA30092AAA30093ABA5006F
:1010000094ACA60099B0AA009CB3AF0085A19A0049
:10101000456E64000E43340000342400003929007A
:10102000003A2A00003A2A0000321D002E7081008A
:101030008EC1FD000B37A303000C297F000000DEEA
:10104000000000FEFFFFFFFFFFFFFFFF000085CD58
:101050001518990282B8F3000D4851003279A900A1
:101060005AB0FC0053A7F3005DB0FF0061B2FF006F
:1010700064B3FF0066B4FF0077BCFF0091CAFF00B5
:10108000AFD8FF00C4E3FF00C8E2FB0096ADAE009E
:101090008EA5A30090A6A5008EA5A4008EA5A400F1
:1010A0008DA5A3008DA5A3008EA5A4008EA5A400E8
:1010B0008FA6A50091A8A70093A9A8008EA5A500BA
:1010C000889F9F00668483003C676B00184D540026
:1010D000002A260000312E00003331000033310099
:1010E0000033310000333100002F2B000F47510037
:1010F00089C3FA002B59BA0000144D4C000000C6F9
:10110000000000F8FFFFFFFFFFFFFFFF00007F9BD5
:10111000343FB00075B5EB0008434800418FCD0067
:101120005FB8FF005AB0FF005AAEFF005DB0FF008D
:1011300062B2FF0066B4FF0069B5FF006BB6FF0046
:1011400073BAFF0084C3FF0094CAFB005781870075
:1011500051746D00648682006E8D8A0075928F00D6
:10116000779591007795910075938F006E8E8A0028
:1011700065868300577B7800466E6900315D5900B3
:101180001647430000353000002E2900114D58004D
:101190000840420000352F000136320000352F0094
:1011A00000352F000237330001353000013734009D
:1011B00073AED8004E7CD2000019642E000000B03F
:1011C000000000EFFFFFFFFFFFFFFFFF00007E6F4B
:1011D0004A5CBD0082CDFF00286D89001B5B6A0060
:1011E0003A87B6004FA1EA005CB3FF005DB2FF0092
:1011F0005FB0FF0062B2FF0066B4FF006AB6FF0096
:101200006DB7FF0070B9FF0076BEFF005295C200B7
:10121000063F380001392C000740350009413600EF
:101220000A423700094237000941360007403500BD
:10123000043D3300003A2F0000362B0000372C000D
:10124000003A2F00023C3100023B2E000D494800BD
:10125000256B8500023A2E00033D310008433D0016
:101260000D494700023B2E00013A2D0000342600B4
:101270004F8A9F006F9DE8000020791D0000009EAE
:10128000000000E7FFFFFFFFFFFFFFFF00008048B7
:10129000607AD3006AB4E4000D4D4700003A2400A0
:1012A000023D2B000C4A42002B7490004A9BD9004F
:1012B0005DB1FF0061B3FF0061B1FF0065B3FF00E6
:1012C00068B5FF006CB6FF006FB8FF0079C2FF0081
:1012D0004D91B90005413100003B2500003C28003C
:1012E000003B2600003B2600034030000441310053
:1012F000044131000541310005423200064232000E
:10130000064232000642320005423100033F2E0001
:101310002D77970013555700185B61004591C10068
:1013200023677500003B240012504900003B280051
:10133000326F720083B1EE00032B8913000000911D
:10134000000000E0FFFFFFFFFFFFFFFF0101872C10
:101350007292DF00357A7D00004125000849320095
:101360000748310006462D0003422700094A37008E
:101370001D6569004999D20060B3FF0060B1FF00AC
:1013800063B3FF0065B3FF0068B5FF006BB6FF00F5
:1013900071BDFF004F97C2001E6262001E616100B6
:1013A000276B72002F7383000A4A3600074831000A
:1013B0000848320008483200084832000848320025
:1013C000084832000848320008483200064730001A
:1013D0000B4D3B000B4D3C00094A3600327B92001E
:1013E0001F6469003A7F96006DB3F000175A5000F1
:1013F0003272700095C3F7000A34960C0000008624
:10140000000000DBFFFFFFFFFFFFFFFF0201892558
:101410007698E0002F756D00034929000A4E3200CE
:101420000A4E32000A4E3200094D3200084C2F009D
:1014300001431D00236D76005EB3FF005EB2FF0026
:101440005EB0FF0060B1FF0062B2FF0064B3FF0056
:1014500066B4FF006AB7FF0067B4FF0066B4FD0022
:101460006BB8FF0065B3FC0013594A00074B2C0012
:101470000A4E32000A4E32000A4E32000A4E320044
:101480000A4E32000A4E32000A4E32000A4E330033
:10149000054A2A000F543F00307A9000266D7200F2
:1014A00057A0D50073BBFA00579CC20041838F0040
:1014B0005E9CB40097C5F1000C36990900000080CD
:1014C000000000D7FFFFFFFFFFFFFFFF020189249D
:1014D0007899E000337B7000064F29000C543200ED
:1014E0000C5432000C5432000C5432000C543200B4
:1014F0000B5331000A52300026747C0051A5E700DE
:101500005CB0FF005CAFFF005DAFFF005FB0FF00AD
:1015100060B1FF0061B2FF0062B3FF0063B3FF0080
:1015200063B3FF0064B5FF002B788100074E2700EE
:101530000C5432000C5432000C5432000C54320063
:101540000C5432000C5432000C5432000A522E005B
:101550000D5536004998C8005EADF10057A1D10085
:10156000357E8900418893002B736F004F909D005A
:1015700086BFEA0098C5EE000C3699090000007D90
:10158000000000D6FFFFFFFFFFFFFFFF0001882ADA
:101590007593DD0038827200075429000D5932001E
:1015A0000D5932000D5932000D5932000D593200DB
:1015B0000D5932000C5831000752230014624900C3
:1015C0004FA4E7005AAFFF005AAEFF005BAEFF002A
:1015D0005BAEFF005CAFFF005CB0FF005CAFFF00E4
:1015E0005CAFFF0061B4FF003D8EB1000A552A00D8
:1015F0000D5932000D5932000D5932000D5932008B
:101600000D5932000D5932000C5930000C58310080
:101610004493B90069B8FF006EBAFF006FB7F700D6
:10162000317B7A001B664B002E766A007BB5D900B1
:101630009ED2FD009BC7F5000934950B0000007D8C
:10164000000000D6FFFFFFFFFFFFFFFF000080410B
:10165000657ED40046917F00075928000E5E320057
:101660000E5E32000E5E32000E5E32000E5E320002
:101670000E5E32000E5E31000D5D2D0023756D0093
:1016800051A7ED0057ADFF0057ACFF0057ACFF006E
:1016900057ADFF0058ADFF0058ADFF0058ADFF003B
:1016A00058ADFF005BB0FF00499DD60010603600CA
:1016B0000D5E2F000E5E32000E5E32000E5E3200B6
:1016C0000E5E32000E5F3200095925002475690054
:1016D00068B7FF006DB8FF006BB4F100428C960054
:1016E00074B6EA0072B1DA0081BCE7009DD2FF0057
:1016F000AAD9FF008AB5ED00022B891000000080F6
:10170000000000D7FFFFFFFFFFFFFFFF0000786230
:101710005466CB00569E9000085E2500116532008D
:10172000116432001164320011643200116432001D
:10173000106432000D602900308489005DB2FF0022
:101740005AAFFF0057ACFF0056ACFF0056ACFF008D
:1017500056ACFF0056ACFF0056ACFF0056ACFF0085
:1017600056ACFF0058AEFF004BA1E10013673900F3
:1017700010632F00116432001164320011643200D2
:10178000106431000D612900136638004C9BBD00C8
:1017900070BAFF0074BBFF006FB5ED00509AA9004E
:1017A00085C2FA0089C3F5009ED1FF00A8D7FF00CB
:1017B000B6E1FF00709CDE00002079180000008672
:1017C000000000DAFFFFFFFFFFFFFFFF0000748A49
:1017D0003C47BB006DABAF000D662A0012693200BA
:1017E000136A3200136A3200136A32001269310040
:1017F00011682E001269320051A4D60063B4FF00B4
:101800005DAFFF005BAFFF0059ADFF0058ADFF00BB
:1018100058ADFF0057ADFF0057ACFF0057ACFF00BD
:1018200057ACFF005AAFFF004FA4E600146C38001D
:1018300012692F00136A3200136A320012693100F4
:10184000116930002D8172004798AE0071BAFF0017
:1018500074BBFF007DBFFF006DB1DC001B71430056
:101860003E8C7C0024774F0074B1BF007EB7C2006D
:10187000B7E0FB004F7CCE00001863240000008F0F
:10188000000000DFFFFFFFFFFFFFFFFF00006DBA5A
:10189000181C9F008EBEE0001C763D00136D2F00CB
:1018A000146F3200146F3200136F3200126D2E006D
:1018B000106C2B00217A520067B4FA0067B4FF0065
:1018C00063B2FF0060B1FF005FB0FF005EAFFF00DA
:1018D0005DB0FF005CAFFF005CAFFF005CAFFF00DE
:1018E0005CAFFF005DB0FF005CAEFA00247E6000DC
:1018F000116C2900146F3200146F3200116D2B002F
:101900002B826800388D870059A5C80079BEFF007A
:101910007CBFFF0084C2FF0085C2F90021794A0024
:101920000B682300126D2E000F6C2C003F8C65009D
:10193000B8DDFE002D5CBC0000134A360000009CA0
:10194000000000E6FFFFFFFFFFFFFFFF000045EB89
:101950000304881A8AAAEA0042966B000F702800D6
:101960001675320015753200117128003C907E000A
:101970005FAAC10060ABD20072BAFF006DB7FF0072
:101980006AB6FF0067B4FF0065B3FF0064B3FF00F1
:1019900063B2FF0061B2FF0061B1FF0061B1FF00FF
:1019A00061B1FF0062B2FF0067B5FF004DA0C20049
:1019B00014742F001574310015743100177635003A
:1019C0002D876900459796007EC0FF007FC0FF000D
:1019D00086C4FF008EC9FF008CC5F600247F4A0034
:1019E00013732D00157532000A6D24006FAE990037
:1019F000AFD3FF000B3AA602000A2450000000AD4E
:101A0000000000EFFFFFFFFFFFFFFFFF000000FCF3
:101A10000000726A5A6BCE0085C4BF0013772B009A
:101A2000167A310013772A002F895A0085C2F600F2
:101A300089C8FF0082C2FF007ABDFF0076BCFF00AC
:101A400073BAFF0070B9FF006EB8FF006CB7FF00FB
:101A50006BB6FF006AB6FF0069B6FF0069B5FF000C
:101A600069B6FF006AB6FF006CB7FF006FB9FF00F0
:101A70002D8A66000F7520000F7520002C885F00EE
:101A80005EAAC0007CBEF80085C3FF008AC7FF00C5
:101A900082BFEA007DBBD60099CDFB001F7F3F00CF
:101AA0000F75240014782F001F7F3A00B7DFE9007C
:101AB00078A1E5000020791400000170000000C347
:101AC000000000F8FFFFFFFFFFFFFFFF000000FF27
:101AD00000005FBD111598049FC4F500439B66008C
:101AE000127B27001980310078B8CA009ACFFF0016
:101AF0008DC8FF0088C5FF0084C2FF0080C0FF00C2
:101B00007DBFFF007ABEFF0077BCFF0076BBFF0001
:101B100074BBFF0073BAFF0073BAFF0073BAFF0013
:101B200073BAFF0073BAFF0074BBFF007ABEFF00F8
:101B300053A5AF00308E6000429A830071B7DE007B
:101B40008AC8FF008AC5FF008EC8FF009ACFFF0039
:101B500062ACA80070B3B300ACD7FF006FB1A100B6
:101B60004096630007761D0061AA8000C5E4FF006F
:101B70002857B90000113F370000008D000000DB3E
:101B8000000000FEFFFFFFFFFFFFFFFF000000FF60
:101B9000000000F500007C346376D40090CEC500D0
:101BA0001180220038965C00A6D4FF009FD1FF0070
:101BB00098CDFF0094CBFF008FC8FF008BC7FF00BC
:101BC00088C4FF0084C3FF0082C1FF0080C0FF0003
:101BD0007EC0FF007EBFFF007CBFFF007CBFFF0018
:101BE0007CBFFF007DBFFF007EC0FF0080C0FF0004
:101BF00082C1FF0085C3FF008CC9FF008FC9FF00B1
:101C00008FC9FF0094CCFF009BCFFF009ACEF60057
:101C1000499F76009CCEE800B7DCFF00C7E5FF00D7
:101C2000B7DCF10078B79900C9E9ED0080A8E700BA
:101C300000258F0900030B5E000000B0000000EFDC
:101C4000000000FFFFFFFFFFFFFFFFFF000000FF9E
:101C5000000000FE000063A10E139602A2C1F60070
:101C600058AD770026904000A7D5F300ADD7FF0010
:101C7000A4D3FF009FD0FF009ACEFF0096CCFF00B8
:101C800092CAFF008FC9FF008CC7FF008AC7FF0000
:101C900089C5FF0088C4FF0087C4FF0087C4FF0018
:101CA00087C4FF0088C4FF0089C5FF008BC5FF0003
:101CB0008DC8FF0090CAFF0093CBFF0096CCFF00B9
:101CC0009ACEFF00A0D1FF00A6D4FF00A7D4FA004F
:101CD00090C8D200B7DCFE00C0E0FF00C8E4FF00FF
:101CE000D4EAFF00ECF8FF00C3E0FF002150B5008C
:101CF000001554290000007F000000D0000000FB08
:101D0000000000FFFFFFFFFFFFFFFFFF000000FFDD
:101D1000000000FF000000F0000072474656BF00C0
:101D2000BAE5F500379E4B0069B59300BFE0FF00B0
:101D3000B1D9FF00ACD6FF00A7D5FF00A3D3FF00A9
:101D40009FD0FF009CCFFF0099CDFF0097CCFF00F4
:101D500096CBFF0094CBFF0094CBFF0094CBFF0009
:101D600094CBFF0094CBFF0096CBFF0097CDFF00F4
:101D700099CDFF009CCFFF009FD0FF00A3D3FF00B1
:101D8000A7D4FF00ADD7FF00B2DAFF00B8DDFF0037
:101D9000C3E3FF00C7E4FF00CEE7FF00D6EBFF0080
:101DA000E3F1FF00E3F8FF005E89D400001D800F1F
:101DB0000001055E000000A7000000E9000000FF30
:101DC000000000FFFFFFFFFFFFFFFFFF000000FF1D
:101DD000000000FF000000FC00013BCB0205851560
:101DE0007D96E200AFE2DB0037A14A00AAD7E0000F
:101DF000C2E1FF00B8DDFF00B3DAFF00B0D9FF0099
:101E0000ABD7FF00A8D5FF00A5D4FF00A3D2FF00E9
:101E1000A2D1FF00A0D1FF00A0D1FF009FD1FF0001
:101E2000A0D1FF00A0D1FF00A2D2FF00A3D2FF00EB
:101E3000A6D4FF00A8D5FF00ACD6FF00B0D9FF00A4
:101E4000B4DAFF00B9DDFF00BFE0FF00C4E2FF002D
:101E5000CCE6FF00D3E9FF00DBEDFF00E6F2FF0078
:101E6000F0FDFF0098BEEE000B34A103000B2A40EA
:101E700000000089000000D3000000FA000000FF0D
:101E8000000000FFFFFFFFFFFFFFFFFF000000FF5C
:101E9000000000FF000000FF000000F600005D8B66
:101EA0000E14950290ADEB00BCE6DD00CAE6F20030
:101EB000CEE7FF00C7E4FF00C2E1FF00BDDFFF0087
:101EC000BADDFF00B6DCFF00B3DAFF00B1D9FF00D6
:101ED000AFD8FF00AED8FF00ADD7FF00ADD7FF00F1
:101EE000ADD8FF00AED8FF00B0D8FF00B1D9FF00D9
:101EF000B4DAFF00B6DCFF00BADDFF00BEDFFF0092
:101F0000C2E1FF00C8E4FF00CEE7FF00D4E9FF0014
:101F1000DBEDFF00E1F0FF00EDF5FF00F7FFFF0054
:101F2000ADCFF4001C47B00000135328000000712F
:101F3000000000BB000000F1000000FF000000FFF7
:101F4000000000FFFFFFFFFFFFFFFFFF000000FF9B
:101F5000000000FF000000FF000000FE000000EC99
:101F600000006365121B9A00A3C0F400E6F9FF00AD
:101F7000E0EFFF00D7EBFF00D2E8FF00CEE7FF0065
:101F8000CAE4FF00C5E3FF00C2E1FF00C0E1FF00BB
:101F9000BEE0FF00BDDFFF00BCDEFF00BCDEFF00D7
:101FA000BCDEFF00BDDFFF00BEDFFF00C0E1FF00C1
:101FB000C3E1FF00C5E4FF00CAE5FF00CEE7FF0074
:101FC000D2E9FF00D7ECFF00DDEEFF00E3F1FF00F8
:101FD000EAF5FF00F4FAFF00FDFFFF00BEDCF900A8
:101FE000224EB4000016681B00000163000000A62A
:101FF000000000E4000000FD000000FF000000FF02
:10200000000000FFFFFFFFFFFFFFFFFF000000FFDA
:10201000000000FF000000FF000000FF000000FCC7
:10202000000000E20000605E131D9C0092B2E80018
:10203000EAFDFF00ECF6FF00E2F0FF00DDEFFF003D
:10204000D9ECFF00D6EAFF00D4E9FF00D1E8FF0099
:10205000CFE7FF00CDE7FF00CDE6FF00CDE6FF00B4
:10206000CDE6FF00CEE7FF00CFE7FF00D1E8FF009D
:10207000D3E9FF00D6EBFF00DAECFF00DEEEFF0055
:10208000E2F1FF00E8F4FF00EDF6FF00F4F9FF00D5
:10209000FEFEFF00FFFFFF00B1D1F400234DB400AE
:1020A0000016661C0001045E0000009A000000DAC1
:1020B000000000FA000000FF000000FF000000FF29
:1020C000000000FFFFFFFFFFFFFFFFFF000000FF1A
:1020D000000000FF000000FF000000FF000000FF04
:1020E000000000FB000000DF00006159101898009C
:1020F0007E9DDE00E1F8FF00F9FFFF00F0F8FF0031
:10210000EAF5FF00E9F3FF00E7F3FF00E3F0FF006B
:10211000E1EFFF00E1EFFF00DEEFFF00DCEEFF008C
:10212000DCEEFF00E0EFFF00E0EFFF00E0F0FF007B
:10213000E2F1FF00E5F2FF00E9F4FF00EDF6FF0039
:10214000F2F8FF00F8FBFF00FEFFFF00FFFFFF00BB
:10215000F4FFFF009BBEED001C44AF000015671BA1
:102160000001035E00000098000000D6000000F8A7
:10217000000000FF000000FF000000FF000000FF63
:10218000000000FFFFFFFFFFFFFFFFFF000000FF59
:10219000000000FF000000FF000000FF000000FF43
:1021A000000000FF000000FB000000DE0002546B96
:1021B000020A870D4C63C000B9D5F500F5FFFF009A
:1021C000F6FEF900E6F5E90094D99F00BCE6CA00E6
:1021D000EDF6F900DFF1F000E8F5FB00F7F9FF009C
:1021E000F9FAFF00EAF5FB00F0F7FF00FDFCFF0045
:1021F000FEFDFF00FCFDFF00FDFDFF00FEFEFF00F9
:10220000FFFFFF00FFFFFF00FCFFFF00CEE5FB002C
:102210005F86D2000B2E9E0300125327000000633E
:102220000000009A000000D7000000F8000000FF46
:10223000000000FF000000FF000000FF000000FFA2
:10224000000000FFFFFFFFFFFFFFFFFF000000FF98
:10225000000000FF000000FF000000FF000000FF82
:10226000000000FF000000FF000000FA000000E096
:1022700000022E9800006E281425A000718CD60054
:10228000ADD8E10086DE95003CC13F0043C343006A
:102290004CC54E0033BB370051C556009BDF9F0035
:1022A000A3E2A60050C455007FD682009EE0A000A5
:1022B000AFE5B000DDF5DB00E9FAE400FEFFFB006E
:1022C000FDFFFF00D3EAFD007FA4E1002349B20037
:1022D00000157B10000B2D3E00000071000000A5D2
:1022E000000000DA000000F8000000FF000000FF1E
:1022F000000000FF000000FF000000FF000000FFE2
:10230000000000FFFFFFFFFFFFFFFFFF000000FFD7
:10231000000000FF000000FF000000FF000000FFC1
:10232000000000FF000000FF000000FF000000FBB5
:10233000000000E9000000C40004515D00037A16AB
:102340002030A8006D87D50094C2D70077CF9900C0
:102350005CD06D004ACF4F0035C538002EC131002A
:102360002ABF2D002BBF2D002EC131002DC2310000
:1023700038C93C0054CF60006ECE8B00A6CFE2007F
:10238000789BDC00284DB4000019880A00105328FF
:102390000001065E00000089000000BA000000E4B1
:1023A000000000FA000000FF000000FF000000FF36
:1023B000000000FF000000FF000000FF000000FF21
:1023C000000000FFFFFFFFFFFFFFFFFF000000FF17
:1023D000000000FF000000FF000000FF000000FF01
:1023E000000000FF000000FF000000FF000000FFF1
:1023F000000000FE000000F5000000D9000109AC5B
:1024000000043E6200056A270B1998052F3FB700AC
:102410004D67C400698BCE007FACD30089C1CD006D
:102420008ACAC90088CAC50083C3C50074ADC40088
:102430006492C7004971BE002F4EB8000D2BA00258
:1024400000137315000B3F3600030D5E0000007F84
:10245000000000A7000000D3000000F0000000FD15
:10246000000000FF000000FF000000FF000000FF70
:10247000000000FF000000FF000000FF000000FF60
:10248000000000FFFFFFFFFFFFFFFFFF000000FF56
:10249000000000FF000000FF000000FF000000FF40
:1024A000000000FF000000FF000000FF000000FF30
:1024B000000000FF000000FF000000FB000000ED36
:1024C000000000D5000000B6000424810005444E41
:1024D00000055B30000A6F1E031381130B1C8F0C69
:1024E0000E2095090E2196090C21930B061A8610D1
:1024F00000127418000C6024000B48360007244FAB
:10250000000000710000008D000000B0000000CF4E
:10251000000000E9000000F9000000FF000000FFDB
:10252000000000FF000000FF000000FF000000FFAF
:10253000000000FF000000FF000000FF000000FF9F
:10254000000000FFFFFFFFFFFFFFFFFF000000FF95
:10255000000000FF000000FF000000FF000000FF7F
:10256000000000FF000000FF000000FF000000FF6F
:10257000000000FF000000FF000000FF000000FF5F
:10258000000000FC000000F2000000DF000000C8B6
:10259000000000B10000009F0000009200000087D2
:1025A000000000800000007D0000007D0000008031
:1025B000000000860000008F0000009C000000ADBD
:1025C000000000C3000000DB000000EF000000FB83
:1025D000000000FF000000FF000000FF000000FFFF
:1025E000000000FF000000FF000000FF000000FFEF
:1025F000000000FF000000FF000000FF000000FFDF
:10260000000000FFFFFFFFFFFFFFFFFF000000FFD4
:10261000000000FF000000FF000000FF000000FFBE
:10262000000000FF000000FF000000FF000000FFAE
:10263000000000FF000000FF000000FF000000FF9E
:10264000000000FF000000FF000000FE000000F896
:10265000000000F0000000E7000000E0000000DBE8
:10266000000000D8000000D6000000D6000000D70F
:10267000000000DA000000DF000000E6000000EECD
:10268000000000F7000000FE000000FF000000FF57
:10269000000000FF000000FF000000FF000000FF3E
:1026A000000000FF000000FF000000FF000000FF2E
:1026B000000000FF000000FF000000FF000000FF1E
:1026C000000000FF30003000C0002000C4020008FD
:1026D0000000000098300B08FFFFFFFFFFFFFFFF27
:1026E000FFFFFFFFFFFFFFFFFFFFFFFFFFFFFFFFFA
:1026F000FFFFFFFFFFFFFFFFFFFFFFFFFFFFFFFFEA
:10270000FFFFFFFFFFFFFFFFFFFFFFFFFFFFFFFFD9
:10271000FFFFFFFFFFFFFFFFFFFFFFFFFFFFFFFFC9
:10292000FFFFFFFF000000FF000000FF000000FFAE
:10293000000000FF000000FF000000FF000000FF9B
:10294000000000FF000000FF000000FF000000FF8B
:10295000000000FF000000FF000000FF001D9DF5CB
:10296000001998C900259A930831A162103EAA382F
:10297000204FB41D295BBC0F2A5FBD0D2158B81B29
:10298000134DB1320845A856003D9D8400348EB5E4
:10299000002A6CE9000000FB000000FF000000FFBF
:1029A000000000FF000000FF000000FF000000FF2B
:1029B000000000FF000000FF000000FF000000FF1B
:1029C000000000FF000000FF000000FF000000FF0B
:1029D000000000FFFFFFFFFFFFFFFFFFFFFFFFFF04
:1029E000FFFFFFFF000000FF000000FF000000FFEE
:1029F000000000FF000000FF000000FF000000FFDB
:102A0000000000FF000000FF000000FF000000FFCA
:102A1000000000FF000F92D80016976A1C3BA92403
:102A2000607ECB038CAAE200ABCAF100C2DEFA00E2
:102A3000C8E3FC00CBE5FD00CBE5FE00C9E3FD00EB
:102A4000C3DFFB00AFD1F40090B7E9006796D9026D
:102A50002362BB170043A452003381B4000000F38B
:102A6000000000FD000000FF000000FF000000FF6C
:102A7000000000FF000000FF000000FF000000FF5A
:102A8000000000FF000000FF000000FF000000FF4A
:102A9000000000FFFFFFFFFFFFFFFFFFFFFFFFFF43
:102AA000FFFFFFFF000000FF000000FF000000FF2D
:102AB000000000FF000000FF000000FF000000FF1A
:102AC000000000FF000000FF000000FF00068ACDAC
:102AD00006169562435AB90E86A2DF00BCD9F900EA
:102AE000DEF5FF00E7F9FF00E5F6FF00E4F6FF0082
:102AF000E4F7FF00E4F7FF00E5F7FF00E4F7FF006D
:102B0000E4F6FF00E5F6FF00E6F7FF00E0F4FF0063
:102B1000C2E0FC008CB7EA004C85D1060A4DA74004
:102B200000337FAB000000F2000000FD000000FF5A
:102B3000000000FF000000FF000000FF000000FF99
:102B4000000000FF000000FF000000FF000000FF89
:102B5000000000FFFFFFFFFFFFFFFFFFFFFFFFFF82
:102B6000FFFFFFFF000000FF000000FF000000FF6C
:102B7000000000FF000000FF000000FF000000FF59
:102B8000000000FF00018DF900028A8E303EAB0D7F
:102B900092ADE400CCEAFF00DCF3FF00E4F6FF00B6
:102BA000E0F6FF00C4DFFD00ABCBF5009CB9EC0004
:102BB0008EA8E3008BA4E2008BA4E2008DA8E200C3
:102BC0009BB7EB00A9C9F400C0DCFC00DEF4FF00F9
:102BD000E5F6FF00DDF1FF00D0E9FF009FC7F3003D
:102BE0003979CC03003F955B001636D6000000F81B
:102BF000000000FF000000FF000000FF000000FFD9
:102C0000000000FF000000FF000000FF000000FFC8
:102C1000000000FFFFFFFFFFFFFFFFFFFFFFFFFFC1
:102C2000FFFFFFFF000000FF000000FF000000FFAB
:102C3000000000FF000000FF000000FF000000FF98
:102C4000000083E3090B8E436C81CF00B8DBFD00ED
:102C5000D9F0FF00DDF2FF00C3E4FF0098BBF000F5
:102C6000657DCE006673BF008084C0009193C40070
:102C7000A2A3CC009D9DC1009B9CBE00A4A5CD003D
:102C80009395C4008286C0006975BF006277CB004F
:102C900092B4ED00BFE0FF00DBF1FF00DCEEFF00CF
:102CA000BFDFFF0079ABE7000E52AE2000275FAE1A
:102CB000000000F1000000FE000000FF000000FF27
:102CC000000000FF000000FF000000FF000000FF08
:102CD000000000FFFFFFFFFFFFFFFFFFFFFFFFFF01
:102CE000FFFFFFFF000000FF000000FF000000FFEB
:102CF000000000FF000000FF000000FF00008BCF7D
:102D00001C1F9928849FE000C8E9FF00D4ECFF0055
:102D1000C1E3FF0084A8EA00677BCA007C81BF0092
:102D2000A4A2C900CFCDDC00E3E2E700E7E6EB00B8
:102D3000ECEBF000C4C3C700BBBBBE00EDECF2007F
:102D4000E6E6EA00E5E4E800D2D1DD00AAA8CC007E
:102D50008083C0006879C8007D9FE600BCDFFF006B
:102D6000D5EBFF00CCE5FF0092BFF2002265BB105F
:102D7000002C6E8B000000EB000000FC000000FF48
:102D8000000000FF000000FF000000FF000000FF47
:102D9000000000FFFFFFFFFFFFFFFFFFFFFFFFFF40
:102DA000FFFFFFFF000000FF000000FF000000FF2A
:102DB000000000FF000000FF00008FD119209F1BC2
:102DC00095B6EE00C7E7FF00CFE9FF0098C5FB000E
:102DD000607DD3006769B100BAB8CE00E4E3E800D3
:102DE000EAEAEE00E9E9EF00EAEAF000EBEBF100D5
:102DF000F0F0F600C4C4C900BABABE00F1F1F700A1
:102E0000EBEBF100EAEAF000EAEAEF00E9E9EE00B4
:102E1000E6E5EA00C5C2D4007072B1005B75CD0072
:102E200091BEF800CBE7FF00CAE3FF00A1CBF90099
:102E3000276CC30900276289000000E8000000FD3C
:102E4000000000FF000000FF000000FF000000FF86
:102E5000000000FFFFFFFFFFFFFFFFFFFFFFFFFF7F
:102E6000FFFFFFFF000000FF000000FF000000FF69
:102E7000000000FF000294E51A22A4258FB3F000A1
:102E8000C4E3FF00BCE0FF0079ABF2005463BC0078
:102E9000A8A6CC00CECDD100AFAFB100EBEBF100D6
:102EA000ECECF100ECECF100EDEDF300EEEEF300F4
:102EB000F2F2F700D7D7DA00D1D1D400F3F3F8005B
:102EC000EFEFF300EDEDF300EDEDF200EBEBF100D1
:102ED000EDEDF400AEAEB100C1C1C300B8B5D30092
:102EE0005864BA006E9CEA00B6DFFF00C5E1FF003F
:102EF00098C5F8002469C109001E4B98000000EB3A
:102F0000000000FE000000FF000000FF000000FFC6
:102F1000000000FFFFFFFFFFFFFFFFFFFFFFFFFFBE
:102F2000FFFFFFFF000000FF000000FF000000FFA8
:102F30000009A1F90A119F42789AE600B8DEFF0065
:102F4000B2DAFF006B9CEC005D6ABC00BFBCD30032
:102F5000E8E8EB00EAEAF100B4B4B800DDDDE20035
:102F6000F1F1F500F0F0F500F2F2F600F3F3F600FF
:102F7000F3F3F700F5F5F800F5F5F800F3F3F700D3
:102F8000F3F3F600F2F2F600F1F1F500F0F0F500DF
:102F9000E6E6EB00B8B8BB00E8E8EE00EAE9ED00D1
:102FA000CAC8D8006871BD005F8EE500ADD7FF00CC
:102FB000BBDBFF0089B9F5000F52A919001532AF2C
:102FC000000000F0000000FE000000FF000000FF15
:102FD000000000FFFFFFFFFFFFFFFFFFFFFFFFFFFE
:102FE000FFFFFFFF000000FF000000FF000000FFE8
:102FF00000079E8D5C7AD800AED7FF00B2D8FF00E4
:10300000639EF3005B68BD00CCC8D700E8E8ED0024
:10301000E9E9F000ECECF200EFEFF400F0F0F3007F
:10302000F3F3F700F4F4F800F6F6F800F7F7FA0017
:10303000F8F8FA00F9F9FB00F9F9FB00F8F8FA00E2
:10304000F8F8FA00F6F6F900F5F5F800F3F3F700F2
:10305000F0F0F400F0F0F500EEEEF300EAEAF10033
:10306000EAEAED00D5D2DC00646BB9005C94EE00B6
:10307000A8D4FF00B1D4FF0067A0E700033A883A64
:10308000000000CD000000F7000000FF000000FF7E
:10309000000000FFFFFFFFFFFFFFFFFFFFFFFFFF3D
:1030A000FFFFFFFF000000FF000000FF0009A5D2A6
:1030B000253CBC0B95C2FE00A9D2FF0068A9FB000D
:1030C0004B5EBD00C1BDD300E8E8ED00EAEAF000C8
:1030D000ECECF200EFEFF400F3F3F700F5F5F80095
:1030E000F7F7F900F9F9FA00FAFAFC00FCFCFD0028
:1030F000FDFDFD00FDFDFE00FDFDFE00FDFDFD00F2
:10310000FCFCFD00FBFBFC00F9F9FB00F7F7F90004
:10311000F5F5F800F2F2F600F0F0F400EDEDF20053
:10312000EAEAF000E9E9ED00D1CFDB00515FB90038
:103130005C9AF400A8D2FF009FCAFF003A7DD1023A
:1031400000225375000000E0000000FD000000FFB9
:10315000000000FFFFFFFFFFFFFFFFFFFFFFFFFF7C
:10316000FFFFFFFF000000FF000000FF0817AD6039
:103170006F98EB00A8D1FF007CBAFF00406AD40032
:10318000ABA8CC00ECECEF00EAEAF100ECECF200CA
:10319000F0F0F500F3F3F600F5F5F900F8F8FB00B0
:1031A000FBFBFC00FDFDFD00FEFEFF00FFFFFF003E
:1031B000FFFFFF00FFFFFF00FFFFFF00FFFFFF001B
:1031C000FFFFFF00FFFFFF00FDFDFE00FBFBFC001B
:1031D000F8F8FB00F6F6F900F3F3F700F0F0F5006D
:1031E000EDEDF200EAEAF000E9E9ED00B9B4D10052
:1031F0004768CC006EB1FF00A5CDFF0077ADF300AE
:10320000084AA11A000307B5000000F0000000FF03
:10321000000000FFFFFFFFFFFFFFFFFFFFFFFFFFBB
:10322000FFFFFFFF000000FF000EADDA3250CB0CB5
:1032300093C3FF008AC1FF003E7FEC006568B100C8
:10324000ADACB300C2C2CD00E9E9EE00F4F4F80081
:10325000F3F3F700F6F6F800F9F9FB00FCFCFE00CA
:10326000FEFEFF00FFFFFF00FFFFFF00FFFFFF006C
:10327000FFFFFF00FFFFFF00FFFFFF00FFFFFF005A
:10328000FFFFFF00FFFFFF00FFFFFF00FFFFFF004A
:10329000FCFCFE00FAFAFC00F7F7F900F4F4F70082
:1032A000F0F0F400EDEDF200EDEDF300D8D6D7002C
:1032B000787AB2003977E60089C0FF009BC7FF002B
:1032C0004385D900001D486B000000D8000000FCB9
:1032D000000000FFFFFFFFFFFFFFFFFFFFFFFFFFFB
:1032E000FFFFFFFF000000FF0113B26A5985E800ED
:1032F0008FC0FF0058A3FF004366CD00B7B2C500E2
:10330000808091008C8CA100A5A5B300D5D5DB00F1
:10331000FAFAFC00FEFEFF00FDFDFE00FFFFFF00CD
:10332000FFFFFF00FFFFFF00FFFFFF00FFFFFF00A9
:10333000FFFFFF00FFFFFF00FFFFFF00FFFFFF0099
:10334000FFFFFF00FFFFFF00FFFFFF00FFFFFF0089
:10335000FFFFFF00FDFDFE00F9F9FC00F6F6F900A5
:10336000F3F3F700F2F2F700BDBDC100AAAAAC006A
:10337000C5C1CF00475DC0004B99FC008ABCFF006F
:103380006FA7F300043D8A27000000B9000000F297
:10339000000000FFFFFFFFFFFFFFFFFFFFFFFFFF3A
:1033A000FFFFFFFF0017BDF71531C1227CADFB0009
:1033B0007EB8FF00307CF200737BC000E7E5E800D8
:1033C000D3D3DA00A1A1AF0084849A008F8FA2002A
:1033D000B7B7C100E4E4E700FFFFFF00FFFFFF0015
:1033E000FFFFFF00FFFFFF00FFFFFF00FFFFFF00E9
:1033F000FFFFFF00FFFFFF00FFFFFF00FFFFFF00D9
:10340000FFFFFF00FFFFFF00FFFFFF00FFFFFF00C8
:10341000FFFFFF00FFFFFF00FCFCFE00F9F9FB00CF
:10342000F5F5F800F2F2F600DDDDE200E9E9EF0083
:10343000EBEAED008E90C3002D73E9006FB0FF0042
:103440007DB1FE002164C10400122B83000000E066
:10345000000000FEFFFFFFFFFFFFFFFFFFFFFFFF7A
:10346000FFFFFFFF0013B7CA4169DD0283BAFF0007
:103470004FA1FF002153CF00AAA6C900EAE9EE0040
:10348000F0F0F500F4F4F700CFCFD5009090A10054
:1034900085859D009595A700C8C8CF00F4F4F50078
:1034A000FFFFFF00FFFFFF00FFFFFF00FFFFFF0028
:1034B000FFFFFF00FFFFFF00FFFFFF00FFFFFF0018
:1034C000FFFFFF00FFFFFF00FFFFFF00FFFFFF0008
:1034D000FFFFFF00FFFFFF00FFFFFF00FCFCFD0000
:1034E000F8F8F900F3F3F700F2F2F600ECECF20072
:1034F000E9E9EE00C4BFD400315FD0004C9EFF006C
:1035000087B9FF003E7FDB000021594C000000C856
:10351000000000F8FFFFFFFFFFFFFFFFFFFFFFFFBF
:10352000FFFFFFFF021CBA935384ED006BACFF005A
:103530002A84FC00425DC000D5D1DC00E9E9EF003F
:10354000ECECF100F1F1F500FAFAFD00F7F7F70005
:10355000C7C7CE0088889B0085859C00A1A1B000CC
:10356000CFCFD300FEFEFE00FFFFFF00FFFFFF00F6
:10357000FFFFFF00FFFFFF00FFFFFF00FFFFFF0057
:10358000FFFFFF00FFFFFF00FFFFFF00FFFFFF0047
:10359000FFFFFF00FFFFFF00FFFFFF00FFFFFF0037
:1035A000FDFDFE00F5F5F800F1F1F500EDEDF2009E
:1035B000EAEAF000DEDBE3004E5FBB00237BF900AC
:1035C0006AAAFF00629CEE000331792C000000B073
:1035D000000000EFFFFFFFFFFFFFFFFFFFFFFFFF08
:1035E000FFFFFFFF0827C1625E94F6004F9AFF00BD
:1035F000146FF600707AC000E7E5E700EAEAF00031
:10360000EEEEF300F2F2F600F6F6F900FCFCFD0037
:10361000FFFFFF00EEEEEF00B0B0BB0088889D001A
:1036200088889D00B1B1BC00DEDEE100FFFFFF0035
:10363000FFFFFF00FFFFFF00FFFFFF00FFFFFF0096
:10364000FEA8A800FDEFEF00FFFFFF00FFFFFF0057
:10365000FFFFFF00F4F4F500E1E1E400CACAD10085
:10366000E2E2E600FBFBFC00F2F2F600EEEEF30015
:10367000EAEAF000EBEAEB007678BA001061E900C4
:103680004697FF006FA9FB000F42921A0000009CB2
:10369000000000E6FFFFFFFFFFFFFFFFFFFFFFFF50
:1036A000FFFFFFFF0D2FCB385E9BFC00398FFF0023
:1036B0000E63EC008C8FC300E9E8EB00EBEBF1004C
:1036C000EEEEF300F3F3F600F7F7FA00FCFCFD0072
:1036D000FFFFFF00FFFFFF00FFFFFF00E1E1E4004D
:1036E0009A9AA90084849B009191A300BCBCC40059
:1036F000F0F0F100FAFAFC00FAF9FA00FF969500F2
:10370000F65F5E00F3F0F000EFEFF000D6D6DB00DE
:10371000C0C0CA009C9CAB009393A60085859C000A
:10372000AEAEB800FEFEFE00F4F4F700EFEFF300DB
:10373000ECECF100EAE9ED00A1A0C9001157DD00B1
:10374000328DFF005E9DFE001C52A90F0000008D0F
:10375000000000DEFFFFFFFFFFFFFFFFFFFFFFFF97
:10376000FFFFFFFF143DD31D5496FE002685FF008A
:103770000A58E300A2A2CC00EDECF000F0F0F60055
:10378000F2F2F700F3F3F700F8F8FA00FDFDFD00A0
:10379000FFFFFF00FFFFFF00FFFFFF00FFFFFF0035
:1037A000FFFFFF00D4D4D8009292A3008282990038
:1037B0009898A800AAABB8009E98A500B14E5600F4
:1037C000B8A8B100B0B3C0009797AA008B8BA20035
:1037D0007E7E960086869900A4A4B000C2C2C9006D
:1037E000E7E7E900FAFAFC00F4F4F700F3F3F70076
:1037F000F1F1F600EEEDF200C0BCD3001351D5009C
:103800001980FF005598FF00245DB7080000008371
:10381000000000D9FFFFFFFFFFFFFFFFFFFFFFFFDB
:10382000FFFFFFFF1A44DA0F5195FE00167DFF00DF
:103830000653E2009F9FC100C7C5C700C4C4C900AA
:10384000D6D6DA00F5F5F800F9F9FB00FDFDFE002B
:10385000FFFFFF00FFFFFF00FFFFFF00FFFFFF0074
:10386000FFFFFF00FFFFFF00F6F6F600BBBBC30043
:103870008A8B9B00AAAAB10082828E00636D7D00B4
:1038800083869B008F8FA2009F9FAD00B5B5BE00C1
:10389000D2D2D600EFEFEF00FFFFFF00FFFFFF00E7
:1038A000FFFFFF00F9F9FB00F6F6F900D9D9DD00BA
:1038B000C4C4C800C4C4C800B8B3C5001452D600FC
:1038C0000675FF005097FF002962C0050000007BCD
:1038D000000000D5FFFFFFFFFFFFFFFFFFFFFFFF1F
:1038E000FFFFFFFF1B45DD0C4E94FE000F78FF002D
:1038F0000754E2009D9DBE00BDBCBD00BBBBBE0029
:10390000D0D0D400F5F5F800F9F9FB00FDFDFE007C
:10391000FFFFFF00FFFFFF00FFFFFF00FFFFFF00B3
:10392000FFFFFF00FFFFFF00FFFFFF00FFFFFF00A3
:10393000A1A7B200767783007D7D89008383900004
:103940008B8B9600ECECEC00FFFFFE00FFFFFF000E
:10395000FFFFFF00FFFFFF00FFFFFF00FFFFFF0073
:10396000FEFEFE00F9F9FB00F7F7FA00D4D4D70009
:10397000BABABE00BBBBBE00B6B0C1001552D6007D
:103980000473FF004792FF002A60C0040000007724
:10399000000000D4FFFFFFFFFFFFFFFFFFFFFFFF5F
:1039A000FFFFFFFF1440DB1B4E94FE00167CFF0060
:1039B000135CE200A6A6CD00EEEDF100F1F1F700F8
:1039C000F3F3F800F4F4F700F8F8FA00FDFDFD0059
:1039D000FFFFFF00FFFFFF00FFFFFF00FFFFFF00F3
:1039E000FFFFFF00FFFFFF00FFFFFF00FFF5F400F8
:1039F000E37A7E00BEB8C000C5C8CD0092929E009A
:103A0000AAAAB300FFFFFF00FFFFFF00FFFFFF00B8
:103A1000FFFFFF00FFFFFF00FFFFFF00FFFFFF00B2
:103A2000FEFEFE00F9F9FB00F4F4F800F4F4F900EE
:103A3000F2F2F700EEEEF400C3BFD4001B55D50040
:103A4000117BFF004793FF002455B5070000007766
:103A5000000000D3FFFFFFFFFFFFFFFFFFFFFFFF9F
:103A6000FFFFFFFF0C36D7325196FD002584FF0083
:103A7000226DEB009293C500E8E7EB00EBEBF10061
:103A8000EFEFF300F3F3F600F8F8FA00FCFCFD00AA
:103A9000FFFFFF00FFFFFF00FFFFFF00FFFFFF0032
:103AA000FFFFFF00FFFFFF00FFF9F900FC7979003D
:103AB000F3999900F2F2F300EEEFF000F6F6F6005B
:103AC000FAFAFA00FFFFFF00FFFFFF00FFFFFF0011
:103AD000FFFFFF00FFFFFF00FFFFFF00FFFFFF00F2
:103AE000FDFDFE00F8F8FA00F4F4F700F0F0F40041
:103AF000ECECF100EAE9ED00AAA6CA002360DC00C4
:103B00002083FF005098FF001946A40C0000007AA3
:103B1000000000D5FFFFFFFFFFFFFFFFFFFFFFFFDC
:103B2000FFFFFFFF0630CF564C8FFB00358CFF00A8
:103B30002B7AF5007E82BF00E7E5E800EAEAF000B4
:103B4000EEEEF300F2F2F600F6F6F900FBFBFC00F5
:103B5000FEFEFF00FFFFFF00FFFFFF00FFFFFF0073
:103B6000FFFFFF00FFFFFF00FE919100F07B7B0055
:103B7000FBFFFF00FFFFFF00FFFFFF00FFFFFF0055
:103B8000FFFFFF00FFFFFF00FFFFFF00FFFFFF0041
:103B9000FFFFFF00FFFFFF00FFFFFF00FFFFFF0031
:103BA000FBFBFD00F7F7F900F2F2F600EEEEF30092
:103BB000EBEBF100EBEAEC007F7FBC002C6FE70041
:103BC0002F8AFF00579BFC000D328B1500000082EE
:103BD000000000D8FFFFFFFFFFFFFFFFFFFFFFFF19
:103BE000FFFFFFFF0229C5844481F6004597FF00CF
:103BF0003788FC00606EC000D5D2DE00EAEAEF0034
:103C0000ECECF200F1F1F500F5F5F800F9F9FB0044
:103C1000FDFDFE00FFFFFF00FFFFFF00FFFFFF00B5
:103C2000FFFFFF00FFA3A300F2767600F9F9F90089
:103C3000FFFFFF00FFFFFF00FFFFFF00FFFFFF0090
:103C4000FFFFFF00FFFFFF00FFFFFF00FFFFFF0080
:103C5000FFFFFF00FFFFFF00FFFFFF00FEFEFE0073
:103C6000FAFAFB00F6F6F800F1F1F500EDEDF300DD
:103C7000EAEAF000DEDCE400686DBA003B86F7009B
:103C80004194FF004D8CED00031E6E210000008C5E
:103C9000000000DDFFFFFFFFFFFFFFFFFFFFFFFF53
:103CA000FFFFFFFF0021B5B6346DF101529EFF000A
:103CB0004C9DFF004A67CB00B1ACCC00EAE9EE00B6
:103CC000EBEBF100F0F0F500F3F3F700F7F7F90094
:103CD000FBFBFC00FFFFFF00FFFFFF00FFFFFF00FB
:103CE000FFC5C500F36D6D00F6E8E800FFFFFF00BB
:103CF000FFFFFF00FFFFFF00FFFFFF00FFFFFF00D0
:103D0000FFFFFF00FFFFFF00FFFFFF00FFFFFF00BF
:103D1000FFFFFF00FFFFFF00FFFFFF00FCFCFD00B7
:103D2000F8F8FA00F3F3F700F1F1F500ECECF2002B
:103D3000E9E9EE00C5C1D6006077CD004D9BFF00DC
:103D40004E9DFF003469D30000104B360000009AEE
:103D5000000000E5FFFFFFFFFFFFFFFFFFFFFFFF8A
:103D6000FFFFFFFF001878EA1243E315529AFE00A6
:103D7000519EFF006495EE008A89BF00E6E6E900E7
:103D8000EDEDF400E6E6EB00F0F0F500F5F5F800F7
:103D9000F8F8FB00FCFCFD00FFFFFF00FFDADA0093
:103DA000F7646400F4E0E000FFFFFF00FFFFFF00A6
:103DB000FFFFFF00FFFFFF00FFFFFF00FFFFFF000F
:103DC000FFFFFF00FFFFFF00FFFFFF00FFFFFF00FF
:103DD000FFFFFF00FFFFFF00FDFDFE00F9F9FB0004
:103DE000F6F6F900F2F2F600E6E6EB00EDEDF30090
:103DF000EAE9ED009E9CC7005B89E50052A0FF0048
:103E0000519CFF001A44B50200062051000000AD8D
:103E1000000000EEFFFFFFFFFFFFFFFFFFFFFFFFC0
:103E2000FFFFFFFF000000FB012CD2513F81F90092
:103E300058A3FF006BABFF006E7BC900C4C2D40067
:103E4000AEAEB000B7B7BB00F0F0F500F3F3F6008C
:103E5000F6F5F800F9FFFF00FFEBEB00F8747400D3
:103E6000F1CDCD00FFFFFF00FFFFFF00FFFFFF00D0
:103E7000FFFFFF00FFFFFF00FFFFFF00FFFFFF004E
:103E8000FFFFFF00FFFFFF00FFFFFF00FFFFFF003E
:103E9000FFFFFF00FEFEFE00FAFAFC00F7F7F80055
:103EA000F3F3F700F3F3F700C2C2C500AAAAAC000F
:103EB000CAC9D5006A70BE006BA6FB0059A4FF00FA
:103EC0004A8CF1000419771700000071000000C54A
:103ED000000000F8FFFFFFFFFFFFFFFFFFFFFFFFF6
:103EE000FFFFFFFF000000FF001FA0B6225CEE06F0
:103EF00058A3FF006FB0FF007597E7007A77B10015
:103F0000C0C0C300E8E8EE00EEEEF300F0EFF3000F
:103F1000F3F7FB00F7F1F300FA7C7D00F0B4B50095
:103F2000FEFFFF00FFFFFF00FFFFFF00FFFFFF009E
:103F3000FFFFFF00FFFFFF00FFFFFF00FFFFFF008D
:103F4000FFFFFF00FFFFFF00FFFFFF00FFFFFF007D
:103F5000FDFDFE00FAFAFC00F7F7FA00F4F4F700B2
:103F6000F1F1F400EDEDF300EBEBF100C8C8C9008E
:103F70008582B000758FDF0074B2FF005CA7FF0080
:103F80002F5DCD000007353B00000090000000DDF4
:103F9000000000FEFFFFFFFFFFFFFFFFFFFFFFFF2F
:103FA000FFFFFFFF000000FF000000F30532D33FDA
:103FB000478CFC0067ABFF008EC1FF007883CD000B
:103FC000B6B4D200E9E9ED00EAEAF000EDEFF40062
:103FD000F1F3F700F9929300EAA2A300F6FFFF00C5
:103FE000FCFCFD00FEFEFE00FFFFFF00FFFFFF00E8
:103FF000FFFFFF00FFFFFF00FFFFFF00FFFFFF00CD
:10400000FFFFFF00FFFFFF00FEFEFE00FCFCFD00C7
:10401000F9F9FB00F7F7F900F4F4F700F1F1F50016
:10402000EEEEF300EAEAF000EAEAEE00C2C1D800E0
:104030007980C9008FBFFF0069AEFF004A8DF20092
:10404000071A880C00010563000000B4000000F1AD
:10405000000000FFFFFFFFFFFFFFFFFFFFFFFFFF6D
:10406000FFFFFFFF000000FF000000FD001F9DADEF
:104070001852F10255A1FF007EB9FF009CC0F90063
:104080006E6FBA00C5C3D700EAEAEE00E9F3F900A3
:10409000F59EA100EB8D8E00EFF5F900F6F8FA0021
:1040A000F8F8F900FAFAFB00FBFBFD00FDFDFE004D
:1040B000FEFEFE00FEFEFE00FEFEFE00FEFEFE0018
:1040C000FDFDFE00FBFBFD00FAFAFB00F8F8FA002C
:1040D000F6F6F800F3F3F700F0F0F500EDEDF2007E
:1040E000EBEBF100E9E9EF00D4D4DF007271B80026
:1040F00096B4F00086BDFF005BAAFF00254BC0010F
:104100000003353600000086000000D5000000FCEA
:10411000000000FFFFFFFFFFFFFFFFFFFFFFFFFFAC
:10412000FFFFFFFF000000FF000000FF000000F2A3
:104130000027BE5A3578F80065ADFF009BCAFF0026
:104140009EB4EA007B7BBD00CFD2E000F6B0B100A8
:10415000EC898B00E6E7EC00F3F5FA00F2F1F500EC
:10416000F3F3F700F5F5F800F7F7F900F8F8FA00BF
:10417000F9F9FB00F9F9FB00F9F9FB00F9F9FB008B
:10418000F8F8FA00F7F7F900F6F6F800F4F4F7009B
:10419000F2F2F600F2F2F700EEEEF300EBEBF100D4
:1041A000E9E9EE00D7D6E100807FBC009CADE500D8
:1041B000A2CEFF006AB2FF003B73E1000309681959
:1041C00000000068000000B3000000EE000000FFE7
:1041D000000000FFFFFFFFFFFFFFFFFFFFFFFFFFEC
:1041E000FFFFFFFF000000FF000000FF000000FDD8
:1041F000000C39DA0634DB1E4189FC0072B5FF0081
:10420000B2D9FF00A4B4E7007774B700D68B96004C
:10421000E3D6D900EDF2F800BDBDC100DDDDE2005E
:10422000F1F1F600F1F1F500F2F2F600F4F4F70026
:10423000F4F4F700F6F6F900F7F7FA00F4F4F700F3
:10424000F4F4F700F2F2F600F1F1F500F1F1F50007
:10425000E6E6EB00C1C1C400EBEBF100E9E9EE00DA
:10426000D4D3DF00807FBC009AA5DE00B7DBFF005F
:104270007BBBFF00488FF5000A148D080000184C26
:1042800000000095000000DC000000FC000000FFC2
:10429000000000FFFFFFFFFFFFFFFFFFFFFFFFFF2B
:1042A000FFFFFFFF000000FF000000FF000000FF15
:1042B000000000F8001774B00F41E30F4995FD00AE
:1042C0007FBCFF00C1DFFF00B8C7ED006D72BC000E
:1042D000B0B1D200D5D4D700AAAAAD00E9E9EF0069
:1042E000EDEDF200EDEDF200EEEEF300EFEFF30096
:1042F000F3F3F700D9D9DD00D4D4D700F3F3F800F5
:10430000F0F0F300EEEEF400EDEDF300EDEDF20071
:10431000EDEDF300AAAAAC00C8C8C900BFBED80022
:104320007171B800ADB8E500C7E4FF0087C2FF00B7
:104330004D99F9001424A5020000263C0000007EDF
:10434000000000C7000000F5000000FF000000FFB3
:10435000000000FFFFFFFFFFFFFFFFFFFFFFFFFF6A
:10436000FFFFFFFF000000FF000000FF000000FF54
:10437000000000FF000000F2001C8C8D1146E709D0
:104380004694FD0080BEFF00C7E4FF00C9D6F400DC
:104390008B8DCB007D7CB300BCBCCF00E9E9EC0089
:1043A000E9E9EE00EAEAF000EBEBF000EBEBF100FC
:1043B000F1F1F700C4C4C900BBBBBE00F2F2F800C3
:1043C000ECECF100EBEBF000EAEAF000E9E9EE00DA
:1043D000E9E9ED00C7C7D500807FB0008688C80036
:1043E000C3CEEF00CEE8FF0089C4FF004D99F9006D
:1043F000172FAF0300003C3000000071000000B731
:10440000000000ED000000FE000000FF000000FFC3
:10441000000000FFFFFFFFFFFFFFFFFFFFFFFFFFA9
:10442000FFFFFFFF000000FF000000FF000000FF93
:10443000000000FF000000FE000000EB00187E8876
:104440000F42E60A3E8BFC0074B9FF00C1E1FF0099
:10445000E7F3FF00B7BCE5007778BF009392C30095
:10446000B9B9D300D7D7E200E8E8EB00E8E8ED00FF
:10447000EDEDF300C4C4C800BBBBBE00EEEEF4001B
:10448000E8E8ED00E9E9EB00DBDAE400BDBDD600C9
:104490009998C5007676BD00AAAEDE00E7F2FF006F
:1044A000C9E5FF007FC0FF00448FF5001227AD0370
:1044B00000003F300000006E000000AD000000E68C
:1044C000000000FD000000FF000000FF000000FFF2
:1044D000000000FFFFFFFFFFFFFFFFFFFFFFFFFFE9
:1044E000FFFFFFFF000000FF000000FF000000FFD3
:1044F000000000FF000000FF000000FC000000E8DA
:10450000001464960633D11A2D72F8005DABFF00DB
:104510009DD0FF00E3F4FF00ECF1FD00C5C9E80009
:104520009899D0007475BA007D7DBA00A09FC9002B
:10453000B7B7D300ACACC500A9A9C200B9B9D400C3
:10454000A3A3CA008282BC007474B9009494CD0005
:10455000BFC0E400EBEEFC00E8F6FF00A6D5FF00CC
:1045600063B2FF003370E50009179A0900012C3B84
:1045700000000072000000AE000000E3000000FB3D
:10458000000000FF000000FF000000FF000000FF2F
:10459000000000FFFFFFFFFFFFFFFFFFFFFFFFFF28
:1045A000FFFFFFFF000000FF000000FF000000FF12
:1045B000000000FF000000FF000000FF000000FC02
:1045C000000000EA000E40AF0023AC3B1854EF029D
:1045D0003B88FB0070B6FF00A8D7FF00DDF2FF00AC
:1045E000FEFFFF00EEEDF800CCCDE900B4B4DD0035
:1045F000A4A4D600A3A4D600A4A4D700A4A4D50044
:10460000B1B1DC00C8C8E700EAEAF700FEFFFF002E
:10461000E4F5FF00AFDBFF0078BDFF00408AF40047
:104620001C46CE00010A741900011C4B0000007FDB
:10463000000000B7000000E6000000FB000000FFE3
:10464000000000FF000000FF000000FF000000FF6E
:10465000000000FFFFFFFFFFFFFFFFFFFFFFFFFF67
:10466000FFFFFFFF000000FF000000FF000000FF51
:10467000000000FF000000FF000000FF000000FF3E
:10468000000000FE000000F0000000CD00156E7379
:10469000022CC71C1B5AF3013987FB0059A7FF00E6
:1046A0008CC9FF00BCE2FF00DBF2FF00F2FEFF005E
:1046B000FCFFFF00FEFFFF00FEFFFF00FCFFFF000E
:1046C000F4FFFF00DFF4FF00C0E5FF0093CEFF0022
:1046D0005DABFF003C88F4001F51D9000314980D16
:1046E000000440360000006800000095000000C78C
:1046F000000000EC000000FD000000FF000000FFD3
:10470000000000FF000000FF000000FF000000FFAD
:10471000000000FFFFFFFFFFFFFFFFFFFFFFFFFFA6
:10472000FFFFFFFF000000FF000000FF000000FF90
:10473000000000FF000000FF000000FF000000FF7D
:10474000000000FF000000FE000000F7000000DF96
:10475000000107B60013606B0024AA280C41E30691
:104760001B5DF100347EF8004C99FD0058A6FF0057
:1047700066B1FF0071B8FF0072B9FF0067B2FF00B9
:104780005AA7FE004E9BFD00377FF3001E58E10044
:104790000F35C903011389180006413A0001076467
:1047A00000000086000000B3000000DC000000F5FF
:1047B000000000FE000000FF000000FF000000FFFE
:1047C000000000FF000000FF000000FF000000FFED
:1047D000000000FFFFFFFFFFFFFFFFFFFFFFFFFFE6
:1047E000FFFFFFFF000000FF000000FF000000FFD0
:1047F000000000FF000000FF000000FF000000FFBD
:10480000000000FF000000FF000000FF000000FCAF
:10481000000000F0000000D9000000B9000C39834E
:104820000014714C001D962C0328B11A0A36C50FCE
:104830001041D3081246DA051346D904103ECE07BC
:104840000B32BC0C0421A21500138122000B5B3635
:10485000000529500000007200000091000000B423
:10486000000000D5000000EE000000FC000000FF8A
:10487000000000FF000000FF000000FF000000FF3C
:10488000000000FF000000FF000000FF000000FF2C
:10489000000000FFFFFFFFFFFFFFFFFFFFFFFFFF25
:1048A000FFFFFFFF000000FF000000FF000000FF0F
:1048B000000000FF000000FF000000FF000000FFFC
:1048C000000000FF000000FF000000FF000000FFEC
:1048D000000000FF000000FC000000F2000000E00B
:1048E000000000C8000000B00000009C0000008E26
:1048F000000000830000007B0000007700000077CC
:104900000000007A000000820000008C0000009B84
:10491000000000AD000000C5000000DD000000F058
:10492000000000FB000000FF000000FF000000FF8F
:10493000000000FF000000FF000000FF000000FF7B
:10494000000000FF000000FF000000FF000000FF6B
:10495000000000FFFFFFFFFFFFFFFFFFFFFFFFFF64
:10496000FFFFFFFF000000FF000000FF000000FF4E
:10497000000000FF000000FF000000FF000000FF3B
:10498000000000FF000000FF000000FF000000FF2B
:10499000000000FF000000FF000000FF000000FE1C
:1049A000000000F8000000EF000000E6000000DE5C
:1049B000000000D9000000D5000000D4000000D3A2
:1049C000000000D5000000D8000000DD000000E578
:1049D000000000EE000000F8000000FE000000FFF4
:1049E000000000FF000000FF000000FF000000FFCB
:1049F000000000FF000000FF000000FF000000FFBB
:104A0000000000FF000000FF000000FF000000FFAA
:104A1000000000FFFFFFFFFFFFFFFFFFFFFFFFFFA3
:104A2000FFFFFFFFFFFFFFFFFFFFFFFFFFFFFFFF96
:104A3000FFFFFFFFFFFFFFFFFFFFFFFFFFFFFFFF86
:104A4000FFFFFFFFFFFFFFFFFFFFFFFFFFFFFFFF76
:104A5000FFFFFFFFFFFFFFFFFFFFFFFFFFFFFFFF66
:104A6000FFFFFFFFFFFFFFFFFFFFFFFFFFFFFFFF56
:104A7000FFFFFFFFFFFFFFFFFFFFFFFFFFFFFFFF46
:104A8000FFFFFFFFFFFFFFFFFFFFFFFFFFFFFFFF36
:104A9000FFFFFFFFFFFFFFFFFFFFFFFFFFFFFFFF26
:104AA000FFFFFFFFFFFFFFFFFFFFFFFFFFFFFFFF16
:104AB000FFFFFFFFFFFFFFFFFFFFFFFFFFFFFFFF06
:104AC000FFFFFFFFFFFFFFFFFFFFFFFFFFFFFFFFF6
:104AD000FFFFFFFFFFFFFFFF30003000C00020009E
:104AE000D82600080000000098300B08FFFFFFFFE9
:104AF000FFFFFFFFFFFFFFFFFFFFFFFFFFFFFFFFC6
:104B0000FFFFFFFFFFFFFFFFFFFFFFFFFFFFFFFFB5
:104B1000FFFFFFFFFFFFFFFFFFFFFFFFFFFFFFFFA5
:104B2000FFFFFFFFFFFFFFFFFFFFFFFFFFFFFFFF95
:104B3000FFFFFFFFFFFFFFFFFFFFFFFFFFFFFFFF85
:104B4000FFFFFFFFFFFFFFFFFFFFFFFFFFFFFFFF75
:104B5000FFFFFFFFFFFFFFFFFFFFFFFFFFFFFFFF65
:104B6000FFFFFFFFFFFFFFFFFFFFFFFFFFFFFFFF55
:104B7000FFFFFFFFFFFFFFFFFFFFFFFFFFFFFFFF45
:104B8000FFFFFFFFFFFFFFFFFFFFFFFFFFFFFFFF35
:104B9000FFFFFFFFFFFFFFFFFFFFFFFFFFFFFFFF25
:104BA000FFFFFFFFFFFFFFFFFFFFFFFFFFFFFFFF15
:104BB000FFFFFFFFFFFFFFFFFFFFFFFF000000FF02
:104BC000000000FF000000FF000000FF000000FFE9
:104BD000000000FF000000FF000000FF000000FFD9
:104BE000000000FF000000FF000000FF000000FFC9
:104BF000000000FF000000FF000000FF000000FFB9
:104C0000000000FF000000FF000000FF000000FFA8
:104C1000000000FF000000FF000000FF818181F024
:104C20007B7B7BB3797979667C7C7C27626262A12D
:104C3000000000EF000000FC000000FF000000FF8B
:104C4000000000FF000000FF000000FF000000FF68
:104C5000000000FF000000FF000000FF000000FF58
:104C6000000000FFFFFFFFFFFFFFFFFFFFFFFFFF51
:104C7000FFFFFFFFFFFFFFFFFFFFFFFF000000FF41
:104C8000000000FF000000FF000000FF000000FF28
:104C9000000000FF000000FF000000FF000000FF18
:104CA000000000FF000000FF000000FF000000FF08
:104CB000000000FF000000FF000000FF000000FFF8
:104CC0005D5D70BB6666787C6C6C7F983F3F45E6A7
:104CD000585858EF7A7A7ABB797979727878781E51
:104CE0007E7E7E008C8C8C008B8B8B007070702491
:104CF000060606BE000000EF000000FF000000FFF7
:104D0000000000FF000000FF000000FF000000FFA7
:104D1000000000FF000000FF000000FF000000FF97
:104D2000000000FFFFFFFFFFFFFFFFFFFFFFFFFF90
:104D3000FFFFFFFFFFFFFFFFFFFFFFFF000000FF80
:104D4000000000FF000000FF000000FF000000FF67
:104D5000000000FF000000FF000000FF000000FF57
:104D6000000000FF000000FF000000FF000000FF47
:104D70005E5E6FF26767789A6B6B7CA35C5C6D908C
:104D80006B6B7D029D9DAF008B8B9B0078787C1EAA
:104D90007777761E7D7C7D0189898900AEAEAF0074
:104DA000D4D6D600F4F4F400C8CACA007C7C7C01D6
:104DB0002D2D2D71000000D9000000FD000000FF26
:104DC000000000FF000000FF000000FF000000FFE7
:104DD000000000FF000000FF000000FF000000FFD7
:104DE000000000FFFFFFFFFFFFFFFFFFFFFFFFFFD0
:104DF000FFFFFFFFFFFFFFFFFFFFFFFF000000FFC0
:104E0000000000FF000000FF000000FF000000FFA6
:104E1000000000FF000000FF000000FF000000FF96
:104E2000000000FF626274EA6A6A7DDB525260EE43
:104E30005C5C6C467D7D9000868699006E6E7A0281
:104E4000898994009D9DA4009695A4008A8A91006A
:104E5000A6A8A800CED1D200ECEFF000FFFFFF0023
:104E6000FFFFFF00FFFFFF00E7EAEC008384840000
:104E70004B4B4B3B000000BE000000F5000000FF64
:104E8000000000FF000000FF000000FF000000FF26
:104E9000000000FF000000FF000000FF000000FF16
:104EA000000000FFFFFFFFFFFFFFFFFFFFFFFFFF0F
:104EB000FFFFFFFFFFFFFFFFFFFFFFFF000000FFFF
:104EC000000000FF000000FF000000FF000000FFE6
:104ED000000000FF000000FF6B6B7CEA5C5C6CF57F
:104EE0005B5B6C9B6C6C7F18818195086C6C7B2282
:104EF00075758300A6A6B1009B9BA80089899200C6
:104F00008B8B8F009A9C9C00AEB2B700ACADBF00FB
:104F1000F7FBFE00FFFFFF00FFFFFF00FEFFFF00AB
:104F2000FFFFFF00FFFFFF00FBFFFF00999A9C00BF
:104F300062626219000000A4000000E9000000FFA6
:104F4000000000FF000000FF000000FF000000FF65
:104F5000000000FF000000FF000000FF000000FF55
:104F6000000000FFFFFFFFFFFFFFFFFFFFFFFFFF4E
:104F7000FFFFFFFFFFFFFFFFFFFFFFFF000000FF3E
:104F8000000000FF000000FF000000FF000000FF25
:104F90005B5B6BF95F5F716A7070830D727286255F
:104FA0006262730CA0A0AF00ADADBC008C8B97000B
:104FB000818084007F80810096999B009EA0B00034
:104FC000D3D9E000FAFFFF00F5FAFC00B8B9C5003C
:104FD000F3F3F800FFFFFF00FFFFFF00FEFEFF00FE
:104FE000FAFBFB00E3E3E300D5D7D800B7BCBE0073
:104FF0007575740321212175000000DA000000FEA0
:10500000000000FF000000FF000000FF000000FFA4
:10501000000000FF000000FF000000FF000000FF94
:10502000000000FFFFFFFFFFFFFFFFFFFFFFFFFF8D
:10503000FFFFFFFFFFFFFFFFFFFFFFFF000000FF7D
:10504000000000FF000000FF000000FF000000FF64
:105050005555649474748600ADADBD009393A4005F
:105060007E7E8500838387007D7E7E009495A500EB
:10507000A9ADB800E5EEF200F3FBFE00C0C3D0001E
:10508000D7DAE300FFFFFF00FAFAFC00D8D7E1000F
:10509000FEFFFF00F7F8F900F0F1F200FEFEFF005E
:1050A000DFE0E100B1B1B100DFE2E300E0E9EE00F2
:1050B000838383004D4D4D38000000C1000000F691
:1050C000000000FF000000FF000000FF000000FFE4
:1050D000000000FF000000FF000000FF000000FFD4
:1050E000000000FFFFFFFFFFFFFFFFFFFFFFFFFFCD
:1050F000FFFFFFFFFFFFFFFFFFFFFFFF000000FFBD
:10510000000000FF000000FF7A7A7AF0767676A43D
:105110006D6D70217F7E86007B7A7C008788900091
:10512000999BAA00BEC8CF00E1ECEF00D2DBE30000
:10513000C2C5D400FFFFFF00FFFFFF00DADCE40080
:10514000EEEFF200FFFFFF00FDFFFF00FDFDFE00A0
:10515000CECFCF00B0B1B100D3D4D400FDFDFE005E
:10516000FCFDFD00FFFFFF00FFFFFF00EFFBFF0066
:105170009CA0A30065646412020202A1000000E882
:10518000000000FF000000FF000000FF000000FF23
:10519000000000FF000000FF000000FF000000FF13
:1051A000000000FFFFFFFFFFFFFFFFFFFFFFFFFF0C
:1051B000FFFFFFFFFFFFFFFFFFFFFFFF797979F997
:1051C000737373B07272725A7271701D7777760052
:1051D000858686009DA3A800BCC8CD00D5E2E70067
:1051E000B3B9CC00EBF2F900FDFFFF00F0F2F600DE
:1051F000D2D3DD00FFFFFF00FDFFFF00F3F4F70057
:10520000E9EAEA00B7B8B800D7D9D900FFFFFF0034
:10521000EBEDEE00F4F6F700FFFFFF00FDFEFF00F0
:10522000FDFEFF00FDFEFF00FDFEFF00F5FFFF009D
:10523000B7BFC400737272012B2B2B67000000D51F
:10524000000000FD000000FF000000FF000000FF64
:10525000000000FF000000FF000000FF000000FF52
:10526000000000FFFFFFFFFFFFFFFFFFFFFFFFFF4B
:10527000FFFFFFFFFFFFFFFFFFFFFFFF7575755487
:105280007A7A7A008A8C8D00A4AAAE00BECBD100B7
:10529000DBEAF100EDFAFF00F6FFFF00FCFFFF0084
:1052A000CDCED900F0F0F300FFFFFF00F2F3F700DE
:1052B000EBEDEF00DBDCDC00F3F5F500F8F9F900CD
:1052C000C8CACA00D8D9DA00F4F6F700FCFEFF001D
:1052D000FEFFFF00FEFFFF00FCFEFF00FCFEFF00E4
:1052E000FCFEFF00FCFEFF00FDFEFF00F8FFFF00DC
:1052F000D3E0E9007D7D7D005252512D000000BABF
:10530000000000F3000000FF000000FF000000FFAD
:10531000000000FF000000FF000000FF000000FF91
:10532000000000FFFFFFFFFFFFFFFFFFFFFFFFFF8A
:10533000FFFFFFFFFFFFFFFFFFFFFFFF7272711C08
:105340008D8F9100DBEDF800ECFBFF00F3FFFF0019
:10535000F9FEFF00FDFEFF00FDFEFF00FDFDFF006A
:10536000ECEDF300F3F5F600FDFEFE00ECEDED00D4
:10537000B3B4B500B9BABB00F5F7F800FEFFFF0003
:10538000FFFFFF00FFFFFF00FDFEFF00FCFDFF0031
:10539000FCFDFF00FCFDFF00FCFDFF00FCFDFF002D
:1053A000FCFDFF00FCFDFF00FCFDFF00FCFDFF001D
:1053B000E7F7FF00979CA0006665640C0909099651
:1053C000000000E4000000FF000000FF000000FFFC
:1053D000000000FF000000FF000000FF000000FFD1
:1053E000000000FFFFFFFFFFFFFFFFFFFFFFFFFFCA
:1053F000FFFFFFFFFFFFFFFFFFFFFFFF6E6E6D1E52
:105400008E909000DEF0FC00F3FCFF00FFFFFF0039
:10541000FFFFFF00FFFFFF00FDFEFF00DDDEDF00FE
:10542000AFB0B100C9CACB00FAFCFD00F6F8F90034
:10543000F6F8FA00FFFFFF00FCFEFF00FBFDFF0097
:10544000FBFDFF00FBFDFF00FBFDFF00FBFDFF0080
:10545000FBFDFF00FBFDFF00FBFDFF00FBFDFF0070
:10546000FBFDFF00FBFDFF00FBFDFF00FDFDFF005E
:10547000F0FDFF00B9C8D100737271002B2B2B60B7
:10548000000000D1000000FC000000FF000000FF51
:10549000000000FF000000FF000000FF000000FF10
:1054A000000000FFFFFFFFFFFFFFFFFFFFFFFFFF09
:1054B000FFFFFFFFFFFFFFFFFFFFFFFF6D6D6D1E93
:1054C0008E8D8D00D9E9F400ECF9FF00F3F3F400C0
:1054D000D6D7D900D8DADB00FEFEFF00DEE0E1001F
:1054E000E2E3E500FBFDFE00FCFDFF00FCFEFF002B
:1054F000FCFEFF00FBFDFF00FBFDFF00FBFEFF00CD
:10550000FBFFFF00FBFFFF00FBFFFF00FBFFFF00B7
:10551000FBFFFF00FBFFFF00FBFEFF00FBFDFF00AA
:10552000FBFDFF00FBFDFF00FBFDFF00FDFEFF009C
:10553000F3FCFF00D0E5F2007E8081004A4949314A
:10554000000000B9000000F3000000FF000000FFB1
:10555000000000FF000000FF000000FF000000FF4F
:10556000000000FFFFFFFFFFFFFFFFFFFFFFFFFF48
:10557000FFFFFFFFFFFFFFFFFFFFFFFF6B6B6B26D0
:105580008E8C8B00DAE6ED00DEF2FC00C8CACA00A1
:10559000C5C8C900E9EBED00FCFEFF00FEFFFF00FF
:1055A000FEFFFF00FBFEFF00FAFDFF00FBFDFF001A
:1055B000FBFDFF00FAFEFF00FAFFFF00FAFEFF000E
:1055C000FBF3F400FCE6E700FDDDDE00FDD9DA00C8
:1055D000FDDCDD00FCE7E800FBFBFC00FAFFFF0060
:1055E000FBFDFF00FBFDFF00FBFDFF00FBFDFF00DF
:1055F000F8FDFF00DFF6FF009CA7AD006563620ABF
:1056000012121291000000E4000000FE000000FFF2
:10561000000000FF000000FF000000FF000000FF8E
:10562000000000FFFFFFFFFFFFFFFFFFFFFFFFFF87
:10563000FFFFFFFFFFFFFFFFFFFFFFFF6464645BEF
:1056400081818000D5DADE00D6EEFE00F7FDFF0096
:10565000FFFFFF00FCFFFF00FAFDFF00FAFDFF0067
:10566000FAFDFF00FAFDFF00FAFDFF00FAFDFF0062
:10567000FAFEFF00FAFFFF00FCEAEB00FDCECE00D1
:10568000FFBCBC00FFB7B700FFB3B300FFB1B10070
:10569000FFB0B000FFB0B000FEC2C200FAF3F400E9
:1056A000FAFFFF00FAFDFF00FAFDFF00FAFDFF0020
:1056B000FDFEFF00EAFCFF00B8CEDA007171710058
:1056C00034333356000000CE000000FA000000FF23
:1056D000000000FF000000FF000000FF000000FFCE
:1056E000000000FFFFFFFFFFFFFFFFFFFFFFFFFFC7
:1056F000FFFFFFFFFFFFFFFFFFFFFFFF5B5B5B960F
:1057000073727200C2C4C800D2EBFB00E6F7FF0060
:10571000FCFEFF00FAFDFF00FAFDFF00FAFDFF00AE
:10572000FAFDFF00FAFDFF00FAFDFF00FAFFFF009F
:10573000FAF9FA00FDD5D600FFB8B800FFB4B400FE
:10574000FFB5B500FFB2B100FFB0B000FFB1B100CE
:10575000FFB1B100FFAFAF00FFA9A900FEBFBF00BE
:10576000FAFBFD00FAFEFF00FAFDFF00FAFDFF0064
:10577000FCFDFF00F1FBFF00CBE6F7007D8082001F
:105780004A4A4A2A000000B3000000F0000000FF6F
:10579000000000FF000000FF000000FF000000FF0D
:1057A000000000FFFFFFFFFFFFFFFFFFFFFFFFFF06
:1057B000FFFFFFFFFFFFFFFFFFFFFFFF4A4A4AD344
:1057C00068686807A7A9AD00D1E6F600D8F1FF0028
:1057D000FAFCFF00F9FCFF00F9FCFF00F9FCFF00F8
:1057E000F9FCFF00F9FCFF00F9FDFF00FAF6F800F4
:1057F000FEC8C900FFB3B300FFB5B400FFB2B200EA
:10580000FFB8B800FDC9CA00FDCACA00FFB2B200A5
:10581000FFABAB00FFACAC00FFA9A900FFA7A7003E
:10582000FBE4E600F9FFFF00F9FCFF00F9FCFF00D4
:10583000F9FCFF00F9FCFF00D9F3FF0095A1A900D6
:105840005F5E5C0C08080893000000E3000000FFA6
:10585000000000FF000000FF000000FF000000FF4C
:10586000000000FFFFFFFFFFFFFFFFFFFFFFFFFF45
:10587000FFFFFFFFFFFFFFFFFFFFFFFF000000F83C
:105880006060603989898B00C9D9E900CDECFF00DF
:10589000F4FAFF00FBFCFF00F9FCFF00F9FCFF003D
:1058A000F9FCFF00F9FCFF00F9FFFF00FCD8D9006C
:1058B000FFAEAE00FFB1B100FFB1B100FDD5D60023
:1058C000FAF5F600F9FDFF00F9FFFF00FAEAEC0037
:1058D000FFAFAF00FFA6A600FFA7A700FFA0A00094
:1058E000FCD4D500F9FFFF00F9FCFF00F9FCFF0034
:1058F000F9FCFF00FCFDFF00E8FAFF00B0C8D8008B
:105900006F6E6D0033333355000000CF000000FB95
:10591000000000FF000000FF000000FF000000FF8B
:10592000000000FFFFFFFFFFFFFFFFFFFFFFFFFF84
:10593000FFFFFFFFFFFFFFFFFFFFFFFF000000FE75
:105940005656568473727200B6C0D000C5E7FD008B
:10595000E7F6FF00FCFDFF00F8FCFF00F9FCFF008C
:10596000F9FCFF00F9FCFF00F9FDFF00F9F8F90070
:10597000FCDADB00FEB6B600FCDADC00F8FFFF0064
:10598000F8FEFF00F8FDFF00F8FDFF00F8FFFF0044
:10599000FCCFD100FFA0A000FFA3A300FF9C9C00B0
:1059A000FCD2D400F9FFFF00F9FCFF00F9FCFF0076
:1059B000F9FCFF00FAFDFF00F1FAFF00C5E7FC006B
:1059C00080868A004F4E4D21000000B1000000EF9C
:1059D000000000FF000000FF000000FF000000FFCB
:1059E000000000FFFFFFFFFFFFFFFFFFFFFFFFFFC4
:1059F000FFFFFFFFFFFFFFFFFFFFFFFF000000FFB4
:105A00004A4A4AC8666664059EA5B200C1DFF8002E
:105A1000D3EFFF00FAFDFF00F8FCFF00F8FCFF00E9
:105A2000F8FCFF00F8FCFF00F8FCFF00F8FDFF00A9
:105A3000F8FFFF00F9F5F800F8FDFF00F8FDFF00A2
:105A4000F8FCFF00F8FCFF00F8FCFF00F8FFFF0087
:105A5000FBD6D700FF9C9C00FF9F9F00FF9C9C00F3
:105A6000FAE4E600F8FFFF00F8FCFF00F8FCFF0096
:105A7000F8FCFF00F8FCFF00F8FCFF00D2F2FF008A
:105A800095A7B2005F5E5D0711111187000000DF6E
:105A9000000000FE000000FF000000FF000000FF0B
:105AA000000000FFFFFFFFFFFFFFFFFFFFFFFFFF03
:105AB000FFFFFFFFFFFFFFFFFFFFFFFF000000FFF3
:105AC000222222F35F5E5D25888C9500BAD3EF0019
:105AD000C1E8FF00F1FAFF00FAFDFF00F8FCFF004B
:105AE000F8FCFF00F8FCFF00F8FCFF00F8FCFF00EA
:105AF000F8FCFF00F8FEFF00F8FCFF00F8FCFF00D8
:105B0000F8FCFF00F8FFFF00F8FFFF00F9EFF100DD
:105B1000FEADAD00FF9B9B00FF9A9A00FDBBBC0051
:105B2000F8FFFF00F8FEFF00F8FCFF00F8FCFF00A4
:105B3000F8FCFF00F8FCFF00FBFDFF00DFF7FF00B3
:105B4000A8C7D9006B6B6A002E2E2E52000000CB26
:105B5000000000FA000000FF000000FF000000FF4E
:105B6000000000FFFFFFFFFFFFFFFFFFFFFFFFFF42
:105B7000FFFFFFFFFFFFFFFFFFFFFFFF000000FF32
:105B8000000000FE5857576273747700ABBFDE0009
:105B9000B7E1FD00DFF4FF00FBFDFF00F7FCFF00B5
:105BA000F8FCFF00F8FCFF00F8FCFF00F8FCFF0029
:105BB000F8FCFF00F8FCFF00F8FCFF00F8FCFF0019
:105BC000F8FDFF00F9EEF000FCCACB00FEA4A40033
:105BD000FF999900FF999900FF9A9A00FCC4C500AB
:105BE000F9E9EA00F7FDFF00F7FFFF00F8FBFF000F
:105BF000F8FBFF00F8FCFF00F9FCFF00F1FAFF00E2
:105C0000BDE3FA007C8387004B4B4A21000000B0C3
:105C1000000000EF000000FF000000FF000000FF98
:105C2000000000FFFFFFFFFFFFFFFFFFFFFFFFFF81
:105C3000FFFFFFFFFFFFFFFFFFFFFFFF000000FF71
:105C4000000000FF474747BB65646205939FB600AD
:105C5000B1D9FA00CCEDFF00F9FCFF00F7FBFF0023
:105C6000F7FBFF00F7FBFF00F7FBFF00F7FBFF0070
:105C7000F7FBFF00F7FBFF00F7FBFF00F7FBFF0060
:105C8000F7FDFF00FCBBBC00FF919100FF96960062
:105C9000FF979600FF959500FF959500FF8F8F0069
:105CA000FF929300FDABAC00F9E4E600F7FEFF00C5
:105CB000F7FBFF00F7FBFF00F7FBFF00F9FCFF001D
:105CC000D0F1FF0094ACBB00605E5C031C1C1C7A2E
:105CD000000000DD000000FE000000FF000000FFEB
