:020000040800F2
:1000000040040020010100089D0C00084B0A000874
:10001000990C0008650600080B1800080000000095
:10002000000000000000000000000000891000082F
:100030008D07000800000000790E00084D1200082E
:100040001B0100081B0100081B0100081B01000820
:100050001B0100081B0100081B0100081B01000810
:100060001B0100081B0100081B0100081B01000800
:100070001B0100081B0100081B0100081B010008F0
:100080001B0100081B0100081B0100081B010008E0
:100090001B0100081B0100081B0100080D080008D7
:1000A0001B0100081B0100081B0100081B010008C0
:1000B0001B0100081B0100081B0100081B010008B0
:1000C0001B0100081B0100081B0100081B010008A0
:1000D0001B0100084D1600081B0100081B01000849
:1000E0001B0100081B0100081B010008DFF80CD0F1
:1000F00000F018FA004800471521000840040020CD
:100100000648804706480047FEE7FEE7FEE7FEE7B1
:10011000FEE7FEE7FEE7FEE7FEE7FEE75112000816
:10012000ED00000830B50B460146002020220124D6
:1001300009E021FA02F59D4205D303FA02F5491BB5
:1001400004FA02F52844151EA2F10102F1DC30BDCB
:100150002DE9F05F0546002092469B4688460646FC
:10016000814640241BE0284641464746224600F08F
:10017000FAF953465A46C01A914110D3114618460F
:10018000224600F0E1F92D1A67EB01084F4622469E
:100190000120002100F0D8F917EB00094E41201E84
:1001A000A4F10104DFDC484631462A464346BDE857
:1001B000F09F2DE9FE4F804681EA0300C00F0C46F8
:1001C000009021F0004123F00045B8EB0200A94166
:1001D00005D24046214690461C460B46024623F077
:1001E0000040104347D0270DC7F30A00C3F30A515C
:1001F0000290401A019040286BDAC3F3130040F4D8
:10020000801B0098924620B10023D2EB030A63EBD7
:100210000B0B01985946C0F14002504600F094F98A
:1002200006460D4650465946019A00F0ACF910EBCF
:1002300008006141002487EA115284EAE7731A43F7
:1002400040D0009A62B3019A012A4FEA075215DCA6
:10025000001B61EB02014FF0004202EA0752CDE9B8
:100260000042001C41F5801132462B4600F0ACF9EB
:1002700003B0BDE8F08F40462146F9E7001B61EB73
:100280000201001C41F5801300185B412018A2F503
:10029000001747EB030140EAD570B6196D4111E034
:1002A0006D084FEA360645EAC0754FEA0752001B53
:1002B00061EB0201001C41F5801149084FEA300052
:1002C0000019514132462B4603B0BDE8F04F00F013
:1002D0006CB90098012240000023D0EB020263EBCE
:1002E000E073009821464FEAE074B8EB000061EB40
:1002F0000401E9E783F000435BE781F0004158E740
:100300002DE9FE4F81EA030404F0004421F000418E
:1003100000944FF0000B23F0004350EA01045ED03C
:1003200052EA03045BD0C3F30A54C1F30A552C44C8
:10033000A4F2F3340194A0FB0254C1F3130141F47D
:100340008011C3F3130343F4801301FB024400FB49
:10035000034E840A970A44EA815447EA8357A4FB70
:10036000076802958D0A05FB07854FEA932C04FB6D
:100370000C542705029D4FEA065847EA1637B5EB9D
:1003800008056EEB070C870E920E47EA811742EACA
:100390008312A7FB0201B6EB0B0164EB00042B0DEB
:1003A00043EA0C335E1844EB1C50DA465146E7FB37
:1003B0000201C5F313044FEA0B3343EA14534FEA27
:1003C0000432019C43EA0603A4F10C040294009C4D
:1003D000CDE900B400F0F8F803B0BDE8F08F0020DC
:1003E0000146F9E72DE9F04D81EA030404F0004BE2
:1003F00021F0004514464FF0000A23F0004150EA76
:10040000050220D054EA01021DD0C5F30A57024666
:10041000C5F31303C1F31300C1F30A5640F480156A
:1004200043F48013A7EB0608101BD64608F2FD38EC
:1004300073EB050002D308F1010801E092185B415B
:10044000B8F1000F03DA00200146BDE8F08D00206E
:100450004FF48011064684460EE0171B73EB050728
:1004600005D3121B63EB050306434CEA010C490854
:100470004FEA300092185B4150EA0107EDD152EA91
:10048000030012D082EA040083EA0501084305D084
:10049000101BAB4106D20122002306E000224FF0E0
:1004A000004302E06FF0010253101AEB06004CEB20
:1004B000085110EB0A0041EB0B01BDE8F04D00F0D4
:1004C00074B8C1F30A52C1F3130140F2FF3341F48F
:1004D00080119A4202DA00200146704740F233430D
:1004E0009A42A2F2334202DC524200F03CB800F0E1
:1004F0002BB8000030B5041E71F1000404DB4FF08E
:100500000044404264EB0101141E73F1000405DB5A
:100510001C464FF00043524263EB0403994208BF6C
:10052000904230BD064C074D06E0E06840F0010304
:1005300094E8070098471034AC42F6D3FFF7DAFD91
:10054000E022000800230008202A04DB203A00FAF9
:1005500002F1002070479140C2F1200320FA03F31A
:10056000194390407047202A04DB203A21FA02F018
:100570000021704721FA02F3D040C2F120029140DD
:10058000084319467047202A06DBCB17203A41FA68
:1005900002F043EAE07306E041FA02F3D040C2F110
:1005A0002002914008431946704710B5141E73F19C
:1005B000000408DA401C41F1000192185B411A4323
:1005C00001D120F0010010BD2DE9F04D92469B466F
:1005D00011B1B1FA81F202E0B0FA80F22032904615
:1005E000FFF7B2FF04460F4640EA0A0041EA0B015A
:1005F00053465A46084313D0114653EA010019D016
:10060000C8F140025046FFF7AEFF05460E46504681
:1006100059464246FFF798FF084305D0012004E001
:1006200020463946BDE8F08D0020054346EAE076D5
:100630002C4337430A986305E40AA0EB0800002224
:10064000FD0A44EA47540A3002D500200146E9E792
:10065000010510196941DDE9084500196941BDE846
:10066000F04DA2E700BFFEE738B500243A48007815
:10067000012828D10020384908703848016838A07E
:1006800001F0C6F835480088C0F30724002033493C
:1006900008602046E11704EB117109118DF8001074
:1006A000E11704EB11710911A4EB0111C9B28DF826
:1006B00001109DF800102FA001F0AAF89DF801107C
:1006C0002FA001F0A5F89DF800000B2809D19DF896
:1006D0000100012805D14FF4FA61462001F0CEFD5A
:1006E00038E09DF800000D2809D19DF8010004288C
:1006F00005D14FF4FA61462001F0A0FD2AE09DF8F3
:100700000000092809D19DF80100012805D14FF406
:10071000FA61462001F06AFD1CE09DF800000E28F9
:1007200009D19DF80100012805D14FF4FA61462056
:1007300001F070FD0EE09DF80000082807D19DF83B
:100740000100012803D1002001F08CFD02E000200F
:1007500001F088FD38BD000034000020300000208A
:10076000BAECCDE2BDD3CAD5C2EB2025302E385825
:100770000D0A00006275665B305D3A25640D0A0063
:100780006275665B315D3A25640D0A00704700B5FD
:10079000034603E04FF47A7000F005F8181EA3F149
:1007A0000103F7D100BD00EBC001C9004FF0E0220A
:1007B0005161002191610521116100BF4FF0E021DD
:1007C000096901F480310029F8D004214FF0E022BA
:1007D0001161704770B505460948465D00240BE07D
:1007E00046FA04F000F00102064830F814100648FA
:1007F00000F026F9601CC4B2082CF1DB70BD0000CB
:10080000140000201E000020000801407047000076
:1008100001490860704700001404014000200649A7
:100820000860091D0860091D0860091D086003486B
:10083000014914310860704700040140FFFF0F00B8
:10084000002123498279002A3AD00A4612680368B7
:100850009A430B461A600A1D126803689A430B1DDF
:100860001A60027911440A6803681A430A60184A38
:100870000832126803689A43154B08331A601A1D30
:10088000126803689A43124B0C331A604279102A9B
:100890000ED11A1F126803681A430D4B08331A60F1
:1008A0001A1D126803681A43094B0C331A600DE0D5
:1008B0000749427911440A6803681A430A6005E04F
:1008C000027911440A6803689A430A60704700007D
:1008D0000004014030B500228B071C0F0F2303FAE0
:1008E00004F20B4B8C1053F824309343084C8D10BA
:1008F00044F8253023468C1053F824308C07240FFD
:1009000000FA04F42343024C8D1044F8253030BD26
:10091000080001402DE9F041024600250026002094
:1009200000230024002791F803C00CF00F0591F874
:1009300003C00CF0100CBCF1000F03D091F802C002
:100940004CEA050591F800C0BCF1000F31D01468E5
:1009500000202BE04FF0010C0CFA00F3B1F800C0BE
:100960000CEA03069E4220D183004FF00F0C0CFAD4
:1009700003F7BC4305FA03FC4CEA040491F803C0F6
:10098000BCF1280F06D14FF0010C0CFA00FCC2F8A4
:1009900014C00AE091F803C0BCF1480F05D14FF034
:1009A000010C0CFA00FCC2F810C0401C0828D1D37E
:1009B0001460B1F800C0BCF1FF0F34DD54680020B2
:1009C0002EE000F1080C4FF0010808FA0CF3B1F822
:1009D00000C00CEA03069E4221D183004FF00F0CA9
:1009E0000CFA03F7BC4305FA03FC4CEA040491F843
:1009F00003C0BCF1280F05D100F1080C08FA0CF86F
:100A0000C2F8148091F803C0BCF1480F07D100F17F
:100A1000080C4FF0010808FA0CF8C2F81080401CCE
:100A20000828CED35460BDE8F081024600209368C8
:100A30000B400BB1012000E00020704701617047BE
:100A40000AB1016100E04161704700BFFEE70000AC
:100A500010B5002408E0601CC4B21420FFF7A3FE08
:100A6000FA2C01DB204610BD4FF480710348FFF7DC
:100A7000DCFF0128EFD02046F5E700000008014028
:100A80001FB50121052000F009FA4FF48070ADF880
:100A90000C0048208DF80F0003A91448FFF73AFF17
:100AA00008210020FFF716FF4FF48070FFF7B0FE1B
:100AB0004FF48070019000208DF808000C208DF814
:100AC000090001208DF80A0001A8FFF7B9FE1720E0
:100AD0008DF8000000208DF8010001208DF8020043
:100AE0008DF80300684600F0DBF81FBD00080140E8
:100AF00008B50121042000F0D1F948208DF8030049
:100B00004FF4C050ADF8000003208DF80200694694
:100B10000148FFF7FFFE08BD000801402DE9F04144
:100B200000240026002532E04FF480711C48FFF7B6
:100B30007CFF012829D1FFF78BFF0446FA2C00DB4C
:100B400026E0C82C03DBFA2C01DA01260AE03C2C53
:100B500003DB5A2C01DA012704E00A2C02DB322CD9
:100B600000DA0027012E0ED10E48006840000D4922
:100B700008600846006838440860202D03DB012027
:100B80000949087004E0681CC5B2FFF76DFDCBE7AA
:100B900000BF4FF48070FFF73BFEBDE8F08100001E
:100BA00000080140300000203400002008B5012179
:100BB000082000F073F948208DF803004FF44050EE
:100BC000ADF8000003208DF8020069460148FFF7E8
:100BD000A1FE08BD000C014010B500244FF40041F7
:100BE0000A48FFF722FF70B91420FFF7D0FD00BFBD
:100BF0004FF400410548FFF718FF0028F8D01420F3
:100C0000FFF7C5FD0124204610BD0000000801408B
:100C100008B50121042000F041F948208DF80300B7
:100C20004FF40040ADF8000003208DF80200694643
:100C30000148FFF76FFE08BD0008014008B501211B
:100C4000042000F02BF910208DF80300FF20ADF8F0
:100C5000000003208DF8020069460448FFF75AFEA1
:100C6000FF210248FFF7EAFE08BD0000000801402E
:100C700010B54FF400610248FFF7D7FE10BD000029
:100C80000008014010B54FF400510248FFF7CDFEB7
:100C900010BD0000000C014000BFFEE770470000DF
:100CA00070B5002100230F22C47804B3154C2468CA
:100CB00004F4E064C4F5E064210AC1F10403CA400D
:100CC000447804FA03F184781440214309010E4C5E
:100CD0000678A155047804F01F050124AC4005787E
:100CE0006D11AD0005F1E025C5F8004109E004787B
:100CF00004F01F050124AC40044D0678761145F838
:100D0000264070BD0CED00E000E400E080E100E072
:100D100002490143024A1160704700000000FA05D1
:100D20000CED00E000B589B00121042000F0A6F828
:100D30000121082000F0B2F84020ADF82000182072
:100D40008DF8230003208DF8220008A94848FFF7FA
:100D5000E1FD8020ADF8200018208DF8230003204D
:100D60008DF8220008A94248FFF7D4FD4FF48070A7
:100D7000ADF8200018208DF8230003208DF8220004
:100D800008A93B48FFF7C6FD4FF40070ADF82000FE
:100D900018208DF8230003208DF8220008A934487C
:100DA000FFF7B8FD6320ADF818002320ADF814005C
:100DB0000020ADF81A00ADF8160005A92D4800F086
:100DC000F3FB6020ADF804000120ADF80600002020
:100DD000ADF80A00ADF80C0001A9264800F080FA31
:100DE0006020ADF804000120ADF806000020ADF849
:100DF0000A00ADF80C0001A91E4800F0C7FA6020F7
:100E0000ADF804000120ADF806000020ADF80A009E
:100E1000ADF80C0001A9174800F018FB6020ADF8F0
:100E200004000120ADF806000020ADF80A00ADF87E
:100E30000C0001A90F4800F063FB08210D4800F0E9
:100E40009BFA08210B4800F0F3FA0821094800F04A
:100E50004DFB0821074800F091FB0121054800F0F7
:100E600027FA0121034800F02FFA09B000BD000065
:100E7000000C0140000800407047000029B1064AFC
:100E8000D2690243044BDA6104E0034AD269824327
:100E9000014BDA61704700000010024029B1064A98
:100EA00092690243044B9A6104E0034A92698243C7
:100EB000014B9A61704700000010024030B50021DC
:100EC0000022002400232D4D6D6805F00C0121B196
:100ED000042905D0082923D105E0294D056022E029
:100EE000274D05601FE0254D6D6805F47012234DF8
:100EF0006D6805F48034022505EB92421CB9214D42
:100F0000554305600BE01D4D6D6805F400351DB1BE
:100F10001C4D5543056002E0194D5543056002E044
:100F2000174D056000BF00BF144D6D6805F0F0015E
:100F30000909154D6B5C0568DD4045600F4D6D6816
:100F400005F4E061090A104D6B5C4568DD40856081
:100F50000A4D6D6805F46051C90A0B4D6B5C45681C
:100F6000DD40C560054D6D6805F44041890B074DB6
:100F70006B5CC568B5FBF3F5056130BD0010024040
:100F800000127A0000093D0000000020100000203F
:100F900010B54FF480510248FFF747FD10BD000027
:100FA0000008014010B54FF480510248FFF73DFDA5
:100FB00010BD0000000C014010B5FFF759FE0128DC
:100FC00008D1FFF7E5FF012804D10021462001F0F8
:100FD00055F928E0FFF74CFE012808D1FFF7D8FFAC
:100FE00028B94FF4C871462001F0D8F81BE0FFF78C
:100FF0003FFE48B9FFF7CCFF012805D14FF4C87177
:10100000462001F0DFF80EE0FFF732FE58B9FFF797
:10101000BFFF40B94FF4C87001F024F94FF461717B
:10102000462001F0F7F810BD10B5FFF72BFE38B9D8
:10103000FFF7B8FF20B90021462001F01FF922E098
:10104000FFF720FE012807D1FFF7ACFF20B90021F0
:10105000462001F0A3F816E0FFF714FE40B9FFF7B1
:10106000A1FF012804D10021462001F0ABF80AE0DD
:10107000FFF708FE012806D1FFF794FF012802D1EF
:10108000002001F0EFF810BD7047000000B587B0F8
:1010900001218803FFF702FF01210420FFF7FEFE74
:1010A00018208DF81B004FF40070ADF818000320D5
:1010B0008DF81A0006A92148FFF72CFC48208DF86E
:1010C0001B004FF48060ADF8180003208DF81A0063
:1010D00006A91A48FFF71EFC4FF416500290002094
:1010E000ADF814000C20ADF812000020ADF810008F
:1010F000ADF80E00ADF80C0002A9114800F010FB8D
:10110000012240F225510E4800F0E4FA4FF4A060AD
:10111000FFF7FEFD25208DF8040001208DF8070063
:101120008DF805008DF8060001A8FFF7B9FD012133
:10113000034800F0B6FA07B000BD00000008014007
:101140000038014010B504462146054800F059FB1F
:1011500000BF8021024800F0B0FA0028F9D010BD8D
:101160000038014010B500F001F810BD0CB50020AA
:10117000019000903348006840F4803031490860A5
:1011800000BF3048006800F4003000900198401C17
:101190000190009818B90198B0F5A06FF1D12948D5
:1011A000006800F4003010B10120009001E0002040
:1011B00000900098012843D12348006840F01000B7
:1011C000214908600846006820F0030008600846CE
:1011D000006840F0020008601A48406819494860F9
:1011E0000846406848600846406840F480604860AF
:1011F0000846406820F47C1048600846406840F487
:10120000E81048600846006840F08070086000BF41
:101210000C48006800F000700028F9D009484068C8
:1012200020F00300074948600846406840F002008B
:10123000486000BF0348406800F00C000828F9D15E
:101240000CBD00000010024000200240704700006A
:1012500010B51348006840F00100114908600846C5
:101260004068104908400E494860084600680E4929
:1012700008400B4908600846006820F48020086098
:101280000846406820F4FE0048604FF41F00886064
:10129000FFF768FF4FF000600449086010BD0000D0
:1012A000001002400000FFF8FFFFF6FE08ED00E02E
:1012B00021B1028842F08002028004E002884FF6E9
:1012C0007F731A400280704721B1028842F0010208
:1012D000028004E002884FF6FE731A4002807047D5
:1012E00070B5002400220023058C4FF6FE763540B1
:1012F0000584028C8388048B4FF68F752C40B51EB5
:101300002C400D882C43751E2A400D892A434D8898
:101310002A43144DA8420BD0134DA84208D0134DB8
:10132000A84205D0124DA84202D0124DA84213D1B6
:101330004FF6F7752A404D892A434FF6FB752A4030
:101340008D882A434FF6FF652B404FF6FF552B4003
:101350008D892B43CD892B4383800483CD8885865B
:10136000028470BD002C0140003401400040014067
:1013700000440140004801400A460021018B4FF61D
:10138000F7731940114301837047000070B50024C2
:1013900000220023058C4FF6EF7635400584028C41
:1013A0008388048B48F6FF752C404FF6FF452C4090
:1013B0000D884FF6FF7606EA05252C434FF6DF75BC
:1013C0002A400D8906EA05152A434D8806EA0515C7
:1013D0002A43154DA84202D0144DA8421DD14FF604
:1013E0007F752A404D894FF6FF7606EA05152A4398
:1013F0004FF6BF752A408D8806EA05152A434FF639
:10140000FF352B404FF2FF752B408D8906EA85058D
:101410002B43CD8906EA85052B4383800483CD8841
:101420000587028470BD0000002C0140003401409B
:101430000A460021018B4FF2FF7319404FF6FF73EC
:1014400003EA0223194301837047000070B50024AA
:1014500000220023058C4FF6FF6635400584028C80
:101460008388848B4FF68F752C404FF6FC752C408B
:101470000D882C434FF6FF552A400D894FF6FF7615
:1014800006EA05252A434D8806EA05252A43154D17
:10149000A84202D0144DA8421DD14FF2FF752A4038
:1014A0004D894FF6FF7606EA05252A434FF6FF35AC
:1014B0002A408D8806EA05252A434EF6FF752B4003
:1014C0004DF6FF752B408D8906EA05152B43CD8916
:1014D00006EA05152B4383808483CD8885870284A3
:1014E00070BD0000002C0140003401400A4600217C
:1014F000818B4FF6F77319401143818370470000C9
:1015000070B5002200230024058C4EF6FF7635408E
:101510000584038C8488828B48F6FF752A404FF639
:10152000FF452A400D884FF6FF7606EA05252A4337
:101530004DF6FF752B400D8906EA05352B434D8886
:1015400006EA05352B430B4DA84202D00A4DA842AE
:1015500008D14BF6FF752C408D894FF6FF7606EAD1
:1015600085152C4384808283CD88A0F84050038465
:1015700070BD0000002C0140003401400A460021EB
:10158000818B4FF2FF7319404FF6FF7303EA02237A
:10159000194381837047818670470187704781872F
:1015A0007047A0F840107047002202881D4B9842F7
:1015B0000ED01D4B98420BD0B0F1804F08D01B4B82
:1015C000984205D01A4B984202D01A4B984204D147
:1015D0004FF68F731A404B881A43174B984207D027
:1015E000164B984204D04FF6FF431A40CB881A435B
:1015F00002808B8883850B8803850A4B98420BD029
:10160000094B984208D00E4B984205D00D4B98429A
:1016100002D00D4B984201D10B7A038601238382BD
:1016200070470000002C01400034014000040040DD
:1016300000080040000C0040001000400014004072
:1016400000400140004401400048014010B540F214
:101650002551094800F031F801280CD1064800F066
:10166000CBF80649087001200549087040F2255161
:10167000014800F007F810BD003801403500002097
:101680003600002010B50022002340F66A14A14263
:1016900000D100BF0A1201249440A3B2DC430480AD
:1016A00010BD21B1828942F40052828104E0828916
:1016B0004DF6FF731A408281704702460020B1F553
:1016C000007F00D100BF13880B400BB1012000E068
:1016D00000207047F0B503460024002600250020B6
:1016E00040F66A17B94200D100BF1846C1F3421450
:1016F00001F01F06012707FA06F5012C01D10C3075
:1017000004E0022C01D1103000E014301AB1076857
:101710002F43076002E00768AF430760F0BD000099
:101720002DE9F04786B005460E460024A24600BFCC
:10173000A1460027B08900B100BF2F462C8A4CF685
:10174000FF700440F08804432C82AC894EF6F310FD
:101750000440B08831890843718908430443AC814F
:10176000AC8A4FF6FF400440B0890443AC8201A824
:10177000FFF7A4FB1F48874202D1DDF810A001E06B
:10178000DDF80CA0A88900F4004040B10AEBCA00C3
:1017900000EB0A1031684900B0FBF1F807E00AEBF2
:1017A000CA0000EB0A1031688900B0FBF1F8642030
:1017B000B8FBF0F004012009642101FB1089A8891D
:1017C00000F4004040B1322000EBC900B0FBF1F062
:1017D00000F00700044308E0322000EB0910642108
:1017E000B0FBF1F000F00F0004432C8106B0BDE81F
:1017F000F08700000038014001468888C0F30800E7
:101800007047C1F308028280704700BFFEE7000006
:101810000FB4054B10B503A9044A029800F0DAF89A
:1018200010BC5DF814FB0000032100083800002004
:1018300002E008C8121F08C1002AFAD17047704799
:10184000002001E001C1121F002AFBD170470000F7
:101850002DE9FF5F82B00021DDE90430020DDDF8E3
:1018600040B0034318D044F61050A2F2FF32424376
:101870001514119801281FD0A5EB0B00401C5FEA3E
:10188000000A4FF000064E4FDFF83891B046504640
:1018900015D5CAF1000413E0119801244AA30128C8
:1018A00001D16FEA0B010298119AC0E90031C0E939
:1018B000024206B0BDE8F09FCBF10000DFE704462E
:1018C0000021404A491842EB0450CDE9001012E0D3
:1018D000E00707D032463B4640464946FEF710FD3A
:1018E0008046894632463B4610461946FEF708FDBB
:1018F00006460F466410002CEAD1DDE90401DDE95B
:101900000023BAF1000F06DAFEF7FAFC42464B4616
:10191000FEF7F6FC05E0FEF765FD42464B46FEF796
:1019200061FD04460E460022284BFEF7E3FD03D876
:101930004FF0FF30014607E00022254B204631469C
:10194000FEF737FCFEF7BDFD102409E0002C0ADB92
:101950000A220023FEF7FCFB039B30321A55641E5B
:1019600050EA0102F2D1641C039AC4F11103144439
:10197000119A012A03D0012208430DD10AE008433D
:1019800004D000204FF0110B119072E7A3EB0B0570
:101990006D1E0DE05B4504DD4FF0000205F1010511
:1019A00004E003DA4FF00002A5F10105002AECD0B3
:1019B00002981199C0E90231C0E9004579E70000B9
:1019C000000014400000F03F300000000000F04331
:1019D0000000E03F2DE9FF4F95B09B468946064643
:1019E00000250FE2252877D100242746F84A012157
:1019F000059400E0044316F8013F203B01FA03F090
:101A00001042F7D130782A2811D06FF02F033078A8
:101A1000A0F13002092A16D8059A44F0020402EB1C
:101A2000820203EB42021044761C0590EFE759F85E
:101A3000042B0592002A03DA504244F40054059026
:101A400044F00204761C30782E2816D116F8010FC7
:101A500044F004042A280DD06FF02F023078A0F152
:101A60003003092B09D807EB870302EB4303C718A0
:101A7000761CF3E759F8047B761C30786C280FD07D
:101A800006DC4C2817D068280DD06A2814D104E051
:101A9000742810D07A280FD10DE044F400140AE025
:101AA00044F4801401E044F440147278824202D17C
:101AB00004F58014761C761C307866280BD013DC75
:101AC000582877D009DC002875D04528F6D046285C
:101AD000F4D047281AD19DE118E0632835D0642856
:101AE00079D0652812D195E1702873D008DC672879
:101AF000F1D069286FD06E280DD06F2806D1B5E0DF
:101B000073282CD0752875D0782874D05A46179928
:101B100090476D1C75E1C4F30250022809D00328D8
:101B20000DD0D9F8001004280DD00D6009F104097A
:101B300067E1D9F80010EA17C1E90052F6E7D9F8D1
:101B400000100D80F2E70D70F0E719F8041B8DF816
:101B5000001000208DF80100EA46012003E059F84A
:101B600004AB4FF0FF3061074FF0000102D40DE0ED
:101B700008F101018846B9420FDA8045F8DB1AF80E
:101B800008100029F4D108E008F1010188468142DB
:101B9000FADB1AF808100029F6D105985B46A0EB8D
:101BA000080721463846179A00F094FA284400EBBB
:101BB000080507E04DE029E10DE01AF8010B5A464F
:101BC00017999047B8F10108F7D25B46214638468D
:101BD000179A13E142E00A220092C4F302524FF036
:101BE000000A022A08D059F804CB032A4FEAEC7104
:101BF0000AD00DE029E02AE009F1070121F00702EF
:101C0000F2E802C1914609E00FFA8CFC4FEAEC7150
:101C1000042A03D14FFA8CFC4FEAEC71002907DA51
:101C20000A460021DCF1000C61EB02012D2202E0EA
:101C3000220504D52B228DF80420012203E0E207BF
:101C400001D02022F7E7904659E00A2102E0102255
:101C50000DE010214FF0000A00910BE010224FF030
:101C6000000A44F004040827009203E008224FF021
:101C7000000A0092C4F30252022A05D059F804CB9C
:101C80000021032A08D009E009F1070121F0070229
:101C9000F2E802C1914605E01FFA8CFC042A01D14A
:101CA0000CF0FF0C4FF00008220728D5702806D052
:101CB000009B83F0100353EA0A0305D00EE0402294
:101CC0008DF80420012208E05CEA010206D03022EF
:101CD0008DF804208DF8050002229046009B83F0C9
:101CE000080353EA0A030AD15CEA010201D1620740
:101CF00005D530228DF804204FF001087F1E5828AA
:101D000004D034A003900EA802900DE036A0F9E7AD
:101D100053466046009AFEF71BFA84460398825C9D
:101D20000298401E029002705CEA0100F0D1029815
:101D300006A9081A00F1200A600702D524F48034AD
:101D400000E00127574502DDA7EB0A0000E0002074
:101D500000EB0A01009005984144401A0590E00309
:101D600006D45B462146179A059800F0B3F905445E
:101D7000002706E001A85A46C05D179990476D1CE0
:101D80007F1C4745F6DBE0030CD55B462146179ADE
:101D9000059800F09FF9054404E030205A46179951
:101DA00090476D1C0099481E00900029F5DC08E062
:101DB000029802995A460078491C02911799904757
:101DC0006D1CBAF10001AAF1010AF1DC65E1000025
:101DD0000928010030313233343536373839616201
:101DE00063646566000000003031323334353637C5
:101DF00038394142434445460000000000F058F99C
:101E00000544761C307800287FF4ECAD19B02846E4
:101E1000BDE8F08F620700D4062709F1070222F01F
:101E2000070CFCE80223E14603F000485FEA080CD7
:101E300002D00FF2702C0DE05FEA045C02D50FF2C5
:101E4000682C07E05FEAC47C02D00FF2602C01E04E
:101E5000AFF2700C4FF0FF3823F00043CDF850C0C4
:101E600065280CD006DC452809D046281DD0472817
:101E70003DD13DE0662818D067287ED138E00021AA
:101E8000112F01DB112000E0781CCDE9000106A92B
:101E90000EA8FFF7DDFCDDE90F010E9A039100218A
:101EA000009207F1010A04914DE04FF000400097C5
:101EB000CDE9011006A90EA8FFF7CAFCDDE90F0263
:101EC00003920E9B11990022DDF80CA0009304925E
:101ED00011B9791C00EB010AB7EB0A0004D4C0F178
:101EE000FF3007F1010A0490AAEB0700019044E0DB
:101EF000012F00DA01270021112F01DD112000E060
:101F00003846CDE9000106A90EA8FFF7A1FCDDE9DE
:101F10000F010E9A0391002104910092BA46210705
:101F20000CD40399514500DA8A46BAF1010F05DD58
:101F3000009AAAF10101515C302908D0B84202DAB6
:101F400010F1040F06DA0121CDE9011015E0AAF124
:101F50000101E9E7002805DC049901440491AAEB9A
:101F6000000102E0411C514500DD8A460499401AF7
:101F7000401C01904FF000400290200704D40198CB
:101F8000504501DBCDF8048000208DF84F00029809
:101F90000DF14F07B0F1004F25D02B200E90029885
:101FA0004FF0020800280CDA404202902D200E90DB
:101FB00007E00A210298FEF7B5F83031029007F8E1
:101FC000011DB8F10001A8F10108F2DC0298002817
:101FD000EFD1791E0E980870307800F0200040F0A4
:101FE000450007F8020D12A8C01B00F1070814985D
:101FF000007800B1012000EB0A01019801EBE071CB
:1020000005984144401A401E0590E00306D45B4603
:102010002146179A059800F05DF805441498007859
:1020200018B15A46179990476D1CE00324D55B46BA
:102030002146179A059800F04DF805441CE00498D5
:10204000002807DBDDE90301884203DD0098405CDE
:10205000179901E0179930205A469047049805F1E6
:102060000105401C04900198401E019004D12E20CF
:102070005A46179990476D1CBAF10001AAF1010A5E
:10208000DDDC05E017F8010B5A46179990476D1CE7
:10209000B8F10001A8F10108F4DC5B462146179A6B
:1020A0000598ABE62D0000002B000000200000008A
:1020B0002DE9F041044600251E461746880404D445
:1020C00005E039462020B0476D1C641EF9D528462E
:1020D000BDE8F0812DE9F041044600251E469046FA
:1020E000C80301D5302700E02027880404D505E087
:1020F00041463846B0476D1C641EF9D52846BDE8F8
:10210000F08170B504460D46E0B2FFF71BF820469B
:1021100070BD00004FF4A060FEF7FAFDFEF778FDF9
:10212000FEF7AEFCFEF742FDFEF7E2FCFEF786FD91
:10213000FEF7ACFF00F0B6F82DE0FEF74DFD0128EC
:1021400004D115480078401C1349087012480078E3
:10215000032802DD0120104908700F48007801288B
:1021600004D002280AD0032814D10DE00120FEF784
:1021700031FBFEF759FFFEF751FB0BE00220FEF7A3
:1021800029FBFEF719FF05E00320FEF723FBFEF70E
:10219000C5FC00BF00BFD0E73700002070B5044683
:1021A0000D46642C01DD6FF03704002C00DA0024AA
:1021B000E2B200231946184600F078F82846FEF7E8
:1021C000E6FA70BD70B504460D46642C01DD6FF073
:1021D0003704002C00DA0024E0B200231A46194626
:1021E00000F064F82846FEF7D2FA70BD70B50446D8
:1021F0000D46642C01DD6FF03704002C00DA00245A
:10220000E2B2E1B20023184600F050F82846FEF78B
:10221000BEFA70BD70B504460D46642C01DD6FF04A
:102220003704002C00DA0024E3B2E0B200221146A9
:1022300000F03CF82846FEF7AAFA70BD70B50446D7
:102240000D46642C01DD6FF03704002C00DA002409
:10225000E3B2E1B20022104600F028F82846FEF76B
:1022600096FA70BD10B5044600231A461946184662
:1022700000F01CF82046FEF78AFA10BD70B504463F
:102280000D46642C01DD6FF03704002C00DA0024C9
:10229000E2B2E0B20023194600F008F82846FEF743
:1022A00076FA70BD10B5FEF73DFD10BD2DE9F04189
:1022B00004460F4615461E4621460848FFF76BF9AF
:1022C00039460648FFF769F929460448FFF767F9D8
:1022D00031460248FFF765F9BDE8F081000800408B
:1022E00000230008000000203C0000003018000817
:1022F0003C2300083C0000200404000040180008B3
:10230000000000000102030401020304060708099B
:1023100002040608C0F9A4B0999282F880900100E6
:1023200002000400080010002000400080000000AF
:0C233000000000000000000100000000A0
:04000005080000ED02
:00000001FF
