:020000040800F2
:100000000804002001010008E5030008C3020008FD
:10001000E103000849010008970B000800000000F8
:100020000000000000000000000000003106000891
:100030004D01000800000000510500081D070008E0
:100040001B0100081B0100081B0100081B01000820
:100050001B0100081B0100081B0100081B01000810
:100060001B0100081B0100081B0100081B01000800
:100070001B0100081B0100081B0100081B010008F0
:100080001B0100081B0100081B0100081B010008E0
:100090001B0100081B0100081B0100089501000856
:1000A0001B0100081B0100081B0100081B010008C0
:1000B0001B0100081B0100081B0100081B010008B0
:1000C0001B0100081B0100081B0100081B010008A0
:1000D0001B0100081D0B00081B0100081B01000884
:1000E0001B0100081B0100081B010008DFF80CD0F1
:1000F00000F018F800480047B90B00080804002079
:100100000648804706480047FEE7FEE7FEE7FEE7B1
:10011000FEE7FEE7FEE7FEE7FEE7FEE72107000851
:10012000ED000008064C074D06E0E06840F00103D2
:1001300094E8070098471034AC42F6D3FFF7DAFF93
:10014000AC0C0008CC0C000800BFFEE7704700B5FF
:10015000034603E04FF47A7000F005F8181EA3F18F
:100160000103F7D100BD00EBC001C9004FF0E02250
:100170005161002191610521116100BF4FF0E02123
:10018000096901F480310029F8D004214FF0E02200
:100190001161704770472DE9F041024600250026A5
:1001A000002000230024002791F803C00CF00F0565
:1001B00091F803C00CF0100CBCF1000F03D091F8C3
:1001C00002C04CEA050591F800C0BCF1000F31D027
:1001D000146800202BE04FF0010C0CFA00F3B1F88A
:1001E00000C00CEA03069E4220D183004FF00F0CA2
:1001F0000CFA03F7BC4305FA03FC4CEA040491F83B
:1002000003C0BCF1280F06D14FF0010C0CFA00FC22
:10021000C2F814C00AE091F803C0BCF1480F05D140
:100220004FF0010C0CFA00FCC2F810C0401C08286A
:10023000D1D31460B1F800C0BCF1FF0F34DD5468B5
:1002400000202EE000F1080C4FF0010808FA0CF332
:10025000B1F800C00CEA03069E4221D183004FF0A2
:100260000F0C0CFA03F7BC4305FA03FC4CEA040438
:1002700091F803C0BCF1280F05D100F1080C08FA71
:100280000CF8C2F8148091F803C0BCF1480F07D1F4
:1002900000F1080C4FF0010808FA0CF8C2F81080C1
:1002A000401C0828CED35460BDE8F08102460020EF
:1002B00093680B400BB1012000E000207047016102
:1002C000704700BFFEE7000008B50121042000F0E0
:1002D00051F948208DF803004FF4C050ADF80000EC
:1002E00003208DF8020069460148FFF754FF08BD5E
:1002F0000008014008B50121082000F03BF9482022
:100300008DF803004FF44050ADF8000003208DF845
:10031000020069460148FFF73EFF08BD000C01409E
:1003200010B500244FF400410A48FFF7BFFF70B931
:100330001420FFF70CFF00BF4FF400410548FFF702
:10034000B5FF0028F8D01420FFF701FF0124204654
:1003500010BD00000008014008B50121042000F094
:1003600009F948208DF803004FF40040ADF8000073
:1003700003208DF8020069460148FFF70CFF08BD15
:100380000008014008B50121042000F0F3F8102016
:100390008DF80300FF20ADF8000003208DF8020067
:1003A00069460448FFF7F7FEFF210248FFF787FF81
:1003B00008BD00000008014010B54FF4006102487C
:1003C000FFF774FF10BD00000008014010B54FF4A6
:1003D00000510248FFF76AFF10BD0000000C014009
:1003E00000BFFEE77047000002490143024A116066
:1003F000704700000000FA050CED00E000B589B080
:100400000121042000F0A6F80121082000F0B2F834
:100410004020ADF8200018208DF8230003208DF82F
:10042000220008A94848FFF7B6FE8020ADF820005A
:1004300018208DF8230003208DF8220008A94248D7
:10044000FFF7A9FE4FF48070ADF8200018208DF85A
:10045000230003208DF8220008A93B48FFF79BFEEC
:100460004FF40070ADF8200018208DF82300032011
:100470008DF8220008A93448FFF78DFE6320ADF8FF
:1004800018002320ADF814000020ADF81A00ADF8D4
:10049000160005A92D4800F0EFFA6020ADF8040021
:1004A0000120ADF806000020ADF80A00ADF80C0000
:1004B00001A9264800F07CF96020ADF80400012075
:1004C000ADF806000020ADF80A00ADF80C0001A957
:1004D0001E4800F0C3F96020ADF804000120ADF81B
:1004E00006000020ADF80A00ADF80C0001A917487D
:1004F00000F014FA6020ADF804000120ADF8060009
:100500000020ADF80A00ADF80C0001A90F4800F07A
:100510005FFA08210D4800F097F908210B4800F018
:10052000EFF90821094800F049FA0821074800F0CE
:100530008DFA0121054800F023F90121034800F05C
:100540002BF909B000BD0000000C0140000800407C
:100550007047000029B1064AD2690243044BDA61B0
:1005600004E0034AD2698243014BDA61704700001C
:100570000010024029B1064A92690243044B9A6175
:1005800004E0034A92698243014B9A61704700007C
:100590000010024010B54FF480510248FFF786FE6C
:1005A00010BD00000008014010B54FF48051024812
:1005B000FFF77CFE10BD0000000C014010B5FFF7F6
:1005C000FBFE30B9FFF7E6FF18B9002000F031FB61
:1005D0002DE0FFF7FBFE38B9FFF7E6FF20B9002159
:1005E000462000F032FB22E0FFF7F0FE012807D1A1
:1005F000FFF7DAFF20B90021462000F0F4FA16E0F8
:10060000FFF7E4FE40B9FFF7CFFF012804D1002136
:10061000462000F0FBFA0AE0FFF7D8FE012806D1D9
:10062000FFF7C2FF012802D1002000F002FB10BD3D
:10063000704710B500F002F810BD00000CB50020A6
:10064000019000903348006840F4803031490860E0
:1006500000BF3048006800F4003000900198401C52
:100660000190009818B90198B0F5A06FF1D1294810
:10067000006800F4003010B10120009001E000207B
:1006800000900098012843D12348006840F01000F2
:10069000214908600846006820F003000860084609
:1006A000006840F0020008601A4840681949486034
:1006B0000846406848600846406840F480604860EA
:1006C0000846406820F47C1048600846406840F4C2
:1006D000E81048600846006840F08070086000BF7D
:1006E0000C48006800F000700028F9D00948406804
:1006F00020F00300074948600846406840F00200C7
:10070000486000BF0348406800F00C000828F9D199
:100710000CBD0000001002400020024070470000A5
:1007200010B51348006840F0010011490860084600
:100730004068104908400E494860084600680E4964
:1007400008400B4908600846006820F480200860D3
:100750000846406820F4FE0048604FF41F0088609F
:10076000FFF767FF4FF000600449086010BD00000C
:10077000001002400000FFF8FFFFF6FE08ED00E069
:1007800021B1028842F08002028004E002884FF624
:100790007F731A400280704721B1028842F0010243
:1007A000028004E002884FF6FE731A400280704710
:1007B00070B5002400220023058C4FF6FE763540EC
:1007C0000584028C8388048B4FF68F752C40B51EF0
:1007D0002C400D882C43751E2A400D892A434D88D4
:1007E0002A43144DA8420BD0134DA84208D0134DF4
:1007F000A84205D0124DA84202D0124DA84213D1F2
:100800004FF6F7752A404D892A434FF6FB752A406B
:100810008D882A434FF6FF652B404FF6FF552B403E
:100820008D892B43CD892B4383800483CD88858696
:10083000028470BD002C01400034014000400140A2
:1008400000440140004801400A460021018B4FF658
:10085000F7731940114301837047000070B50024FD
:1008600000220023058C4FF6EF7635400584028C7C
:100870008388048B48F6FF752C404FF6FF452C40CB
:100880000D884FF6FF7606EA05252C434FF6DF75F7
:100890002A400D8906EA05152A434D8806EA051502
:1008A0002A43154DA84202D0144DA8421DD14FF63F
:1008B0007F752A404D894FF6FF7606EA05152A43D3
:1008C0004FF6BF752A408D8806EA05152A434FF674
:1008D000FF352B404FF2FF752B408D8906EA8505C9
:1008E0002B43CD8906EA85052B4383800483CD887D
:1008F0000587028470BD0000002C014000340140D7
:100900000A460021018B4FF2FF7319404FF6FF7327
:1009100003EA0223194301837047000070B50024E5
:1009200000220023058C4FF6FF6635400584028CBB
:100930008388848B4FF68F752C404FF6FC752C40C6
:100940000D882C434FF6FF552A400D894FF6FF7650
:1009500006EA05252A434D8806EA05252A43154D52
:10096000A84202D0144DA8421DD14FF2FF752A4073
:100970004D894FF6FF7606EA05252A434FF6FF35E7
:100980002A408D8806EA05252A434EF6FF752B403E
:100990004DF6FF752B408D8906EA05152B43CD8951
:1009A00006EA05152B4383808483CD8885870284DE
:1009B00070BD0000002C0140003401400A460021B7
:1009C000818B4FF6F7731940114381837047000004
:1009D00070B5002200230024058C4EF6FF763540CA
:1009E0000584038C8488828B48F6FF752A404FF675
:1009F000FF452A400D884FF6FF7606EA05252A4373
:100A00004DF6FF752B400D8906EA05352B434D88C1
:100A100006EA05352B430B4DA84202D00A4DA842E9
:100A200008D14BF6FF752C408D894FF6FF7606EA0C
:100A300085152C4384808283CD88A0F840500384A0
:100A400070BD0000002C0140003401400A46002126
:100A5000818B4FF2FF7319404FF6FF7303EA0223B5
:100A6000194381837047818670470187704781876A
:100A70007047A0F840107047002202881D4B984232
:100A80000ED01D4B98420BD0B0F1804F08D01B4BBD
:100A9000984205D01A4B984202D01A4B984204D182
:100AA0004FF68F731A404B881A43174B984207D062
:100AB000164B984204D04FF6FF431A40CB881A4396
:100AC00002808B8883850B8803850A4B98420BD064
:100AD000094B984208D00E4B984205D00D4B9842D6
:100AE00002D00D4B984201D10B7A038601238382F9
:100AF00070470000002C0140003401400004004019
:100B000000080040000C00400010004000140040AD
:100B100000400140004401400048014010B540F24F
:100B20002551094800F025F801280CD1064800F0AD
:100B30002DF80649087001200549087040F225513A
:100B4000014800F007F810BD003801400000002007
:100B50000100002010B50022002340F66A14A142D3
:100B600000D100BF0A1201249440A3B2DC430480E8
:100B700010BD02460020B1F5007F00D100BF1388F0
:100B80000B400BB1012000E000207047014688882F
:100B9000C0F30800704700BFFEE702E008C8121F5C
:100BA00008C1002AFAD170477047002001E001C156
:100BB000121F002AFBD170474FF4A060FFF714FC0E
:100BC000FFF7CAFBFFF796FBFFF77EFBFFF7DAFBA9
:100BD00000F04EF800BFFFF7A3FB0028FBD001E0B8
:100BE000FFF7ECFCFCE770B504460D46642C00DD15
:100BF0006424002C00DA0024E2B2002319461846CF
:100C000000F03AF82846FFF7A2FA70BD70B5044626
:100C10000D46642C00DD6424002C00DA0024E0B2D0
:100C200000231A46194600F027F82846FFF78FFAE6
:100C300070BD10B5044600231A461946184600F048
:100C40001BF82046FFF783FA10BD70B504460D4629
:100C5000642C00DD6424002C00DA0024E2B2E0B24F
:100C60000023194600F008F82846FFF770FA70BD17
:100C700010B5FFF7C3FB10BD2DE9F04104460F4648
:100C800015461E4621460848FFF7EDFE3946064840
:100C9000FFF7EBFE29460448FFF7E9FE314602481C
:100CA000FFF7E7FEBDE8F08100080040CC0C00082B
:100CB00000000020040000009A0B0008D00C00087F
:100CC0000400002004040000AA0B0008000000003B
:04000005080000ED02
:00000001FF
